{
  "_format": "hh-sol-artifact-1",
  "contractName": "NFTB",
  "sourceName": "contracts/NFTB.sol",
  "abi": [
    {
      "inputs": [],
      "stateMutability": "nonpayable",
      "type": "constructor"
    },
    {
      "inputs": [
        {
          "internalType": "address",
          "name": "sender",
          "type": "address"
        },
        {
          "internalType": "uint256",
          "name": "tokenId",
          "type": "uint256"
        },
        {
          "internalType": "address",
          "name": "owner",
          "type": "address"
        }
      ],
      "name": "ERC721IncorrectOwner",
      "type": "error"
    },
    {
      "inputs": [
        {
          "internalType": "address",
          "name": "operator",
          "type": "address"
        },
        {
          "internalType": "uint256",
          "name": "tokenId",
          "type": "uint256"
        }
      ],
      "name": "ERC721InsufficientApproval",
      "type": "error"
    },
    {
      "inputs": [
        {
          "internalType": "address",
          "name": "approver",
          "type": "address"
        }
      ],
      "name": "ERC721InvalidApprover",
      "type": "error"
    },
    {
      "inputs": [
        {
          "internalType": "address",
          "name": "operator",
          "type": "address"
        }
      ],
      "name": "ERC721InvalidOperator",
      "type": "error"
    },
    {
      "inputs": [
        {
          "internalType": "address",
          "name": "owner",
          "type": "address"
        }
      ],
      "name": "ERC721InvalidOwner",
      "type": "error"
    },
    {
      "inputs": [
        {
          "internalType": "address",
          "name": "receiver",
          "type": "address"
        }
      ],
      "name": "ERC721InvalidReceiver",
      "type": "error"
    },
    {
      "inputs": [
        {
          "internalType": "address",
          "name": "sender",
          "type": "address"
        }
      ],
      "name": "ERC721InvalidSender",
      "type": "error"
    },
    {
      "inputs": [
        {
          "internalType": "uint256",
          "name": "tokenId",
          "type": "uint256"
        }
      ],
      "name": "ERC721NonexistentToken",
      "type": "error"
    },
    {
      "anonymous": false,
      "inputs": [
        {
          "indexed": true,
          "internalType": "address",
          "name": "owner",
          "type": "address"
        },
        {
          "indexed": true,
          "internalType": "address",
          "name": "approved",
          "type": "address"
        },
        {
          "indexed": true,
          "internalType": "uint256",
          "name": "tokenId",
          "type": "uint256"
        }
      ],
      "name": "Approval",
      "type": "event"
    },
    {
      "anonymous": false,
      "inputs": [
        {
          "indexed": true,
          "internalType": "address",
          "name": "owner",
          "type": "address"
        },
        {
          "indexed": true,
          "internalType": "address",
          "name": "operator",
          "type": "address"
        },
        {
          "indexed": false,
          "internalType": "bool",
          "name": "approved",
          "type": "bool"
        }
      ],
      "name": "ApprovalForAll",
      "type": "event"
    },
    {
      "anonymous": false,
      "inputs": [
        {
          "indexed": true,
          "internalType": "address",
          "name": "from",
          "type": "address"
        },
        {
          "indexed": true,
          "internalType": "address",
          "name": "to",
          "type": "address"
        },
        {
          "indexed": true,
          "internalType": "uint256",
          "name": "tokenId",
          "type": "uint256"
        }
      ],
      "name": "Transfer",
      "type": "event"
    },
    {
      "inputs": [
        {
          "internalType": "address",
          "name": "to",
          "type": "address"
        },
        {
          "internalType": "uint256",
          "name": "tokenId",
          "type": "uint256"
        }
      ],
      "name": "approve",
      "outputs": [],
      "stateMutability": "nonpayable",
      "type": "function"
    },
    {
      "inputs": [
        {
          "internalType": "address",
          "name": "owner",
          "type": "address"
        }
      ],
      "name": "balanceOf",
      "outputs": [
        {
          "internalType": "uint256",
          "name": "",
          "type": "uint256"
        }
      ],
      "stateMutability": "view",
      "type": "function"
    },
    {
      "inputs": [
        {
          "internalType": "uint256",
          "name": "tokenId",
          "type": "uint256"
        }
      ],
      "name": "getApproved",
      "outputs": [
        {
          "internalType": "address",
          "name": "",
          "type": "address"
        }
      ],
      "stateMutability": "view",
      "type": "function"
    },
    {
      "inputs": [
        {
          "internalType": "address",
          "name": "owner",
          "type": "address"
        },
        {
          "internalType": "address",
          "name": "operator",
          "type": "address"
        }
      ],
      "name": "isApprovedForAll",
      "outputs": [
        {
          "internalType": "bool",
          "name": "",
          "type": "bool"
        }
      ],
      "stateMutability": "view",
      "type": "function"
    },
    {
      "inputs": [],
      "name": "name",
      "outputs": [
        {
          "internalType": "string",
          "name": "",
          "type": "string"
        }
      ],
      "stateMutability": "view",
      "type": "function"
    },
    {
      "inputs": [
        {
          "internalType": "uint256",
          "name": "tokenId",
          "type": "uint256"
        }
      ],
      "name": "ownerOf",
      "outputs": [
        {
          "internalType": "address",
          "name": "",
          "type": "address"
        }
      ],
      "stateMutability": "view",
      "type": "function"
    },
    {
      "inputs": [
        {
          "internalType": "address",
          "name": "to",
          "type": "address"
        }
      ],
      "name": "safeMint",
      "outputs": [
        {
          "internalType": "uint256",
          "name": "",
          "type": "uint256"
        }
      ],
      "stateMutability": "nonpayable",
      "type": "function"
    },
    {
      "inputs": [
        {
          "internalType": "address",
          "name": "from",
          "type": "address"
        },
        {
          "internalType": "address",
          "name": "to",
          "type": "address"
        },
        {
          "internalType": "uint256",
          "name": "tokenId",
          "type": "uint256"
        }
      ],
      "name": "safeTransferFrom",
      "outputs": [],
      "stateMutability": "nonpayable",
      "type": "function"
    },
    {
      "inputs": [
        {
          "internalType": "address",
          "name": "from",
          "type": "address"
        },
        {
          "internalType": "address",
          "name": "to",
          "type": "address"
        },
        {
          "internalType": "uint256",
          "name": "tokenId",
          "type": "uint256"
        },
        {
          "internalType": "bytes",
          "name": "data",
          "type": "bytes"
        }
      ],
      "name": "safeTransferFrom",
      "outputs": [],
      "stateMutability": "nonpayable",
      "type": "function"
    },
    {
      "inputs": [
        {
          "internalType": "address",
          "name": "operator",
          "type": "address"
        },
        {
          "internalType": "bool",
          "name": "approved",
          "type": "bool"
        }
      ],
      "name": "setApprovalForAll",
      "outputs": [],
      "stateMutability": "nonpayable",
      "type": "function"
    },
    {
      "inputs": [
        {
          "internalType": "bytes4",
          "name": "interfaceId",
          "type": "bytes4"
        }
      ],
      "name": "supportsInterface",
      "outputs": [
        {
          "internalType": "bool",
          "name": "",
          "type": "bool"
        }
      ],
      "stateMutability": "view",
      "type": "function"
    },
    {
      "inputs": [],
      "name": "symbol",
      "outputs": [
        {
          "internalType": "string",
          "name": "",
          "type": "string"
        }
      ],
      "stateMutability": "view",
      "type": "function"
    },
    {
      "inputs": [
        {
          "internalType": "uint256",
          "name": "tokenId",
          "type": "uint256"
        }
      ],
      "name": "tokenURI",
      "outputs": [
        {
          "internalType": "string",
          "name": "",
          "type": "string"
        }
      ],
      "stateMutability": "view",
      "type": "function"
    },
    {
      "inputs": [
        {
          "internalType": "address",
          "name": "from",
          "type": "address"
        },
        {
          "internalType": "address",
          "name": "to",
          "type": "address"
        },
        {
          "internalType": "uint256",
          "name": "tokenId",
          "type": "uint256"
        }
      ],
      "name": "transferFrom",
      "outputs": [],
      "stateMutability": "nonpayable",
      "type": "function"
    }
  ],
  "bytecode": "0x60806040523480156200001157600080fd5b506040518060400160405280600581526020016427232a102160d91b8152506040518060400160405280600481526020016327232a2160e11b81525081600090816200005e91906200011b565b5060016200006d82826200011b565b505050620001e7565b634e487b7160e01b600052604160045260246000fd5b600181811c90821680620000a157607f821691505b602082108103620000c257634e487b7160e01b600052602260045260246000fd5b50919050565b601f8211156200011657600081815260208120601f850160051c81016020861015620000f15750805b601f850160051c820191505b818110156200011257828155600101620000fd565b5050505b505050565b81516001600160401b0381111562000137576200013762000076565b6200014f816200014884546200008c565b84620000c8565b602080601f8311600181146200018757600084156200016e5750858301515b600019600386901b1c1916600185901b17855562000112565b600085815260208120601f198616915b82811015620001b85788860151825594840194600190910190840162000197565b5085821015620001d75787850151600019600388901b60f8161c191681555b5050505050600190811b01905550565b61104680620001f76000396000f3fe608060405234801561001057600080fd5b50600436106100ea5760003560e01c80636352211e1161008c578063a22cb46511610066578063a22cb465146101e1578063b88d4fde146101f4578063c87b56dd14610207578063e985e9c51461021a57600080fd5b80636352211e146101b357806370a08231146101c657806395d89b41146101d957600080fd5b8063095ea7b3116100c8578063095ea7b31461015757806323b872dd1461016c57806340d097c31461017f57806342842e0e146101a057600080fd5b806301ffc9a7146100ef57806306fdde0314610117578063081812fc1461012c575b600080fd5b6101026100fd366004610c8f565b61022d565b60405190151581526020015b60405180910390f35b61011f61027f565b60405161010e9190610cfc565b61013f61013a366004610d0f565b610311565b6040516001600160a01b03909116815260200161010e565b61016a610165366004610d44565b61033a565b005b61016a61017a366004610d6e565b610349565b61019261018d366004610daa565b6103d9565b60405190815260200161010e565b61016a6101ae366004610d6e565b610457565b61013f6101c1366004610d0f565b610477565b6101926101d4366004610daa565b610482565b61011f6104ca565b61016a6101ef366004610dc5565b6104d9565b61016a610202366004610e17565b6104e4565b61011f610215366004610d0f565b6104fb565b610102610228366004610ef3565b610570565b60006001600160e01b031982166380ac58cd60e01b148061025e57506001600160e01b03198216635b5e139f60e01b145b8061027957506301ffc9a760e01b6001600160e01b03198316145b92915050565b60606000805461028e90610f26565b80601f01602080910402602001604051908101604052809291908181526020018280546102ba90610f26565b80156103075780601f106102dc57610100808354040283529160200191610307565b820191906000526020600020905b8154815290600101906020018083116102ea57829003601f168201915b5050505050905090565b600061031c8261059e565b506000828152600460205260409020546001600160a01b0316610279565b6103458282336105d7565b5050565b6001600160a01b03821661037857604051633250574960e11b8152600060048201526024015b60405180910390fd5b60006103858383336105e4565b9050836001600160a01b0316816001600160a01b0316146103d3576040516364283d7b60e01b81526001600160a01b038086166004830152602482018490528216604482015260640161036f565b50505050565b60008042836006546040516020016104169392919092835260609190911b6bffffffffffffffffffffffff19166020830152603482015260540190565b6040516020818303038152906040528051906020012060001c905061043b83826106dd565b6006805490600061044b83610f60565b90915550909392505050565b610472838383604051806020016040528060008152506104e4565b505050565b60006102798261059e565b60006001600160a01b0382166104ae576040516322718ad960e21b81526000600482015260240161036f565b506001600160a01b031660009081526003602052604090205490565b60606001805461028e90610f26565b6103453383836106f7565b6104ef848484610349565b6103d384848484610796565b60606105068261059e565b50600061051e60408051602081019091526000815290565b9050600081511161053e5760405180602001604052806000815250610569565b80610548846108bf565b604051602001610559929190610f87565b6040516020818303038152906040525b9392505050565b6001600160a01b03918216600090815260056020908152604080832093909416825291909152205460ff1690565b6000818152600260205260408120546001600160a01b03168061027957604051637e27328960e01b81526004810184905260240161036f565b6104728383836001610952565b6000828152600260205260408120546001600160a01b039081169083161561061157610611818486610a58565b6001600160a01b0381161561064f5761062e600085600080610952565b6001600160a01b038116600090815260036020526040902080546000190190555b6001600160a01b0385161561067e576001600160a01b0385166000908152600360205260409020805460010190555b60008481526002602052604080822080546001600160a01b0319166001600160a01b0389811691821790925591518793918516917fddf252ad1be2c89b69c2b068fc378daa952ba7f163c4a11628f55a4df523b3ef91a4949350505050565b610345828260405180602001604052806000815250610abc565b6001600160a01b03821661072957604051630b61174360e31b81526001600160a01b038316600482015260240161036f565b6001600160a01b03838116600081815260056020908152604080832094871680845294825291829020805460ff191686151590811790915591519182527f17307eab39ab6107e8899845ad3d59bd9653f200f220920489ca2b5937696c31910160405180910390a3505050565b6001600160a01b0383163b156103d357604051630a85bd0160e11b81526001600160a01b0384169063150b7a02906107d8903390889087908790600401610fb6565b6020604051808303816000875af1925050508015610813575060408051601f3d908101601f1916820190925261081091810190610ff3565b60015b61087c573d808015610841576040519150601f19603f3d011682016040523d82523d6000602084013e610846565b606091505b50805160000361087457604051633250574960e11b81526001600160a01b038516600482015260240161036f565b805181602001fd5b6001600160e01b03198116630a85bd0160e11b146108b857604051633250574960e11b81526001600160a01b038516600482015260240161036f565b5050505050565b606060006108cc83610ad3565b600101905060008167ffffffffffffffff8111156108ec576108ec610e01565b6040519080825280601f01601f191660200182016040528015610916576020820181803683370190505b5090508181016020015b600019016f181899199a1a9b1b9c1cb0b131b232b360811b600a86061a8153600a850494508461092057509392505050565b808061096657506001600160a01b03821615155b15610a285760006109768461059e565b90506001600160a01b038316158015906109a25750826001600160a01b0316816001600160a01b031614155b80156109b557506109b38184610570565b155b156109de5760405163a9fbf51f60e01b81526001600160a01b038416600482015260240161036f565b8115610a265783856001600160a01b0316826001600160a01b03167f8c5be1e5ebec7d5bd14f71427d1e84f3dd0314c0f7b2291e5b200ac8c7c3b92560405160405180910390a45b505b5050600090815260046020526040902080546001600160a01b0319166001600160a01b0392909216919091179055565b610a63838383610bab565b610472576001600160a01b038316610a9157604051637e27328960e01b81526004810182905260240161036f565b60405163177e802f60e01b81526001600160a01b03831660048201526024810182905260440161036f565b610ac68383610c11565b6104726000848484610796565b60008072184f03e93ff9f4daa797ed6e38ed64bf6a1f0160401b8310610b125772184f03e93ff9f4daa797ed6e38ed64bf6a1f0160401b830492506040015b6d04ee2d6d415b85acef81000000008310610b3e576d04ee2d6d415b85acef8100000000830492506020015b662386f26fc100008310610b5c57662386f26fc10000830492506010015b6305f5e1008310610b74576305f5e100830492506008015b6127108310610b8857612710830492506004015b60648310610b9a576064830492506002015b600a83106102795760010192915050565b60006001600160a01b03831615801590610c095750826001600160a01b0316846001600160a01b03161480610be55750610be58484610570565b80610c0957506000828152600460205260409020546001600160a01b038481169116145b949350505050565b6001600160a01b038216610c3b57604051633250574960e11b81526000600482015260240161036f565b6000610c49838360006105e4565b90506001600160a01b03811615610472576040516339e3563760e11b81526000600482015260240161036f565b6001600160e01b031981168114610c8c57600080fd5b50565b600060208284031215610ca157600080fd5b813561056981610c76565b60005b83811015610cc7578181015183820152602001610caf565b50506000910152565b60008151808452610ce8816020860160208601610cac565b601f01601f19169290920160200192915050565b6020815260006105696020830184610cd0565b600060208284031215610d2157600080fd5b5035919050565b80356001600160a01b0381168114610d3f57600080fd5b919050565b60008060408385031215610d5757600080fd5b610d6083610d28565b946020939093013593505050565b600080600060608486031215610d8357600080fd5b610d8c84610d28565b9250610d9a60208501610d28565b9150604084013590509250925092565b600060208284031215610dbc57600080fd5b61056982610d28565b60008060408385031215610dd857600080fd5b610de183610d28565b915060208301358015158114610df657600080fd5b809150509250929050565b634e487b7160e01b600052604160045260246000fd5b60008060008060808587031215610e2d57600080fd5b610e3685610d28565b9350610e4460208601610d28565b925060408501359150606085013567ffffffffffffffff80821115610e6857600080fd5b818701915087601f830112610e7c57600080fd5b813581811115610e8e57610e8e610e01565b604051601f8201601f19908116603f01168101908382118183101715610eb657610eb6610e01565b816040528281528a6020848701011115610ecf57600080fd5b82602086016020830137600060208483010152809550505050505092959194509250565b60008060408385031215610f0657600080fd5b610f0f83610d28565b9150610f1d60208401610d28565b90509250929050565b600181811c90821680610f3a57607f821691505b602082108103610f5a57634e487b7160e01b600052602260045260246000fd5b50919050565b600060018201610f8057634e487b7160e01b600052601160045260246000fd5b5060010190565b60008351610f99818460208801610cac565b835190830190610fad818360208801610cac565b01949350505050565b6001600160a01b0385811682528416602082015260408101839052608060608201819052600090610fe990830184610cd0565b9695505050505050565b60006020828403121561100557600080fd5b815161056981610c7656fea26469706673582212206005a529fc4811bd4fed73d8452d24299a9d230dd8b0d9cc7a845a0df12c079564736f6c63430008140033",
  "linkReferences": {},
  "deployedLinkReferences": {}
}