{
  "_format": "hh-sol-artifact-1",
  "contractName": "Staking",
  "sourceName": "contracts/Staking.sol",
  "abi": [
    {
      "inputs": [
        {
          "internalType": "address",
          "name": "_tokenA",
          "type": "address"
        },
        {
          "internalType": "address",
          "name": "_nftB",
          "type": "address"
        }
      ],
      "stateMutability": "nonpayable",
      "type": "constructor"
    },
    {
      "inputs": [],
      "name": "MathOverflowedMulDiv",
      "type": "error"
    },
    {
      "inputs": [
        {
          "internalType": "address",
          "name": "owner",
          "type": "address"
        }
      ],
      "name": "OwnableInvalidOwner",
      "type": "error"
    },
    {
      "inputs": [
        {
          "internalType": "address",
          "name": "account",
          "type": "address"
        }
      ],
      "name": "OwnableUnauthorizedAccount",
      "type": "error"
    },
    {
      "anonymous": false,
      "inputs": [
        {
          "indexed": false,
          "internalType": "uint256",
          "name": "newBaseAPR",
          "type": "uint256"
        }
      ],
      "name": "APRUpdated",
      "type": "event"
    },
    {
      "anonymous": false,
      "inputs": [
        {
          "indexed": true,
          "internalType": "address",
          "name": "user",
          "type": "address"
        },
        {
          "indexed": false,
          "internalType": "uint256",
          "name": "amount",
          "type": "uint256"
        }
      ],
      "name": "Deposited",
      "type": "event"
    },
    {
      "anonymous": false,
      "inputs": [
        {
          "indexed": true,
          "internalType": "address",
          "name": "user",
          "type": "address"
        },
        {
          "indexed": false,
          "internalType": "uint256",
          "name": "tokenId",
          "type": "uint256"
        }
      ],
      "name": "NFTDeposited",
      "type": "event"
    },
    {
      "anonymous": false,
      "inputs": [
        {
          "indexed": true,
          "internalType": "address",
          "name": "user",
          "type": "address"
        },
        {
          "indexed": false,
          "internalType": "uint256",
          "name": "tokenId",
          "type": "uint256"
        }
      ],
      "name": "NFTMinted",
      "type": "event"
    },
    {
      "anonymous": false,
      "inputs": [
        {
          "indexed": true,
          "internalType": "address",
          "name": "user",
          "type": "address"
        },
        {
          "indexed": false,
          "internalType": "uint256",
          "name": "tokenId",
          "type": "uint256"
        }
      ],
      "name": "NFTWithdrawn",
      "type": "event"
    },
    {
      "anonymous": false,
      "inputs": [
        {
          "indexed": true,
          "internalType": "address",
          "name": "previousOwner",
          "type": "address"
        },
        {
          "indexed": true,
          "internalType": "address",
          "name": "newOwner",
          "type": "address"
        }
      ],
      "name": "OwnershipTransferred",
      "type": "event"
    },
    {
      "anonymous": false,
      "inputs": [
        {
          "indexed": true,
          "internalType": "address",
          "name": "user",
          "type": "address"
        },
        {
          "indexed": false,
          "internalType": "uint256",
          "name": "reward",
          "type": "uint256"
        }
      ],
      "name": "RewardClaimed",
      "type": "event"
    },
    {
      "anonymous": false,
      "inputs": [
        {
          "indexed": true,
          "internalType": "address",
          "name": "user",
          "type": "address"
        },
        {
          "indexed": false,
          "internalType": "uint256",
          "name": "amount",
          "type": "uint256"
        },
        {
          "indexed": false,
          "internalType": "uint256",
          "name": "reward",
          "type": "uint256"
        }
      ],
      "name": "Withdrawn",
      "type": "event"
    },
    {
      "inputs": [],
      "name": "LOCK_PERIOD",
      "outputs": [
        {
          "internalType": "uint256",
          "name": "",
          "type": "uint256"
        }
      ],
      "stateMutability": "view",
      "type": "function"
    },
    {
      "inputs": [],
      "name": "NFT_THRESHOLD",
      "outputs": [
        {
          "internalType": "uint256",
          "name": "",
          "type": "uint256"
        }
      ],
      "stateMutability": "view",
      "type": "function"
    },
    {
      "inputs": [],
      "name": "baseAPR",
      "outputs": [
        {
          "internalType": "uint256",
          "name": "",
          "type": "uint256"
        }
      ],
      "stateMutability": "view",
      "type": "function"
    },
    {
      "inputs": [
        {
          "internalType": "address",
          "name": "user",
          "type": "address"
        }
      ],
      "name": "calculateReward",
      "outputs": [
        {
          "internalType": "uint256",
          "name": "",
          "type": "uint256"
        }
      ],
      "stateMutability": "view",
      "type": "function"
    },
    {
      "inputs": [],
      "name": "claimReward",
      "outputs": [],
      "stateMutability": "nonpayable",
      "type": "function"
    },
    {
      "inputs": [
        {
          "internalType": "uint256",
          "name": "amount",
          "type": "uint256"
        }
      ],
      "name": "deposit",
      "outputs": [],
      "stateMutability": "nonpayable",
      "type": "function"
    },
    {
      "inputs": [
        {
          "internalType": "uint256",
          "name": "tokenId",
          "type": "uint256"
        }
      ],
      "name": "depositNFT",
      "outputs": [],
      "stateMutability": "nonpayable",
      "type": "function"
    },
    {
      "inputs": [],
      "name": "getContractBalance",
      "outputs": [
        {
          "internalType": "uint256",
          "name": "",
          "type": "uint256"
        }
      ],
      "stateMutability": "view",
      "type": "function"
    },
    {
      "inputs": [
        {
          "internalType": "address",
          "name": "user",
          "type": "address"
        }
      ],
      "name": "getCurrentAPR",
      "outputs": [
        {
          "internalType": "uint256",
          "name": "",
          "type": "uint256"
        }
      ],
      "stateMutability": "view",
      "type": "function"
    },
    {
      "inputs": [
        {
          "internalType": "address",
          "name": "user",
          "type": "address"
        }
      ],
      "name": "getMintedNFTCount",
      "outputs": [
        {
          "internalType": "uint256",
          "name": "",
          "type": "uint256"
        }
      ],
      "stateMutability": "view",
      "type": "function"
    },
    {
      "inputs": [
        {
          "internalType": "address",
          "name": "user",
          "type": "address"
        }
      ],
      "name": "getRemainingLockTime",
      "outputs": [
        {
          "internalType": "uint256",
          "name": "",
          "type": "uint256"
        }
      ],
      "stateMutability": "view",
      "type": "function"
    },
    {
      "inputs": [
        {
          "internalType": "address",
          "name": "user",
          "type": "address"
        }
      ],
      "name": "getStakeDetails",
      "outputs": [
        {
          "internalType": "uint256",
          "name": "stakedAmount",
          "type": "uint256"
        },
        {
          "internalType": "uint256",
          "name": "pendingReward",
          "type": "uint256"
        },
        {
          "internalType": "uint256",
          "name": "calculatedReward",
          "type": "uint256"
        },
        {
          "internalType": "uint256",
          "name": "lockEndTime",
          "type": "uint256"
        }
      ],
      "stateMutability": "view",
      "type": "function"
    },
    {
      "inputs": [
        {
          "internalType": "address",
          "name": "user",
          "type": "address"
        }
      ],
      "name": "getStakedNFTCount",
      "outputs": [
        {
          "internalType": "uint256",
          "name": "",
          "type": "uint256"
        }
      ],
      "stateMutability": "view",
      "type": "function"
    },
    {
      "inputs": [
        {
          "internalType": "address",
          "name": "",
          "type": "address"
        }
      ],
      "name": "mintedNFTs",
      "outputs": [
        {
          "internalType": "uint256",
          "name": "",
          "type": "uint256"
        }
      ],
      "stateMutability": "view",
      "type": "function"
    },
    {
      "inputs": [],
      "name": "nftB",
      "outputs": [
        {
          "internalType": "contract NFTB",
          "name": "",
          "type": "address"
        }
      ],
      "stateMutability": "view",
      "type": "function"
    },
    {
      "inputs": [],
      "name": "nftBonusAPR",
      "outputs": [
        {
          "internalType": "uint256",
          "name": "",
          "type": "uint256"
        }
      ],
      "stateMutability": "view",
      "type": "function"
    },
    {
      "inputs": [],
      "name": "owner",
      "outputs": [
        {
          "internalType": "address",
          "name": "",
          "type": "address"
        }
      ],
      "stateMutability": "view",
      "type": "function"
    },
    {
      "inputs": [],
      "name": "renounceOwnership",
      "outputs": [],
      "stateMutability": "nonpayable",
      "type": "function"
    },
    {
      "inputs": [
        {
          "internalType": "address",
          "name": "",
          "type": "address"
        },
        {
          "internalType": "uint256",
          "name": "",
          "type": "uint256"
        }
      ],
      "name": "stakedNFTs",
      "outputs": [
        {
          "internalType": "uint256",
          "name": "",
          "type": "uint256"
        }
      ],
      "stateMutability": "view",
      "type": "function"
    },
    {
      "inputs": [
        {
          "internalType": "address",
          "name": "",
          "type": "address"
        }
      ],
      "name": "stakes",
      "outputs": [
        {
          "internalType": "uint256",
          "name": "amount",
          "type": "uint256"
        },
        {
          "internalType": "uint256",
          "name": "timestamp",
          "type": "uint256"
        },
        {
          "internalType": "uint256",
          "name": "nftDepositTime",
          "type": "uint256"
        },
        {
          "internalType": "uint256",
          "name": "nftCount",
          "type": "uint256"
        },
        {
          "internalType": "uint256",
          "name": "pendingReward",
          "type": "uint256"
        },
        {
          "internalType": "uint256",
          "name": "lockEndTime",
          "type": "uint256"
        },
        {
          "internalType": "uint256",
          "name": "mintedNFTCount",
          "type": "uint256"
        },
        {
          "internalType": "uint256",
          "name": "totalStakedAmount",
          "type": "uint256"
        }
      ],
      "stateMutability": "view",
      "type": "function"
    },
    {
      "inputs": [],
      "name": "tokenA",
      "outputs": [
        {
          "internalType": "contract TokenA",
          "name": "",
          "type": "address"
        }
      ],
      "stateMutability": "view",
      "type": "function"
    },
    {
      "inputs": [
        {
          "internalType": "address",
          "name": "newOwner",
          "type": "address"
        }
      ],
      "name": "transferOwnership",
      "outputs": [],
      "stateMutability": "nonpayable",
      "type": "function"
    },
    {
      "inputs": [
        {
          "internalType": "uint256",
          "name": "newBaseAPR",
          "type": "uint256"
        }
      ],
      "name": "updateBaseAPR",
      "outputs": [],
      "stateMutability": "nonpayable",
      "type": "function"
    },
    {
      "inputs": [],
      "name": "withdraw",
      "outputs": [],
      "stateMutability": "nonpayable",
      "type": "function"
    },
    {
      "inputs": [],
      "name": "withdrawNFTs",
      "outputs": [],
      "stateMutability": "nonpayable",
      "type": "function"
    }
  ],
  "bytecode": "0x6080604052600860035560026004553480156200001b57600080fd5b5060405162001862380380620018628339810160408190526200003e9162000110565b33806200006557604051631e4fbdf760e01b81526000600482015260240160405180910390fd5b6200007081620000a3565b50600180546001600160a01b039384166001600160a01b0319918216179091556002805492909316911617905562000148565b600080546001600160a01b038381166001600160a01b0319831681178455604051919092169283917f8be0079c531659141344cd1fd0a4f28419497f9722a3daafe3b4186f6b6457e09190a35050565b80516001600160a01b03811681146200010b57600080fd5b919050565b600080604083850312156200012457600080fd5b6200012f83620000f3565b91506200013f60208401620000f3565b90509250929050565b61170a80620001586000396000f3fe608060405234801561001057600080fd5b50600436106101735760003560e01c80638da5cb5b116100de578063c2baf73311610097578063e91a7ca611610071578063e91a7ca614610394578063f2fde38b146103a7578063f41322ac146103ba578063f7060048146103ed57600080fd5b8063c2baf73314610366578063d5bfbf9f14610379578063d82e39621461038157600080fd5b80638da5cb5b146102dd57806393c49484146102ee578063b390bd91146102ff578063b6b55f251461032b578063b88a802f1461033e578063ba060bed1461034657600080fd5b80633ccfd60b116101305780633ccfd60b1461029e57806347304494146102a857806358ac0e80146102bb5780636f9fb98a146102c45780637120f294146102cc578063715018a6146102d557600080fd5b806301d650e114610178578063096ff61c1461019e5780630fc63d10146101c757806316934fc4146101f25780631820cabb1461028357806332e2cea81461028b575b600080fd5b61018b610186366004611536565b610400565b6040519081526020015b60405180910390f35b61018b6101ac366004611536565b6001600160a01b031660009081526007602052604090205490565b6001546101da906001600160a01b031681565b6040516001600160a01b039091168152602001610195565b610248610200366004611536565b60056020528060005260406000206000915090508060000154908060010154908060020154908060030154908060040154908060050154908060060154908060070154905088565b604080519889526020890197909752958701949094526060860192909252608085015260a084015260c083015260e082015261010001610195565b61018b601e81565b6002546101da906001600160a01b031681565b6102a6610453565b005b61018b6102b6366004611536565b61083f565b61018b60035481565b61018b610887565b61018b60045481565b6102a66108f9565b6000546001600160a01b03166101da565b61018b69d3c21bcecceda100000081565b61018b61030d366004611536565b6001600160a01b031660009081526005602052604090206003015490565b6102a6610339366004611553565b61090d565b6102a6610c0a565b61018b610354366004611536565b60076020526000908152604090205481565b6102a6610374366004611553565b610dda565b6102a6610e1d565b61018b61038f366004611536565b61100a565b6102a66103a2366004611553565b61110b565b6102a66103b5366004611536565b611300565b6103cd6103c8366004611536565b61133e565b604080519485526020850193909352918301526060820152608001610195565b61018b6103fb36600461156c565b61137d565b6001600160a01b03811660009081526005602052604081206003810154820361042d575050600354919050565b806003015460045461043f91906115ae565b60035461044c91906115cb565b9392505050565b33600090815260056020526040902080546104ac5760405162461bcd60e51b81526020600482015260146024820152734e6f207374616b6520746f20776974686472617760601b60448201526064015b60405180910390fd5b80600501544210156105005760405162461bcd60e51b815260206004820152601760248201527f546f6b656e7320617265207374696c6c206c6f636b656400000000000000000060448201526064016104a3565b600081600401546105103361100a565b61051a91906115cb565b9050600081836000015461052e91906115cb565b600154845460405163a9059cbb60e01b815233600482015260248101919091529192506001600160a01b03169063a9059cbb906044016020604051808303816000875af1158015610583573d6000803e3d6000fd5b505050506040513d601f19601f820116820180604052508101906105a791906115de565b6105f35760405162461bcd60e51b815260206004820152601d60248201527f5374616b656420616d6f756e74207472616e73666572206661696c656400000060448201526064016104a3565b6001546040516315490ebb60e01b8152336004820152602481018490526001600160a01b03909116906315490ebb906044016020604051808303816000875af1158015610644573d6000803e3d6000fd5b505050506040513d601f19601f8201168201806040525081019061066891906115de565b6106ad5760405162461bcd60e51b815260206004820152601660248201527514995dd85c99081d1c985b9cd9995c8819985a5b195960521b60448201526064016104a3565b60005b336000908152600660205260409020548110156107a3573360009081526006602052604081208054839081106106e8576106e8611600565b6000918252602090912001546002546040516323b872dd60e01b81529192506001600160a01b0316906323b872dd9061072990309033908690600401611616565b600060405180830381600087803b15801561074357600080fd5b505af1158015610757573d6000803e3d6000fd5b50506040518381523392507f2aa1b4c95f3b2da9c955947fca584743ea0d457708fadf209c093061e98c4ccb915060200160405180910390a2508061079b8161163a565b9150506106b0565b508254604080519182526020820184905233917f92ccf450a286a957af52509bc1c9939d1a6a481783e142e41e2499f0bb66ebc6910160405180910390a23360009081526006602052604081206107f9916114ef565b5050336000908152600560208190526040822082815560018101839055600281018390556003810183905560048101839055908101829055600681018290556007015550565b6001600160a01b038116600090815260056020526040812080541580610869575080600501544210155b156108775750600092915050565b42816005015461044c9190611653565b6001546040516370a0823160e01b81523060048201526000916001600160a01b0316906370a0823190602401602060405180830381865afa1580156108d0573d6000803e3d6000fd5b505050506040513d601f19601f820116820180604052508101906108f49190611666565b905090565b6109016113ae565b61090b60006113db565b565b6000811161095d5760405162461bcd60e51b815260206004820152601d60248201527f416d6f756e74206d7573742062652067726561746572207468616e203000000060448201526064016104a3565b6001546040516323b872dd60e01b81526001600160a01b03909116906323b872dd9061099190339030908690600401611616565b6020604051808303816000875af11580156109b0573d6000803e3d6000fd5b505050506040513d601f19601f820116820180604052508101906109d491906115de565b610a125760405162461bcd60e51b815260206004820152600f60248201526e151c985b9cd9995c8819985a5b1959608a1b60448201526064016104a3565b336000908152600560205260409020805415610a50576000610a333361100a565b905080826004016000828254610a4991906115cb565b9091555050505b81816000016000828254610a6491906115cb565b9250508190555081816007016000828254610a7f91906115cb565b90915550504260018201819055610a9890601e906115cb565b6005820155600281015415610aae574260028201555b33600090815260076020819052604082205490830154610ad99069d3c21bcecceda100000090611695565b610ae39190611653565b905060005b81811015610baa576002546040516340d097c360e01b81523360048201526000916001600160a01b0316906340d097c3906024016020604051808303816000875af1158015610b3b573d6000803e3d6000fd5b505050506040513d601f19601f82011682018060405250810190610b5f9190611666565b60405181815290915033907f4cc0a9c4a99ddc700de1af2c9f916a7cbfdb71f14801ccff94061ad1ef8a80409060200160405180910390a25080610ba28161163a565b915050610ae8565b503360009081526007602052604081208054839290610bca9084906115cb565b909155505060405183815233907f2da466a7b24304f47e87fa2e1e5a81b9831ce54fec19055ce277ca2f39ba42c4906020015b60405180910390a2505050565b3360009081526005602052604090208054610c675760405162461bcd60e51b815260206004820152601d60248201527f4e6f207374616b6520746f20636c61696d207265776172642066726f6d00000060448201526064016104a3565b60008160040154610c773361100a565b610c8191906115cb565b905060008111610cc85760405162461bcd60e51b81526020600482015260126024820152714e6f2072657761726420746f20636c61696d60701b60448201526064016104a3565b6001546040516315490ebb60e01b8152336004820152602481018390526001600160a01b03909116906315490ebb906044016020604051808303816000875af1158015610d19573d6000803e3d6000fd5b505050506040513d601f19601f82011682018060405250810190610d3d91906115de565b610d825760405162461bcd60e51b815260206004820152601660248201527514995dd85c99081d1c985b9cd9995c8819985a5b195960521b60448201526064016104a3565b60006004830155426001830155600282015415610da0574260028301555b60405181815233907f106f923f993c2149d49b4255ff723acafa1f2d94393f561d3eda32ae348f7241906020015b60405180910390a25050565b610de26113ae565b60038190556040518181527f2ec8ccb96042321f3bbdd56e8e4e4339bc07c9c2021e14e18ef12f5db282b37a9060200160405180910390a150565b3360009081526005602052604090206003810154610e735760405162461bcd60e51b81526020600482015260136024820152724e6f204e46547320746f20776974686472617760681b60448201526064016104a3565b6000610e7e3361100a565b905080826004016000828254610e9491906115cb565b9091555050336000908152600660205260408120905b8154811015610fac5760025482546001600160a01b03909116906323b872dd9030903390869086908110610ee057610ee0611600565b90600052602060002001546040518463ffffffff1660e01b8152600401610f0993929190611616565b600060405180830381600087803b158015610f2357600080fd5b505af1158015610f37573d6000803e3d6000fd5b50505050336001600160a01b03167f2aa1b4c95f3b2da9c955947fca584743ea0d457708fadf209c093061e98c4ccb838381548110610f7857610f78611600565b9060005260206000200154604051610f9291815260200190565b60405180910390a280610fa48161163a565b915050610eaa565b5060006003840181905560028401819055338152600660205260408120610fd2916114ef565b42600184015560405182815233907f106f923f993c2149d49b4255ff723acafa1f2d94393f561d3eda32ae348f724190602001610bfd565b6001600160a01b0381166000908152600560205260408120805482036110335750600092915050565b60008160010154426110459190611653565b9050600080836002015411156110ea5760006110938460010154856002015461106e9190611653565b600354865461107d91906115ae565b61108791906115ae565b600163bbf81e0061142b565b905060006110d58560020154426110aa9190611653565b86600301546004546110bc91906115ae565b6003546110c991906115cb565b875461107d91906115ae565b90506110e181836115cb565b92505050611103565b61110082600354856000015461107d91906115ae565b90505b949350505050565b6002546040516331a9108f60e11b81526004810183905233916001600160a01b031690636352211e90602401602060405180830381865afa158015611154573d6000803e3d6000fd5b505050506040513d601f19601f8201168201806040525081019061117891906116b7565b6001600160a01b0316146111c75760405162461bcd60e51b8152602060048201526016602482015275165bdd48191bdb89dd081bdddb881d1a1a5cc813919560521b60448201526064016104a3565b6002546040516323b872dd60e01b81526001600160a01b03909116906323b872dd906111fb90339030908690600401611616565b600060405180830381600087803b15801561121557600080fd5b505af1158015611229573d6000803e3d6000fd5b5050336000908152600560205260409020805490925015905061126e5760006112513361100a565b90508082600401600082825461126791906115cb565b9091555050505b80600201546000036112855742600282015561128c565b4260028201555b60038101805490600061129e8361163a565b909155505033600081815260066020908152604080832080546001808201835591855293839020909301869055429285019290925590518481527f1c4b8380f61aea3d5d98cbadaf2e6b2e4f3d8ca8c0fce1290b26ac267158745f9101610dce565b6113086113ae565b6001600160a01b03811661133257604051631e4fbdf760e01b8152600060048201526024016104a3565b61133b816113db565b50565b6001600160a01b03811660009081526005602052604081208054600482015490929091819061136c8661100a565b925080600501549150509193509193565b6006602052816000526040600020818154811061139957600080fd5b90600052602060002001600091509150505481565b6000546001600160a01b0316331461090b5760405163118cdaa760e01b81523360048201526024016104a3565b600080546001600160a01b038381166001600160a01b0319831681178455604051919092169283917f8be0079c531659141344cd1fd0a4f28419497f9722a3daafe3b4186f6b6457e09190a35050565b6000838302816000198587098281108382030391505080600003611462578382816114585761145861167f565b049250505061044c565b8084116114825760405163227bc15360e01b815260040160405180910390fd5b6000848688096000868103871696879004966002600389028118808a02820302808a02820302808a02820302808a02820302808a02820302808a02909103029181900381900460010186841190950394909402919094039290920491909117919091029150509392505050565b508054600082559060005260206000209081019061133b91905b8082111561151d5760008155600101611509565b5090565b6001600160a01b038116811461133b57600080fd5b60006020828403121561154857600080fd5b813561044c81611521565b60006020828403121561156557600080fd5b5035919050565b6000806040838503121561157f57600080fd5b823561158a81611521565b946020939093013593505050565b634e487b7160e01b600052601160045260246000fd5b80820281158282048414176115c5576115c5611598565b92915050565b808201808211156115c5576115c5611598565b6000602082840312156115f057600080fd5b8151801515811461044c57600080fd5b634e487b7160e01b600052603260045260246000fd5b6001600160a01b039384168152919092166020820152604081019190915260600190565b60006001820161164c5761164c611598565b5060010190565b818103818111156115c5576115c5611598565b60006020828403121561167857600080fd5b5051919050565b634e487b7160e01b600052601260045260246000fd5b6000826116b257634e487b7160e01b600052601260045260246000fd5b500490565b6000602082840312156116c957600080fd5b815161044c8161152156fea2646970667358221220b9318c0e91fb478f3e22a7bae8117d44064d718977638599247a76181c97f4c164736f6c63430008140033",
  "linkReferences": {},
  "deployedLinkReferences": {}
}