{
  "_format": "hh-sol-artifact-1",
  "contractName": "Staking",
  "sourceName": "contracts/Staking.sol",
  "abi": [
    {
      "inputs": [
        {
          "internalType": "address",
          "name": "_tokenA",
          "type": "address"
        },
        {
          "internalType": "address",
          "name": "_nftB",
          "type": "address"
        }
      ],
      "stateMutability": "nonpayable",
      "type": "constructor"
    },
    {
      "inputs": [],
      "name": "MathOverflowedMulDiv",
      "type": "error"
    },
    {
      "inputs": [
        {
          "internalType": "address",
          "name": "owner",
          "type": "address"
        }
      ],
      "name": "OwnableInvalidOwner",
      "type": "error"
    },
    {
      "inputs": [
        {
          "internalType": "address",
          "name": "account",
          "type": "address"
        }
      ],
      "name": "OwnableUnauthorizedAccount",
      "type": "error"
    },
    {
      "inputs": [],
      "name": "ReentrancyGuardReentrantCall",
      "type": "error"
    },
    {
      "anonymous": false,
      "inputs": [
        {
          "indexed": true,
          "internalType": "address",
          "name": "user",
          "type": "address"
        },
        {
          "indexed": false,
          "internalType": "uint256",
          "name": "newBaseAPR",
          "type": "uint256"
        }
      ],
      "name": "APRUpdated",
      "type": "event"
    },
    {
      "anonymous": false,
      "inputs": [
        {
          "indexed": true,
          "internalType": "address",
          "name": "user",
          "type": "address"
        },
        {
          "indexed": false,
          "internalType": "uint256",
          "name": "amount",
          "type": "uint256"
        }
      ],
      "name": "Deposited",
      "type": "event"
    },
    {
      "anonymous": false,
      "inputs": [
        {
          "indexed": true,
          "internalType": "address",
          "name": "user",
          "type": "address"
        },
        {
          "indexed": false,
          "internalType": "uint256",
          "name": "tokenId",
          "type": "uint256"
        }
      ],
      "name": "NFTDeposited",
      "type": "event"
    },
    {
      "anonymous": false,
      "inputs": [
        {
          "indexed": true,
          "internalType": "address",
          "name": "user",
          "type": "address"
        },
        {
          "indexed": false,
          "internalType": "uint256",
          "name": "tokenId",
          "type": "uint256"
        }
      ],
      "name": "NFTMinted",
      "type": "event"
    },
    {
      "anonymous": false,
      "inputs": [
        {
          "indexed": true,
          "internalType": "address",
          "name": "user",
          "type": "address"
        },
        {
          "indexed": false,
          "internalType": "uint256",
          "name": "tokenId",
          "type": "uint256"
        }
      ],
      "name": "NFTWithdrawn",
      "type": "event"
    },
    {
      "anonymous": false,
      "inputs": [
        {
          "indexed": true,
          "internalType": "address",
          "name": "previousOwner",
          "type": "address"
        },
        {
          "indexed": true,
          "internalType": "address",
          "name": "newOwner",
          "type": "address"
        }
      ],
      "name": "OwnershipTransferred",
      "type": "event"
    },
    {
      "anonymous": false,
      "inputs": [
        {
          "indexed": true,
          "internalType": "address",
          "name": "user",
          "type": "address"
        },
        {
          "indexed": false,
          "internalType": "uint256",
          "name": "reward",
          "type": "uint256"
        }
      ],
      "name": "RewardClaimed",
      "type": "event"
    },
    {
      "anonymous": false,
      "inputs": [
        {
          "indexed": true,
          "internalType": "address",
          "name": "user",
          "type": "address"
        },
        {
          "indexed": false,
          "internalType": "uint256",
          "name": "amount",
          "type": "uint256"
        },
        {
          "indexed": false,
          "internalType": "uint256",
          "name": "reward",
          "type": "uint256"
        }
      ],
      "name": "Withdrawn",
      "type": "event"
    },
    {
      "inputs": [],
      "name": "LOCK_PERIOD",
      "outputs": [
        {
          "internalType": "uint256",
          "name": "",
          "type": "uint256"
        }
      ],
      "stateMutability": "view",
      "type": "function"
    },
    {
      "inputs": [],
      "name": "NFT_THRESHOLD",
      "outputs": [
        {
          "internalType": "uint256",
          "name": "",
          "type": "uint256"
        }
      ],
      "stateMutability": "view",
      "type": "function"
    },
    {
      "inputs": [],
      "name": "baseAPR",
      "outputs": [
        {
          "internalType": "uint256",
          "name": "",
          "type": "uint256"
        }
      ],
      "stateMutability": "view",
      "type": "function"
    },
    {
      "inputs": [
        {
          "internalType": "address",
          "name": "user",
          "type": "address"
        }
      ],
      "name": "calculateReward",
      "outputs": [
        {
          "internalType": "uint256",
          "name": "",
          "type": "uint256"
        }
      ],
      "stateMutability": "view",
      "type": "function"
    },
    {
      "inputs": [],
      "name": "claimReward",
      "outputs": [],
      "stateMutability": "nonpayable",
      "type": "function"
    },
    {
      "inputs": [
        {
          "internalType": "uint256",
          "name": "amount",
          "type": "uint256"
        }
      ],
      "name": "deposit",
      "outputs": [],
      "stateMutability": "nonpayable",
      "type": "function"
    },
    {
      "inputs": [
        {
          "internalType": "uint256",
          "name": "tokenId",
          "type": "uint256"
        }
      ],
      "name": "depositNFT",
      "outputs": [],
      "stateMutability": "nonpayable",
      "type": "function"
    },
    {
      "inputs": [],
      "name": "getContractBalance",
      "outputs": [
        {
          "internalType": "uint256",
          "name": "",
          "type": "uint256"
        }
      ],
      "stateMutability": "view",
      "type": "function"
    },
    {
      "inputs": [
        {
          "internalType": "address",
          "name": "user",
          "type": "address"
        }
      ],
      "name": "getCurrentAPR",
      "outputs": [
        {
          "internalType": "uint256",
          "name": "",
          "type": "uint256"
        }
      ],
      "stateMutability": "view",
      "type": "function"
    },
    {
      "inputs": [
        {
          "internalType": "address",
          "name": "user",
          "type": "address"
        }
      ],
      "name": "getMintedNFTCount",
      "outputs": [
        {
          "internalType": "uint256",
          "name": "",
          "type": "uint256"
        }
      ],
      "stateMutability": "view",
      "type": "function"
    },
    {
      "inputs": [
        {
          "internalType": "address",
          "name": "user",
          "type": "address"
        }
      ],
      "name": "getOwnedNFTs",
      "outputs": [
        {
          "internalType": "uint256[]",
          "name": "",
          "type": "uint256[]"
        }
      ],
      "stateMutability": "view",
      "type": "function"
    },
    {
      "inputs": [
        {
          "internalType": "address",
          "name": "user",
          "type": "address"
        }
      ],
      "name": "getRemainingLockTime",
      "outputs": [
        {
          "internalType": "uint256",
          "name": "",
          "type": "uint256"
        }
      ],
      "stateMutability": "view",
      "type": "function"
    },
    {
      "inputs": [
        {
          "internalType": "address",
          "name": "user",
          "type": "address"
        }
      ],
      "name": "getStakeDetails",
      "outputs": [
        {
          "internalType": "uint256",
          "name": "stakedAmount",
          "type": "uint256"
        },
        {
          "internalType": "uint256",
          "name": "pendingReward",
          "type": "uint256"
        },
        {
          "internalType": "uint256",
          "name": "calculatedReward",
          "type": "uint256"
        },
        {
          "internalType": "uint256",
          "name": "lockEndTime",
          "type": "uint256"
        }
      ],
      "stateMutability": "view",
      "type": "function"
    },
    {
      "inputs": [
        {
          "internalType": "address",
          "name": "user",
          "type": "address"
        }
      ],
      "name": "getStakedNFTCount",
      "outputs": [
        {
          "internalType": "uint256",
          "name": "",
          "type": "uint256"
        }
      ],
      "stateMutability": "view",
      "type": "function"
    },
    {
      "inputs": [
        {
          "internalType": "address",
          "name": "",
          "type": "address"
        }
      ],
      "name": "mintedNFTs",
      "outputs": [
        {
          "internalType": "uint256",
          "name": "",
          "type": "uint256"
        }
      ],
      "stateMutability": "view",
      "type": "function"
    },
    {
      "inputs": [],
      "name": "nftB",
      "outputs": [
        {
          "internalType": "contract NFTB",
          "name": "",
          "type": "address"
        }
      ],
      "stateMutability": "view",
      "type": "function"
    },
    {
      "inputs": [],
      "name": "nftBonusAPR",
      "outputs": [
        {
          "internalType": "uint256",
          "name": "",
          "type": "uint256"
        }
      ],
      "stateMutability": "view",
      "type": "function"
    },
    {
      "inputs": [],
      "name": "owner",
      "outputs": [
        {
          "internalType": "address",
          "name": "",
          "type": "address"
        }
      ],
      "stateMutability": "view",
      "type": "function"
    },
    {
      "inputs": [],
      "name": "renounceOwnership",
      "outputs": [],
      "stateMutability": "nonpayable",
      "type": "function"
    },
    {
      "inputs": [
        {
          "internalType": "address",
          "name": "",
          "type": "address"
        },
        {
          "internalType": "uint256",
          "name": "",
          "type": "uint256"
        }
      ],
      "name": "stakedNFTs",
      "outputs": [
        {
          "internalType": "uint256",
          "name": "",
          "type": "uint256"
        }
      ],
      "stateMutability": "view",
      "type": "function"
    },
    {
      "inputs": [
        {
          "internalType": "address",
          "name": "",
          "type": "address"
        }
      ],
      "name": "stakes",
      "outputs": [
        {
          "internalType": "uint256",
          "name": "amount",
          "type": "uint256"
        },
        {
          "internalType": "uint256",
          "name": "timestamp",
          "type": "uint256"
        },
        {
          "internalType": "uint256",
          "name": "nftDepositTime",
          "type": "uint256"
        },
        {
          "internalType": "uint256",
          "name": "nftCount",
          "type": "uint256"
        },
        {
          "internalType": "uint256",
          "name": "pendingReward",
          "type": "uint256"
        },
        {
          "internalType": "uint256",
          "name": "lockEndTime",
          "type": "uint256"
        },
        {
          "internalType": "uint256",
          "name": "mintedNFTCount",
          "type": "uint256"
        },
        {
          "internalType": "uint256",
          "name": "totalStakedAmount",
          "type": "uint256"
        }
      ],
      "stateMutability": "view",
      "type": "function"
    },
    {
      "inputs": [],
      "name": "tokenA",
      "outputs": [
        {
          "internalType": "contract TokenA",
          "name": "",
          "type": "address"
        }
      ],
      "stateMutability": "view",
      "type": "function"
    },
    {
      "inputs": [
        {
          "internalType": "address",
          "name": "newOwner",
          "type": "address"
        }
      ],
      "name": "transferOwnership",
      "outputs": [],
      "stateMutability": "nonpayable",
      "type": "function"
    },
    {
      "inputs": [
        {
          "internalType": "uint256",
          "name": "newBaseAPR",
          "type": "uint256"
        }
      ],
      "name": "updateBaseAPR",
      "outputs": [],
      "stateMutability": "nonpayable",
      "type": "function"
    },
    {
      "inputs": [],
      "name": "withdraw",
      "outputs": [],
      "stateMutability": "nonpayable",
      "type": "function"
    },
    {
      "inputs": [
        {
          "internalType": "uint256[]",
          "name": "tokenIds",
          "type": "uint256[]"
        }
      ],
      "name": "withdrawNFTs",
      "outputs": [],
      "stateMutability": "nonpayable",
      "type": "function"
    }
  ],
  "bytecode": "0x608060405261032060045560c86005553480156200001c57600080fd5b5060405162001d8e38038062001d8e8339810160408190526200003f9162000115565b33806200006657604051631e4fbdf760e01b81526000600482015260240160405180910390fd5b6200007181620000a8565b5060018055600280546001600160a01b039384166001600160a01b031991821617909155600380549290931691161790556200014d565b600080546001600160a01b038381166001600160a01b0319831681178455604051919092169283917f8be0079c531659141344cd1fd0a4f28419497f9722a3daafe3b4186f6b6457e09190a35050565b80516001600160a01b03811681146200011057600080fd5b919050565b600080604083850312156200012957600080fd5b6200013483620000f8565b91506200014460208401620000f8565b90509250929050565b611c31806200015d6000396000f3fe608060405234801561001057600080fd5b506004361061018e5760003560e01c80638da5cb5b116100de578063c2baf73311610097578063e91a7ca611610071578063e91a7ca6146103da578063f2fde38b146103ed578063f41322ac14610400578063f70600481461043357600080fd5b8063c2baf733146103a1578063cf9fe22b146103b4578063d82e3962146103c757600080fd5b80638da5cb5b1461031857806393c4948414610329578063b390bd911461033a578063b6b55f2514610366578063b88a802f14610379578063ba060bed1461038157600080fd5b806332e2cea81161014b57806358ac0e801161012557806358ac0e80146102f65780636f9fb98a146102ff5780637120f29414610307578063715018a61461031057600080fd5b806332e2cea8146102c65780633ccfd60b146102d957806347304494146102e357600080fd5b806301d650e114610193578063096ff61c146101b95780630fc63d10146101e257806316934fc41461020d57806318148f1b1461029e5780631820cabb146102be575b600080fd5b6101a66101a1366004611978565b610446565b6040519081526020015b60405180910390f35b6101a66101c7366004611978565b6001600160a01b031660009081526008602052604090205490565b6002546101f5906001600160a01b031681565b6040516001600160a01b0390911681526020016101b0565b61026361021b366004611978565b60066020528060005260406000206000915090508060000154908060010154908060020154908060030154908060040154908060050154908060060154908060070154905088565b604080519889526020890197909752958701949094526060860192909252608085015260a084015260c083015260e0820152610100016101b0565b6102b16102ac366004611978565b610499565b6040516101b09190611995565b6101a6601e81565b6003546101f5906001600160a01b031681565b6102e1610626565b005b6101a66102f1366004611978565b610a43565b6101a660045481565b6101a6610a8b565b6101a660055481565b6102e1610afd565b6000546001600160a01b03166101f5565b6101a669d3c21bcecceda100000081565b6101a6610348366004611978565b6001600160a01b031660009081526006602052604090206003015490565b6102e16103743660046119d9565b610b0f565b6102e1610e3f565b6101a661038f366004611978565b60086020526000908152604090205481565b6102e16103af3660046119d9565b61101d565b6102e16103c23660046119f2565b611062565b6101a66103d5366004611978565b611427565b6102e16103e83660046119d9565b611529565b6102e16103fb366004611978565b61171b565b61041361040e366004611978565b611756565b6040805194855260208501939093529183015260608201526080016101b0565b6101a6610441366004611a67565b611795565b6001600160a01b038116600090815260066020526040812060038101548203610473575050600454919050565b80600301546005546104859190611aa9565b6004546104929190611ac6565b9392505050565b6003546040516370a0823160e01b81526001600160a01b0383811660048301526060926000929116906370a0823190602401602060405180830381865afa1580156104e8573d6000803e3d6000fd5b505050506040513d601f19601f8201168201806040525081019061050c9190611ad9565b905060008167ffffffffffffffff81111561052957610529611af2565b604051908082528060200260200182016040528015610552578160200160208202803683370190505b5090506000805b8382101561061c576003546040516331a9108f60e11b8152600481018390526001600160a01b03888116921690636352211e90602401602060405180830381865afa1580156105ac573d6000803e3d6000fd5b505050506040513d601f19601f820116820180604052508101906105d09190611b08565b6001600160a01b03160361060a57808383815181106105f1576105f1611b25565b60209081029190910101528161060681611b3b565b9250505b8061061481611b3b565b915050610559565b5090949350505050565b61062e6117c6565b33600090815260066020526040902080546106875760405162461bcd60e51b81526020600482015260146024820152734e6f207374616b6520746f20776974686472617760601b60448201526064015b60405180910390fd5b80600501544210156106db5760405162461bcd60e51b815260206004820152601760248201527f546f6b656e7320617265207374696c6c206c6f636b6564000000000000000000604482015260640161067e565b600081600401546106eb33611427565b6106f59190611ac6565b600254835460405163a9059cbb60e01b815233600482015260248101919091529192506001600160a01b03169063a9059cbb906044016020604051808303816000875af115801561074a573d6000803e3d6000fd5b505050506040513d601f19601f8201168201806040525081019061076e9190611b54565b6107ba5760405162461bcd60e51b815260206004820152601d60248201527f5374616b656420616d6f756e74207472616e73666572206661696c6564000000604482015260640161067e565b6002546040516315490ebb60e01b8152336004820152602481018390526001600160a01b03909116906315490ebb906044016020604051808303816000875af115801561080b573d6000803e3d6000fd5b505050506040513d601f19601f8201168201806040525081019061082f9190611b54565b6108745760405162461bcd60e51b815260206004820152601660248201527514995dd85c99081d1c985b9cd9995c8819985a5b195960521b604482015260640161067e565b60005b3360009081526007602052604090205481101561096a573360009081526007602052604081208054839081106108af576108af611b25565b6000918252602090912001546003546040516323b872dd60e01b81529192506001600160a01b0316906323b872dd906108f090309033908690600401611b76565b600060405180830381600087803b15801561090a57600080fd5b505af115801561091e573d6000803e3d6000fd5b50506040518381523392507f2aa1b4c95f3b2da9c955947fca584743ea0d457708fadf209c093061e98c4ccb915060200160405180910390a2508061096281611b3b565b915050610877565b508154604080519182526020820183905233917f92ccf450a286a957af52509bc1c9939d1a6a481783e142e41e2499f0bb66ebc6910160405180910390a260405181815233907f106f923f993c2149d49b4255ff723acafa1f2d94393f561d3eda32ae348f72419060200160405180910390a23360009081526007602052604081206109f591611931565b50503360009081526006602081905260408220828155600181018390556002810183905560038101839055600481018390556005810183905590810182905560070155610a4160018055565b565b6001600160a01b038116600090815260066020526040812080541580610a6d575080600501544210155b15610a7b5750600092915050565b4281600501546104929190611b9a565b6002546040516370a0823160e01b81523060048201526000916001600160a01b0316906370a0823190602401602060405180830381865afa158015610ad4573d6000803e3d6000fd5b505050506040513d601f19601f82011682018060405250810190610af89190611ad9565b905090565b610b056117f0565b610a41600061181d565b610b176117c6565b60008111610b675760405162461bcd60e51b815260206004820152601d60248201527f416d6f756e74206d7573742062652067726561746572207468616e2030000000604482015260640161067e565b6002546040516323b872dd60e01b81526001600160a01b03909116906323b872dd90610b9b90339030908690600401611b76565b6020604051808303816000875af1158015610bba573d6000803e3d6000fd5b505050506040513d601f19601f82011682018060405250810190610bde9190611b54565b610c1c5760405162461bcd60e51b815260206004820152600f60248201526e151c985b9cd9995c8819985a5b1959608a1b604482015260640161067e565b336000908152600660205260409020805415610c5a576000610c3d33611427565b905080826004016000828254610c539190611ac6565b9091555050505b81816000016000828254610c6e9190611ac6565b9250508190555081816007016000828254610c899190611ac6565b90915550504260018201819055610ca290601e90611ac6565b6005820155600281015415610cb8574260028201555b600069d3c21bcecceda10000008260070154610cd49190611bc3565b33600090815260086020526040812054919250908211610cf5576000610d0f565b33600090815260086020526040902054610d0f9083611b9a565b905060005b81811015610dd6576003546040516340d097c360e01b81523360048201526000916001600160a01b0316906340d097c3906024016020604051808303816000875af1158015610d67573d6000803e3d6000fd5b505050506040513d601f19601f82011682018060405250810190610d8b9190611ad9565b60405181815290915033907f4cc0a9c4a99ddc700de1af2c9f916a7cbfdb71f14801ccff94061ad1ef8a80409060200160405180910390a25080610dce81611b3b565b915050610d14565b503360009081526008602052604081208054839290610df6908490611ac6565b909155505060405184815233907f2da466a7b24304f47e87fa2e1e5a81b9831ce54fec19055ce277ca2f39ba42c49060200160405180910390a2505050610e3c60018055565b50565b610e476117c6565b3360009081526006602052604090208054610ea45760405162461bcd60e51b815260206004820152601d60248201527f4e6f207374616b6520746f20636c61696d207265776172642066726f6d000000604482015260640161067e565b60008160040154610eb433611427565b610ebe9190611ac6565b905060008111610f055760405162461bcd60e51b81526020600482015260126024820152714e6f2072657761726420746f20636c61696d60701b604482015260640161067e565b6002546040516315490ebb60e01b8152336004820152602481018390526001600160a01b03909116906315490ebb906044016020604051808303816000875af1158015610f56573d6000803e3d6000fd5b505050506040513d601f19601f82011682018060405250810190610f7a9190611b54565b610fbf5760405162461bcd60e51b815260206004820152601660248201527514995dd85c99081d1c985b9cd9995c8819985a5b195960521b604482015260640161067e565b60006004830155426001830155600282015415610fdd574260028301555b60405181815233907f106f923f993c2149d49b4255ff723acafa1f2d94393f561d3eda32ae348f72419060200160405180910390a25050610a4160018055565b6110256117f0565b600481905560405181815233907fe047f6e1fc16c737c75900e8eff62a07e54eadfb6ee93bfe413ad4c17fa49c929060200160405180910390a250565b61106a6117c6565b33600090815260066020526040902060038101546110c05760405162461bcd60e51b81526020600482015260136024820152724e6f204e46547320746f20776974686472617760681b604482015260640161067e565b8161110d5760405162461bcd60e51b815260206004820152601f60248201527f4e6f204e4654732073656c656374656420666f72207769746864726177616c00604482015260640161067e565b60038101548211156111765760405162461bcd60e51b815260206004820152602c60248201527f417474656d7074696e6720746f207769746864726177206d6f7265204e46547360448201526b081d1a185b881cdd185ad95960a21b606482015260840161067e565b600061118133611427565b9050808260040160008282546111979190611ac6565b90915550504260018301556000805b848110156113ec5760008686838181106111c2576111c2611b25565b9050602002013590506000805b336000908152600760205260409020548110156113895733600090815260076020526040902080548491908390811061120a5761120a611b25565b906000526020600020015403611377576003546040516323b872dd60e01b81526001600160a01b03909116906323b872dd9061124e90309033908890600401611b76565b600060405180830381600087803b15801561126857600080fd5b505af115801561127c573d6000803e3d6000fd5b5050336000908152600760205260409020805490925061129f9150600190611b9a565b815481106112af576112af611b25565b6000918252602080832090910154338352600790915260409091208054839081106112dc576112dc611b25565b600091825260208083209091019290925533815260079091526040902080548061130857611308611be5565b60019003818190600052602060002001600090559055336001600160a01b03167f2aa1b4c95f3b2da9c955947fca584743ea0d457708fadf209c093061e98c4ccb8460405161135991815260200190565b60405180910390a28461136b81611b3b565b95505060019150611389565b8061138181611b3b565b9150506111cf565b50806113d75760405162461bcd60e51b815260206004820152601c60248201527f4e4654206e6f7420666f756e6420696e207374616b6564204e46547300000000604482015260640161067e565b505080806113e490611b3b565b9150506111a6565b50808360030160008282546114019190611b9a565b9091555050600283015415611417574260028401555b50505061142360018055565b5050565b6001600160a01b0381166000908152600660205260408120805482036114505750600092915050565b60008160010154426114629190611b9a565b9050600080836002015411156115085760006114b18460010154856002015461148b9190611b9a565b600454865461149a9190611aa9565b6114a49190611aa9565b600164496cebb80061186d565b905060006114f38560020154426114c89190611b9a565b86600301546005546114da9190611aa9565b6004546114e79190611ac6565b875461149a9190611aa9565b90506114ff8183611ac6565b92505050611521565b61151e82600454856000015461149a9190611aa9565b90505b949350505050565b6115316117c6565b6003546040516331a9108f60e11b81526004810183905233916001600160a01b031690636352211e90602401602060405180830381865afa15801561157a573d6000803e3d6000fd5b505050506040513d601f19601f8201168201806040525081019061159e9190611b08565b6001600160a01b0316146115ed5760405162461bcd60e51b8152602060048201526016602482015275165bdd48191bdb89dd081bdddb881d1a1a5cc813919560521b604482015260640161067e565b6003546040516323b872dd60e01b81526001600160a01b03909116906323b872dd9061162190339030908690600401611b76565b600060405180830381600087803b15801561163b57600080fd5b505af115801561164f573d6000803e3d6000fd5b5050336000908152600660205260409020805490925015905061169457600061167733611427565b90508082600401600082825461168d9190611ac6565b9091555050505b4260028201556003810180549060006116ac83611b3b565b909155505033600081815260076020908152604080832080546001808201835591855293839020909301869055429285019290925590518481527f1c4b8380f61aea3d5d98cbadaf2e6b2e4f3d8ca8c0fce1290b26ac267158745f910160405180910390a250610e3c60018055565b6117236117f0565b6001600160a01b03811661174d57604051631e4fbdf760e01b81526000600482015260240161067e565b610e3c8161181d565b6001600160a01b03811660009081526006602052604081208054600482015490929091819061178486611427565b925080600501549150509193509193565b600760205281600052604060002081815481106117b157600080fd5b90600052602060002001600091509150505481565b6002600154036117e957604051633ee5aeb560e01b815260040160405180910390fd5b6002600155565b6000546001600160a01b03163314610a415760405163118cdaa760e01b815233600482015260240161067e565b600080546001600160a01b038381166001600160a01b0319831681178455604051919092169283917f8be0079c531659141344cd1fd0a4f28419497f9722a3daafe3b4186f6b6457e09190a35050565b60008383028160001985870982811083820303915050806000036118a45783828161189a5761189a611bad565b0492505050610492565b8084116118c45760405163227bc15360e01b815260040160405180910390fd5b6000848688096000868103871696879004966002600389028118808a02820302808a02820302808a02820302808a02820302808a02820302808a02909103029181900381900460010186841190950394909402919094039290920491909117919091029150509392505050565b5080546000825590600052602060002090810190610e3c91905b8082111561195f576000815560010161194b565b5090565b6001600160a01b0381168114610e3c57600080fd5b60006020828403121561198a57600080fd5b813561049281611963565b6020808252825182820181905260009190848201906040850190845b818110156119cd578351835292840192918401916001016119b1565b50909695505050505050565b6000602082840312156119eb57600080fd5b5035919050565b60008060208385031215611a0557600080fd5b823567ffffffffffffffff80821115611a1d57600080fd5b818501915085601f830112611a3157600080fd5b813581811115611a4057600080fd5b8660208260051b8501011115611a5557600080fd5b60209290920196919550909350505050565b60008060408385031215611a7a57600080fd5b8235611a8581611963565b946020939093013593505050565b634e487b7160e01b600052601160045260246000fd5b8082028115828204841417611ac057611ac0611a93565b92915050565b80820180821115611ac057611ac0611a93565b600060208284031215611aeb57600080fd5b5051919050565b634e487b7160e01b600052604160045260246000fd5b600060208284031215611b1a57600080fd5b815161049281611963565b634e487b7160e01b600052603260045260246000fd5b600060018201611b4d57611b4d611a93565b5060010190565b600060208284031215611b6657600080fd5b8151801515811461049257600080fd5b6001600160a01b039384168152919092166020820152604081019190915260600190565b81810381811115611ac057611ac0611a93565b634e487b7160e01b600052601260045260246000fd5b600082611be057634e487b7160e01b600052601260045260246000fd5b500490565b634e487b7160e01b600052603160045260246000fdfea2646970667358221220bb7b07e403d4ddc27b3aed31a47b00e23c7305912baca21d28a4d946282b654b64736f6c63430008140033",
  "linkReferences": {},
  "deployedLinkReferences": {}
}