{
  "_format": "hh-sol-artifact-1",
  "contractName": "Staking",
  "sourceName": "contracts/Staking.sol",
  "abi": [
    {
      "inputs": [
        {
          "internalType": "address",
          "name": "_tokenA",
          "type": "address"
        },
        {
          "internalType": "address",
          "name": "_nftB",
          "type": "address"
        }
      ],
      "stateMutability": "nonpayable",
      "type": "constructor"
    },
    {
      "inputs": [
        {
          "internalType": "address",
          "name": "owner",
          "type": "address"
        }
      ],
      "name": "OwnableInvalidOwner",
      "type": "error"
    },
    {
      "inputs": [
        {
          "internalType": "address",
          "name": "account",
          "type": "address"
        }
      ],
      "name": "OwnableUnauthorizedAccount",
      "type": "error"
    },
    {
      "anonymous": false,
      "inputs": [
        {
          "indexed": false,
          "internalType": "uint256",
          "name": "newBaseAPR",
          "type": "uint256"
        }
      ],
      "name": "APRUpdated",
      "type": "event"
    },
    {
      "anonymous": false,
      "inputs": [
        {
          "indexed": true,
          "internalType": "address",
          "name": "user",
          "type": "address"
        },
        {
          "indexed": false,
          "internalType": "uint256",
          "name": "amount",
          "type": "uint256"
        }
      ],
      "name": "Deposited",
      "type": "event"
    },
    {
      "anonymous": false,
      "inputs": [
        {
          "indexed": true,
          "internalType": "address",
          "name": "user",
          "type": "address"
        },
        {
          "indexed": false,
          "internalType": "uint256",
          "name": "tokenId",
          "type": "uint256"
        }
      ],
      "name": "NFTMinted",
      "type": "event"
    },
    {
      "anonymous": false,
      "inputs": [
        {
          "indexed": true,
          "internalType": "address",
          "name": "previousOwner",
          "type": "address"
        },
        {
          "indexed": true,
          "internalType": "address",
          "name": "newOwner",
          "type": "address"
        }
      ],
      "name": "OwnershipTransferred",
      "type": "event"
    },
    {
      "anonymous": false,
      "inputs": [
        {
          "indexed": true,
          "internalType": "address",
          "name": "user",
          "type": "address"
        },
        {
          "indexed": false,
          "internalType": "uint256",
          "name": "reward",
          "type": "uint256"
        }
      ],
      "name": "RewardClaimed",
      "type": "event"
    },
    {
      "anonymous": false,
      "inputs": [
        {
          "indexed": true,
          "internalType": "address",
          "name": "user",
          "type": "address"
        },
        {
          "indexed": false,
          "internalType": "uint256",
          "name": "amount",
          "type": "uint256"
        },
        {
          "indexed": false,
          "internalType": "uint256",
          "name": "reward",
          "type": "uint256"
        }
      ],
      "name": "Withdrawn",
      "type": "event"
    },
    {
      "inputs": [],
      "name": "LOCK_PERIOD",
      "outputs": [
        {
          "internalType": "uint256",
          "name": "",
          "type": "uint256"
        }
      ],
      "stateMutability": "view",
      "type": "function"
    },
    {
      "inputs": [],
      "name": "MIN_AMOUNT_FOR_NFT",
      "outputs": [
        {
          "internalType": "uint256",
          "name": "",
          "type": "uint256"
        }
      ],
      "stateMutability": "view",
      "type": "function"
    },
    {
      "inputs": [],
      "name": "baseAPR",
      "outputs": [
        {
          "internalType": "uint256",
          "name": "",
          "type": "uint256"
        }
      ],
      "stateMutability": "view",
      "type": "function"
    },
    {
      "inputs": [
        {
          "internalType": "address",
          "name": "user",
          "type": "address"
        }
      ],
      "name": "calculateReward",
      "outputs": [
        {
          "internalType": "uint256",
          "name": "",
          "type": "uint256"
        }
      ],
      "stateMutability": "view",
      "type": "function"
    },
    {
      "inputs": [
        {
          "internalType": "uint256",
          "name": "amount",
          "type": "uint256"
        }
      ],
      "name": "depositTokenA",
      "outputs": [],
      "stateMutability": "nonpayable",
      "type": "function"
    },
    {
      "inputs": [
        {
          "internalType": "address",
          "name": "",
          "type": "address"
        }
      ],
      "name": "deposits",
      "outputs": [
        {
          "internalType": "uint256",
          "name": "amount",
          "type": "uint256"
        },
        {
          "internalType": "uint256",
          "name": "depositTime",
          "type": "uint256"
        },
        {
          "internalType": "uint256",
          "name": "nftDepositTime",
          "type": "uint256"
        },
        {
          "internalType": "bool",
          "name": "hasNFT",
          "type": "bool"
        }
      ],
      "stateMutability": "view",
      "type": "function"
    },
    {
      "inputs": [],
      "name": "nftAPR",
      "outputs": [
        {
          "internalType": "uint256",
          "name": "",
          "type": "uint256"
        }
      ],
      "stateMutability": "view",
      "type": "function"
    },
    {
      "inputs": [],
      "name": "nftB",
      "outputs": [
        {
          "internalType": "contract INFTB",
          "name": "",
          "type": "address"
        }
      ],
      "stateMutability": "view",
      "type": "function"
    },
    {
      "inputs": [],
      "name": "owner",
      "outputs": [
        {
          "internalType": "address",
          "name": "",
          "type": "address"
        }
      ],
      "stateMutability": "view",
      "type": "function"
    },
    {
      "inputs": [],
      "name": "renounceOwnership",
      "outputs": [],
      "stateMutability": "nonpayable",
      "type": "function"
    },
    {
      "inputs": [],
      "name": "tokenA",
      "outputs": [
        {
          "internalType": "contract ITokenA",
          "name": "",
          "type": "address"
        }
      ],
      "stateMutability": "view",
      "type": "function"
    },
    {
      "inputs": [
        {
          "internalType": "address",
          "name": "newOwner",
          "type": "address"
        }
      ],
      "name": "transferOwnership",
      "outputs": [],
      "stateMutability": "nonpayable",
      "type": "function"
    },
    {
      "inputs": [
        {
          "internalType": "uint256",
          "name": "newBaseAPR",
          "type": "uint256"
        }
      ],
      "name": "updateBaseAPR",
      "outputs": [],
      "stateMutability": "nonpayable",
      "type": "function"
    },
    {
      "inputs": [
        {
          "internalType": "bool",
          "name": "claimOnly",
          "type": "bool"
        }
      ],
      "name": "withdraw",
      "outputs": [],
      "stateMutability": "nonpayable",
      "type": "function"
    }
  ],
  "bytecode": "0x608060405261032060045560c86005553480156200001c57600080fd5b50604051620018f0380380620018f0833981810160405281019062000042919062000282565b33600073ffffffffffffffffffffffffffffffffffffffff168173ffffffffffffffffffffffffffffffffffffffff1603620000b85760006040517f1e4fbdf7000000000000000000000000000000000000000000000000000000008152600401620000af9190620002da565b60405180910390fd5b620000c9816200015460201b60201c565b5081600160006101000a81548173ffffffffffffffffffffffffffffffffffffffff021916908373ffffffffffffffffffffffffffffffffffffffff16021790555080600260006101000a81548173ffffffffffffffffffffffffffffffffffffffff021916908373ffffffffffffffffffffffffffffffffffffffff1602179055505050620002f7565b60008060009054906101000a900473ffffffffffffffffffffffffffffffffffffffff169050816000806101000a81548173ffffffffffffffffffffffffffffffffffffffff021916908373ffffffffffffffffffffffffffffffffffffffff1602179055508173ffffffffffffffffffffffffffffffffffffffff168173ffffffffffffffffffffffffffffffffffffffff167f8be0079c531659141344cd1fd0a4f28419497f9722a3daafe3b4186f6b6457e060405160405180910390a35050565b600080fd5b600073ffffffffffffffffffffffffffffffffffffffff82169050919050565b60006200024a826200021d565b9050919050565b6200025c816200023d565b81146200026857600080fd5b50565b6000815190506200027c8162000251565b92915050565b600080604083850312156200029c576200029b62000218565b5b6000620002ac858286016200026b565b9250506020620002bf858286016200026b565b9150509250929050565b620002d4816200023d565b82525050565b6000602082019050620002f16000830184620002c9565b92915050565b6115e980620003076000396000f3fe608060405234801561001057600080fd5b50600436106100ea5760003560e01c80638da5cb5b1161008c578063c2baf73311610066578063c2baf73314610203578063d82e39621461021f578063f2fde38b1461024f578063fc7e286d1461026b576100ea565b80638da5cb5b146101ad5780639e30b1e8146101cb578063a810a54c146101e7576100ea565b806332e2cea8116100c857806332e2cea81461014957806358ac0e8014610167578063715018a6146101855780637434f9f51461018f576100ea565b80630fc63d10146100ef5780631820cabb1461010d5780632fc5f1891461012b575b600080fd5b6100f761029e565b6040516101049190610f75565b60405180910390f35b6101156102c4565b6040516101229190610fa9565b60405180910390f35b6101336102ca565b6040516101409190610fa9565b60405180910390f35b6101516102d8565b60405161015e9190610fe5565b60405180910390f35b61016f6102fe565b60405161017c9190610fa9565b60405180910390f35b61018d610304565b005b610197610318565b6040516101a49190610fa9565b60405180910390f35b6101b561031e565b6040516101c29190611021565b60405180910390f35b6101e560048036038101906101e0919061106d565b610347565b005b61020160048036038101906101fc91906110d2565b610748565b005b61021d6004803603810190610218919061106d565b610b26565b005b6102396004803603810190610234919061112b565b610b6f565b6040516102469190610fa9565b60405180910390f35b6102696004803603810190610264919061112b565b610ce0565b005b6102856004803603810190610280919061112b565b610d66565b6040516102959493929190611167565b60405180910390f35b600160009054906101000a900473ffffffffffffffffffffffffffffffffffffffff1681565b61012c81565b69d3c21bcecceda100000081565b600260009054906101000a900473ffffffffffffffffffffffffffffffffffffffff1681565b60045481565b61030c610da3565b6103166000610e2a565b565b60055481565b60008060009054906101000a900473ffffffffffffffffffffffffffffffffffffffff16905090565b6000811161038a576040517f08c379a000000000000000000000000000000000000000000000000000000000815260040161038190611209565b60405180910390fd5b80600160009054906101000a900473ffffffffffffffffffffffffffffffffffffffff1673ffffffffffffffffffffffffffffffffffffffff166370a08231336040518263ffffffff1660e01b81526004016103e69190611021565b602060405180830381865afa158015610403573d6000803e3d6000fd5b505050506040513d601f19601f82011682018060405250810190610427919061123e565b1015610468576040517f08c379a000000000000000000000000000000000000000000000000000000000815260040161045f906112b7565b60405180910390fd5b600160009054906101000a900473ffffffffffffffffffffffffffffffffffffffff1673ffffffffffffffffffffffffffffffffffffffff166323b872dd3330846040518463ffffffff1660e01b81526004016104c7939291906112d7565b6020604051808303816000875af11580156104e6573d6000803e3d6000fd5b505050506040513d601f19601f8201168201806040525081019061050a9190611323565b506000600360003373ffffffffffffffffffffffffffffffffffffffff1673ffffffffffffffffffffffffffffffffffffffff16815260200190815260200160002090506000816000015403610571578181600001819055504281600101819055506105ac565b600061057c33610b6f565b90508083836000015461058f919061137f565b610599919061137f565b8260000181905550428260010181905550505b69d3c21bcecceda10000008160000154101580156105d957508060030160009054906101000a900460ff16155b156106f6576000600260009054906101000a900473ffffffffffffffffffffffffffffffffffffffff1673ffffffffffffffffffffffffffffffffffffffff16636a627842336040518263ffffffff1660e01b815260040161063b9190611021565b6020604051808303816000875af115801561065a573d6000803e3d6000fd5b505050506040513d601f19601f8201168201806040525081019061067e919061123e565b905060018260030160006101000a81548160ff0219169083151502179055504282600201819055503373ffffffffffffffffffffffffffffffffffffffff167f4cc0a9c4a99ddc700de1af2c9f916a7cbfdb71f14801ccff94061ad1ef8a8040826040516106ec9190610fa9565b60405180910390a2505b3373ffffffffffffffffffffffffffffffffffffffff167f2da466a7b24304f47e87fa2e1e5a81b9831ce54fec19055ce277ca2f39ba42c48360405161073c9190610fa9565b60405180910390a25050565b6000600360003373ffffffffffffffffffffffffffffffffffffffff1673ffffffffffffffffffffffffffffffffffffffff168152602001908152602001600020905060008160000154116107d2576040517f08c379a00000000000000000000000000000000000000000000000000000000081526004016107c9906113ff565b60405180910390fd5b61012c81600101546107e4919061137f565b421015610826576040517f08c379a000000000000000000000000000000000000000000000000000000000815260040161081d9061146b565b60405180910390fd5b600061083133610b6f565b9050600083610844578260000154610847565b60005b9050831561093157600160009054906101000a900473ffffffffffffffffffffffffffffffffffffffff1673ffffffffffffffffffffffffffffffffffffffff166340c10f1933846040518363ffffffff1660e01b81526004016108ac92919061148b565b600060405180830381600087803b1580156108c657600080fd5b505af11580156108da573d6000803e3d6000fd5b505050503373ffffffffffffffffffffffffffffffffffffffff167f106f923f993c2149d49b4255ff723acafa1f2d94393f561d3eda32ae348f7241836040516109249190610fa9565b60405180910390a2610b20565b600160009054906101000a900473ffffffffffffffffffffffffffffffffffffffff1673ffffffffffffffffffffffffffffffffffffffff1663a9059cbb33836040518363ffffffff1660e01b815260040161098e92919061148b565b6020604051808303816000875af11580156109ad573d6000803e3d6000fd5b505050506040513d601f19601f820116820180604052508101906109d19190611323565b50600160009054906101000a900473ffffffffffffffffffffffffffffffffffffffff1673ffffffffffffffffffffffffffffffffffffffff166340c10f1933846040518363ffffffff1660e01b8152600401610a2f92919061148b565b600060405180830381600087803b158015610a4957600080fd5b505af1158015610a5d573d6000803e3d6000fd5b50505050600360003373ffffffffffffffffffffffffffffffffffffffff1673ffffffffffffffffffffffffffffffffffffffff168152602001908152602001600020600080820160009055600182016000905560028201600090556003820160006101000a81549060ff021916905550503373ffffffffffffffffffffffffffffffffffffffff167f92ccf450a286a957af52509bc1c9939d1a6a481783e142e41e2499f0bb66ebc68284604051610b179291906114b4565b60405180910390a25b50505050565b610b2e610da3565b806004819055507f2ec8ccb96042321f3bbdd56e8e4e4339bc07c9c2021e14e18ef12f5db282b37a81604051610b649190610fa9565b60405180910390a150565b600080600360008473ffffffffffffffffffffffffffffffffffffffff1673ffffffffffffffffffffffffffffffffffffffff16815260200190815260200160002090506000816000015403610bc9576000915050610cdb565b60008060008360030160009054906101000a900460ff1615610c8e5783600101548460020154610bf991906114dd565b9250600454915064496cebb80083838660000154610c179190611511565b610c219190611511565b610c2b9190611582565b9050836002015442610c3d91906114dd565b9250600554600454610c4f919061137f565b915064496cebb80083838660000154610c689190611511565b610c729190611511565b610c7c9190611582565b81610c87919061137f565b9050610cd3565b836001015442610c9e91906114dd565b9250600454915064496cebb80083838660000154610cbc9190611511565b610cc69190611511565b610cd09190611582565b90505b809450505050505b919050565b610ce8610da3565b600073ffffffffffffffffffffffffffffffffffffffff168173ffffffffffffffffffffffffffffffffffffffff1603610d5a5760006040517f1e4fbdf7000000000000000000000000000000000000000000000000000000008152600401610d519190611021565b60405180910390fd5b610d6381610e2a565b50565b60036020528060005260406000206000915090508060000154908060010154908060020154908060030160009054906101000a900460ff16905084565b610dab610eee565b73ffffffffffffffffffffffffffffffffffffffff16610dc961031e565b73ffffffffffffffffffffffffffffffffffffffff1614610e2857610dec610eee565b6040517f118cdaa7000000000000000000000000000000000000000000000000000000008152600401610e1f9190611021565b60405180910390fd5b565b60008060009054906101000a900473ffffffffffffffffffffffffffffffffffffffff169050816000806101000a81548173ffffffffffffffffffffffffffffffffffffffff021916908373ffffffffffffffffffffffffffffffffffffffff1602179055508173ffffffffffffffffffffffffffffffffffffffff168173ffffffffffffffffffffffffffffffffffffffff167f8be0079c531659141344cd1fd0a4f28419497f9722a3daafe3b4186f6b6457e060405160405180910390a35050565b600033905090565b600073ffffffffffffffffffffffffffffffffffffffff82169050919050565b6000819050919050565b6000610f3b610f36610f3184610ef6565b610f16565b610ef6565b9050919050565b6000610f4d82610f20565b9050919050565b6000610f5f82610f42565b9050919050565b610f6f81610f54565b82525050565b6000602082019050610f8a6000830184610f66565b92915050565b6000819050919050565b610fa381610f90565b82525050565b6000602082019050610fbe6000830184610f9a565b92915050565b6000610fcf82610f42565b9050919050565b610fdf81610fc4565b82525050565b6000602082019050610ffa6000830184610fd6565b92915050565b600061100b82610ef6565b9050919050565b61101b81611000565b82525050565b60006020820190506110366000830184611012565b92915050565b600080fd5b61104a81610f90565b811461105557600080fd5b50565b60008135905061106781611041565b92915050565b6000602082840312156110835761108261103c565b5b600061109184828501611058565b91505092915050565b60008115159050919050565b6110af8161109a565b81146110ba57600080fd5b50565b6000813590506110cc816110a6565b92915050565b6000602082840312156110e8576110e761103c565b5b60006110f6848285016110bd565b91505092915050565b61110881611000565b811461111357600080fd5b50565b600081359050611125816110ff565b92915050565b6000602082840312156111415761114061103c565b5b600061114f84828501611116565b91505092915050565b6111618161109a565b82525050565b600060808201905061117c6000830187610f9a565b6111896020830186610f9a565b6111966040830185610f9a565b6111a36060830184611158565b95945050505050565b600082825260208201905092915050565b7f416d6f756e74206d7573742062652067726561746572207468616e2030000000600082015250565b60006111f3601d836111ac565b91506111fe826111bd565b602082019050919050565b60006020820190508181036000830152611222816111e6565b9050919050565b60008151905061123881611041565b92915050565b6000602082840312156112545761125361103c565b5b600061126284828501611229565b91505092915050565b7f496e73756666696369656e742062616c616e6365000000000000000000000000600082015250565b60006112a16014836111ac565b91506112ac8261126b565b602082019050919050565b600060208201905081810360008301526112d081611294565b9050919050565b60006060820190506112ec6000830186611012565b6112f96020830185611012565b6113066040830184610f9a565b949350505050565b60008151905061131d816110a6565b92915050565b6000602082840312156113395761133861103c565b5b60006113478482850161130e565b91505092915050565b7f4e487b7100000000000000000000000000000000000000000000000000000000600052601160045260246000fd5b600061138a82610f90565b915061139583610f90565b92508282019050808211156113ad576113ac611350565b5b92915050565b7f4e6f206465706f73697420666f756e6400000000000000000000000000000000600082015250565b60006113e96010836111ac565b91506113f4826113b3565b602082019050919050565b60006020820190508181036000830152611418816113dc565b9050919050565b7f546f6b656e7320617265207374696c6c206c6f636b6564000000000000000000600082015250565b60006114556017836111ac565b91506114608261141f565b602082019050919050565b6000602082019050818103600083015261148481611448565b9050919050565b60006040820190506114a06000830185611012565b6114ad6020830184610f9a565b9392505050565b60006040820190506114c96000830185610f9a565b6114d66020830184610f9a565b9392505050565b60006114e882610f90565b91506114f383610f90565b925082820390508181111561150b5761150a611350565b5b92915050565b600061151c82610f90565b915061152783610f90565b925082820261153581610f90565b9150828204841483151761154c5761154b611350565b5b5092915050565b7f4e487b7100000000000000000000000000000000000000000000000000000000600052601260045260246000fd5b600061158d82610f90565b915061159883610f90565b9250826115a8576115a7611553565b5b82820490509291505056fea26469706673582212204b037f0d7762666e770a4b950d4d7a4a04e8ec78d7b0692a183b63d1be9c6c7364736f6c63430008140033",
  "linkReferences": {},
  "deployedLinkReferences": {}
}