{
  "_format": "hh-sol-artifact-1",
  "contractName": "Staking",
  "sourceName": "contracts/Staking.sol",
  "abi": [
    {
      "inputs": [
        {
          "internalType": "address",
          "name": "_tokenA",
          "type": "address"
        },
        {
          "internalType": "address",
          "name": "_nftB",
          "type": "address"
        }
      ],
      "stateMutability": "nonpayable",
      "type": "constructor"
    },
    {
      "inputs": [],
      "name": "MathOverflowedMulDiv",
      "type": "error"
    },
    {
      "inputs": [
        {
          "internalType": "address",
          "name": "owner",
          "type": "address"
        }
      ],
      "name": "OwnableInvalidOwner",
      "type": "error"
    },
    {
      "inputs": [
        {
          "internalType": "address",
          "name": "account",
          "type": "address"
        }
      ],
      "name": "OwnableUnauthorizedAccount",
      "type": "error"
    },
    {
      "anonymous": false,
      "inputs": [
        {
          "indexed": false,
          "internalType": "uint256",
          "name": "newBaseAPR",
          "type": "uint256"
        }
      ],
      "name": "APRUpdated",
      "type": "event"
    },
    {
      "anonymous": false,
      "inputs": [
        {
          "indexed": true,
          "internalType": "address",
          "name": "user",
          "type": "address"
        },
        {
          "indexed": false,
          "internalType": "uint256",
          "name": "amount",
          "type": "uint256"
        }
      ],
      "name": "Deposited",
      "type": "event"
    },
    {
      "anonymous": false,
      "inputs": [
        {
          "indexed": true,
          "internalType": "address",
          "name": "user",
          "type": "address"
        },
        {
          "indexed": false,
          "internalType": "uint256",
          "name": "tokenId",
          "type": "uint256"
        }
      ],
      "name": "NFTDeposited",
      "type": "event"
    },
    {
      "anonymous": false,
      "inputs": [
        {
          "indexed": true,
          "internalType": "address",
          "name": "user",
          "type": "address"
        },
        {
          "indexed": false,
          "internalType": "uint256",
          "name": "tokenId",
          "type": "uint256"
        }
      ],
      "name": "NFTMinted",
      "type": "event"
    },
    {
      "anonymous": false,
      "inputs": [
        {
          "indexed": true,
          "internalType": "address",
          "name": "user",
          "type": "address"
        },
        {
          "indexed": false,
          "internalType": "uint256",
          "name": "tokenId",
          "type": "uint256"
        }
      ],
      "name": "NFTWithdrawn",
      "type": "event"
    },
    {
      "anonymous": false,
      "inputs": [
        {
          "indexed": true,
          "internalType": "address",
          "name": "previousOwner",
          "type": "address"
        },
        {
          "indexed": true,
          "internalType": "address",
          "name": "newOwner",
          "type": "address"
        }
      ],
      "name": "OwnershipTransferred",
      "type": "event"
    },
    {
      "anonymous": false,
      "inputs": [
        {
          "indexed": true,
          "internalType": "address",
          "name": "user",
          "type": "address"
        },
        {
          "indexed": false,
          "internalType": "uint256",
          "name": "reward",
          "type": "uint256"
        }
      ],
      "name": "RewardClaimed",
      "type": "event"
    },
    {
      "anonymous": false,
      "inputs": [
        {
          "indexed": true,
          "internalType": "address",
          "name": "user",
          "type": "address"
        },
        {
          "indexed": false,
          "internalType": "uint256",
          "name": "amount",
          "type": "uint256"
        },
        {
          "indexed": false,
          "internalType": "uint256",
          "name": "reward",
          "type": "uint256"
        }
      ],
      "name": "Withdrawn",
      "type": "event"
    },
    {
      "inputs": [],
      "name": "LOCK_PERIOD",
      "outputs": [
        {
          "internalType": "uint256",
          "name": "",
          "type": "uint256"
        }
      ],
      "stateMutability": "view",
      "type": "function"
    },
    {
      "inputs": [],
      "name": "NFT_THRESHOLD",
      "outputs": [
        {
          "internalType": "uint256",
          "name": "",
          "type": "uint256"
        }
      ],
      "stateMutability": "view",
      "type": "function"
    },
    {
      "inputs": [],
      "name": "baseAPR",
      "outputs": [
        {
          "internalType": "uint256",
          "name": "",
          "type": "uint256"
        }
      ],
      "stateMutability": "view",
      "type": "function"
    },
    {
      "inputs": [
        {
          "internalType": "address",
          "name": "user",
          "type": "address"
        }
      ],
      "name": "calculateReward",
      "outputs": [
        {
          "internalType": "uint256",
          "name": "",
          "type": "uint256"
        }
      ],
      "stateMutability": "view",
      "type": "function"
    },
    {
      "inputs": [],
      "name": "claimReward",
      "outputs": [],
      "stateMutability": "nonpayable",
      "type": "function"
    },
    {
      "inputs": [
        {
          "internalType": "uint256",
          "name": "amount",
          "type": "uint256"
        }
      ],
      "name": "deposit",
      "outputs": [],
      "stateMutability": "nonpayable",
      "type": "function"
    },
    {
      "inputs": [
        {
          "internalType": "uint256",
          "name": "tokenId",
          "type": "uint256"
        }
      ],
      "name": "depositNFT",
      "outputs": [],
      "stateMutability": "nonpayable",
      "type": "function"
    },
    {
      "inputs": [],
      "name": "getContractBalance",
      "outputs": [
        {
          "internalType": "uint256",
          "name": "",
          "type": "uint256"
        }
      ],
      "stateMutability": "view",
      "type": "function"
    },
    {
      "inputs": [
        {
          "internalType": "address",
          "name": "user",
          "type": "address"
        }
      ],
      "name": "getCurrentAPR",
      "outputs": [
        {
          "internalType": "uint256",
          "name": "",
          "type": "uint256"
        }
      ],
      "stateMutability": "view",
      "type": "function"
    },
    {
      "inputs": [
        {
          "internalType": "address",
          "name": "user",
          "type": "address"
        }
      ],
      "name": "getMintedNFTCount",
      "outputs": [
        {
          "internalType": "uint256",
          "name": "",
          "type": "uint256"
        }
      ],
      "stateMutability": "view",
      "type": "function"
    },
    {
      "inputs": [
        {
          "internalType": "address",
          "name": "user",
          "type": "address"
        }
      ],
      "name": "getOwnedNFTs",
      "outputs": [
        {
          "internalType": "uint256[]",
          "name": "",
          "type": "uint256[]"
        }
      ],
      "stateMutability": "view",
      "type": "function"
    },
    {
      "inputs": [
        {
          "internalType": "address",
          "name": "user",
          "type": "address"
        }
      ],
      "name": "getRemainingLockTime",
      "outputs": [
        {
          "internalType": "uint256",
          "name": "",
          "type": "uint256"
        }
      ],
      "stateMutability": "view",
      "type": "function"
    },
    {
      "inputs": [
        {
          "internalType": "address",
          "name": "user",
          "type": "address"
        }
      ],
      "name": "getStakeDetails",
      "outputs": [
        {
          "internalType": "uint256",
          "name": "stakedAmount",
          "type": "uint256"
        },
        {
          "internalType": "uint256",
          "name": "pendingReward",
          "type": "uint256"
        },
        {
          "internalType": "uint256",
          "name": "calculatedReward",
          "type": "uint256"
        },
        {
          "internalType": "uint256",
          "name": "lockEndTime",
          "type": "uint256"
        }
      ],
      "stateMutability": "view",
      "type": "function"
    },
    {
      "inputs": [
        {
          "internalType": "address",
          "name": "user",
          "type": "address"
        }
      ],
      "name": "getStakedNFTCount",
      "outputs": [
        {
          "internalType": "uint256",
          "name": "",
          "type": "uint256"
        }
      ],
      "stateMutability": "view",
      "type": "function"
    },
    {
      "inputs": [
        {
          "internalType": "address",
          "name": "",
          "type": "address"
        }
      ],
      "name": "mintedNFTs",
      "outputs": [
        {
          "internalType": "uint256",
          "name": "",
          "type": "uint256"
        }
      ],
      "stateMutability": "view",
      "type": "function"
    },
    {
      "inputs": [],
      "name": "nftB",
      "outputs": [
        {
          "internalType": "contract NFTB",
          "name": "",
          "type": "address"
        }
      ],
      "stateMutability": "view",
      "type": "function"
    },
    {
      "inputs": [],
      "name": "nftBonusAPR",
      "outputs": [
        {
          "internalType": "uint256",
          "name": "",
          "type": "uint256"
        }
      ],
      "stateMutability": "view",
      "type": "function"
    },
    {
      "inputs": [],
      "name": "owner",
      "outputs": [
        {
          "internalType": "address",
          "name": "",
          "type": "address"
        }
      ],
      "stateMutability": "view",
      "type": "function"
    },
    {
      "inputs": [],
      "name": "renounceOwnership",
      "outputs": [],
      "stateMutability": "nonpayable",
      "type": "function"
    },
    {
      "inputs": [
        {
          "internalType": "address",
          "name": "",
          "type": "address"
        },
        {
          "internalType": "uint256",
          "name": "",
          "type": "uint256"
        }
      ],
      "name": "stakedNFTs",
      "outputs": [
        {
          "internalType": "uint256",
          "name": "",
          "type": "uint256"
        }
      ],
      "stateMutability": "view",
      "type": "function"
    },
    {
      "inputs": [
        {
          "internalType": "address",
          "name": "",
          "type": "address"
        }
      ],
      "name": "stakes",
      "outputs": [
        {
          "internalType": "uint256",
          "name": "amount",
          "type": "uint256"
        },
        {
          "internalType": "uint256",
          "name": "timestamp",
          "type": "uint256"
        },
        {
          "internalType": "uint256",
          "name": "nftDepositTime",
          "type": "uint256"
        },
        {
          "internalType": "uint256",
          "name": "nftCount",
          "type": "uint256"
        },
        {
          "internalType": "uint256",
          "name": "pendingReward",
          "type": "uint256"
        },
        {
          "internalType": "uint256",
          "name": "lockEndTime",
          "type": "uint256"
        },
        {
          "internalType": "uint256",
          "name": "mintedNFTCount",
          "type": "uint256"
        },
        {
          "internalType": "uint256",
          "name": "totalStakedAmount",
          "type": "uint256"
        }
      ],
      "stateMutability": "view",
      "type": "function"
    },
    {
      "inputs": [],
      "name": "tokenA",
      "outputs": [
        {
          "internalType": "contract TokenA",
          "name": "",
          "type": "address"
        }
      ],
      "stateMutability": "view",
      "type": "function"
    },
    {
      "inputs": [
        {
          "internalType": "address",
          "name": "newOwner",
          "type": "address"
        }
      ],
      "name": "transferOwnership",
      "outputs": [],
      "stateMutability": "nonpayable",
      "type": "function"
    },
    {
      "inputs": [
        {
          "internalType": "uint256",
          "name": "newBaseAPR",
          "type": "uint256"
        }
      ],
      "name": "updateBaseAPR",
      "outputs": [],
      "stateMutability": "nonpayable",
      "type": "function"
    },
    {
      "inputs": [],
      "name": "withdraw",
      "outputs": [],
      "stateMutability": "nonpayable",
      "type": "function"
    },
    {
      "inputs": [
        {
          "internalType": "uint256[]",
          "name": "tokenIds",
          "type": "uint256[]"
        }
      ],
      "name": "withdrawNFTs",
      "outputs": [],
      "stateMutability": "nonpayable",
      "type": "function"
    }
  ],
  "bytecode": "0x608060405261032060035560c86004553480156200001c57600080fd5b5060405162001cea38038062001cea8339810160408190526200003f9162000111565b33806200006657604051631e4fbdf760e01b81526000600482015260240160405180910390fd5b6200007181620000a4565b50600180546001600160a01b039384166001600160a01b0319918216179091556002805492909316911617905562000149565b600080546001600160a01b038381166001600160a01b0319831681178455604051919092169283917f8be0079c531659141344cd1fd0a4f28419497f9722a3daafe3b4186f6b6457e09190a35050565b80516001600160a01b03811681146200010c57600080fd5b919050565b600080604083850312156200012557600080fd5b6200013083620000f4565b91506200014060208401620000f4565b90509250929050565b611b9180620001596000396000f3fe608060405234801561001057600080fd5b506004361061018e5760003560e01c80638da5cb5b116100de578063c2baf73311610097578063e91a7ca611610071578063e91a7ca6146103da578063f2fde38b146103ed578063f41322ac14610400578063f70600481461043357600080fd5b8063c2baf733146103a1578063cf9fe22b146103b4578063d82e3962146103c757600080fd5b80638da5cb5b1461031857806393c4948414610329578063b390bd911461033a578063b6b55f2514610366578063b88a802f14610379578063ba060bed1461038157600080fd5b806332e2cea81161014b57806358ac0e801161012557806358ac0e80146102f65780636f9fb98a146102ff5780637120f29414610307578063715018a61461031057600080fd5b806332e2cea8146102c65780633ccfd60b146102d957806347304494146102e357600080fd5b806301d650e114610193578063096ff61c146101b95780630fc63d10146101e257806316934fc41461020d57806318148f1b1461029e5780631820cabb146102be575b600080fd5b6101a66101a13660046118d8565b610446565b6040519081526020015b60405180910390f35b6101a66101c73660046118d8565b6001600160a01b031660009081526007602052604090205490565b6001546101f5906001600160a01b031681565b6040516001600160a01b0390911681526020016101b0565b61026361021b3660046118d8565b60056020528060005260406000206000915090508060000154908060010154908060020154908060030154908060040154908060050154908060060154908060070154905088565b604080519889526020890197909752958701949094526060860192909252608085015260a084015260c083015260e0820152610100016101b0565b6102b16102ac3660046118d8565b610499565b6040516101b091906118f5565b6101a6601e81565b6002546101f5906001600160a01b031681565b6102e1610626565b005b6101a66102f13660046118d8565b610a32565b6101a660035481565b6101a6610a7a565b6101a660045481565b6102e1610aec565b6000546001600160a01b03166101f5565b6101a669d3c21bcecceda100000081565b6101a66103483660046118d8565b6001600160a01b031660009081526005602052604090206003015490565b6102e1610374366004611939565b610b00565b6102e1610dfc565b6101a661038f3660046118d8565b60076020526000908152604090205481565b6102e16103af366004611939565b610fcc565b6102e16103c2366004611952565b61100f565b6101a66103d53660046118d8565b6113c3565b6102e16103e8366004611939565b6114c5565b6102e16103fb3660046118d8565b6116a2565b61041361040e3660046118d8565b6116e0565b6040805194855260208501939093529183015260608201526080016101b0565b6101a66104413660046119c7565b61171f565b6001600160a01b038116600090815260056020526040812060038101548203610473575050600354919050565b80600301546004546104859190611a09565b6003546104929190611a26565b9392505050565b6002546040516370a0823160e01b81526001600160a01b0383811660048301526060926000929116906370a0823190602401602060405180830381865afa1580156104e8573d6000803e3d6000fd5b505050506040513d601f19601f8201168201806040525081019061050c9190611a39565b905060008167ffffffffffffffff81111561052957610529611a52565b604051908082528060200260200182016040528015610552578160200160208202803683370190505b5090506000805b8382101561061c576002546040516331a9108f60e11b8152600481018390526001600160a01b03888116921690636352211e90602401602060405180830381865afa1580156105ac573d6000803e3d6000fd5b505050506040513d601f19601f820116820180604052508101906105d09190611a68565b6001600160a01b03160361060a57808383815181106105f1576105f1611a85565b60209081029190910101528161060681611a9b565b9250505b8061061481611a9b565b915050610559565b5090949350505050565b336000908152600560205260409020805461067f5760405162461bcd60e51b81526020600482015260146024820152734e6f207374616b6520746f20776974686472617760601b60448201526064015b60405180910390fd5b80600501544210156106d35760405162461bcd60e51b815260206004820152601760248201527f546f6b656e7320617265207374696c6c206c6f636b65640000000000000000006044820152606401610676565b600081600401546106e3336113c3565b6106ed9190611a26565b600154835460405163a9059cbb60e01b815233600482015260248101919091529192506001600160a01b03169063a9059cbb906044016020604051808303816000875af1158015610742573d6000803e3d6000fd5b505050506040513d601f19601f820116820180604052508101906107669190611ab4565b6107b25760405162461bcd60e51b815260206004820152601d60248201527f5374616b656420616d6f756e74207472616e73666572206661696c65640000006044820152606401610676565b6001546040516315490ebb60e01b8152336004820152602481018390526001600160a01b03909116906315490ebb906044016020604051808303816000875af1158015610803573d6000803e3d6000fd5b505050506040513d601f19601f820116820180604052508101906108279190611ab4565b61086c5760405162461bcd60e51b815260206004820152601660248201527514995dd85c99081d1c985b9cd9995c8819985a5b195960521b6044820152606401610676565b60005b33600090815260066020526040902054811015610962573360009081526006602052604081208054839081106108a7576108a7611a85565b6000918252602090912001546002546040516323b872dd60e01b81529192506001600160a01b0316906323b872dd906108e890309033908690600401611ad6565b600060405180830381600087803b15801561090257600080fd5b505af1158015610916573d6000803e3d6000fd5b50506040518381523392507f2aa1b4c95f3b2da9c955947fca584743ea0d457708fadf209c093061e98c4ccb915060200160405180910390a2508061095a81611a9b565b91505061086f565b508154604080519182526020820183905233917f92ccf450a286a957af52509bc1c9939d1a6a481783e142e41e2499f0bb66ebc6910160405180910390a260405181815233907f106f923f993c2149d49b4255ff723acafa1f2d94393f561d3eda32ae348f72419060200160405180910390a23360009081526006602052604081206109ed91611891565b50503360009081526005602081905260408220828155600181018390556002810183905560038101839055600481018390559081018290556006810182905560070155565b6001600160a01b038116600090815260056020526040812080541580610a5c575080600501544210155b15610a6a5750600092915050565b4281600501546104929190611afa565b6001546040516370a0823160e01b81523060048201526000916001600160a01b0316906370a0823190602401602060405180830381865afa158015610ac3573d6000803e3d6000fd5b505050506040513d601f19601f82011682018060405250810190610ae79190611a39565b905090565b610af4611750565b610afe600061177d565b565b60008111610b505760405162461bcd60e51b815260206004820152601d60248201527f416d6f756e74206d7573742062652067726561746572207468616e20300000006044820152606401610676565b6001546040516323b872dd60e01b81526001600160a01b03909116906323b872dd90610b8490339030908690600401611ad6565b6020604051808303816000875af1158015610ba3573d6000803e3d6000fd5b505050506040513d601f19601f82011682018060405250810190610bc79190611ab4565b610c055760405162461bcd60e51b815260206004820152600f60248201526e151c985b9cd9995c8819985a5b1959608a1b6044820152606401610676565b336000908152600560205260409020805415610c43576000610c26336113c3565b905080826004016000828254610c3c9190611a26565b9091555050505b81816000016000828254610c579190611a26565b9250508190555081816007016000828254610c729190611a26565b90915550504260018201819055610c8b90601e90611a26565b6005820155600281015415610ca1574260028201555b33600090815260076020819052604082205490830154610ccc9069d3c21bcecceda100000090611b23565b610cd69190611afa565b905060005b81811015610d9d576002546040516340d097c360e01b81523360048201526000916001600160a01b0316906340d097c3906024016020604051808303816000875af1158015610d2e573d6000803e3d6000fd5b505050506040513d601f19601f82011682018060405250810190610d529190611a39565b60405181815290915033907f4cc0a9c4a99ddc700de1af2c9f916a7cbfdb71f14801ccff94061ad1ef8a80409060200160405180910390a25080610d9581611a9b565b915050610cdb565b503360009081526007602052604081208054839290610dbd908490611a26565b909155505060405183815233907f2da466a7b24304f47e87fa2e1e5a81b9831ce54fec19055ce277ca2f39ba42c49060200160405180910390a2505050565b3360009081526005602052604090208054610e595760405162461bcd60e51b815260206004820152601d60248201527f4e6f207374616b6520746f20636c61696d207265776172642066726f6d0000006044820152606401610676565b60008160040154610e69336113c3565b610e739190611a26565b905060008111610eba5760405162461bcd60e51b81526020600482015260126024820152714e6f2072657761726420746f20636c61696d60701b6044820152606401610676565b6001546040516315490ebb60e01b8152336004820152602481018390526001600160a01b03909116906315490ebb906044016020604051808303816000875af1158015610f0b573d6000803e3d6000fd5b505050506040513d601f19601f82011682018060405250810190610f2f9190611ab4565b610f745760405162461bcd60e51b815260206004820152601660248201527514995dd85c99081d1c985b9cd9995c8819985a5b195960521b6044820152606401610676565b60006004830155426001830155600282015415610f92574260028301555b60405181815233907f106f923f993c2149d49b4255ff723acafa1f2d94393f561d3eda32ae348f7241906020015b60405180910390a25050565b610fd4611750565b60038190556040518181527f2ec8ccb96042321f3bbdd56e8e4e4339bc07c9c2021e14e18ef12f5db282b37a9060200160405180910390a150565b33600090815260056020526040902060038101546110655760405162461bcd60e51b81526020600482015260136024820152724e6f204e46547320746f20776974686472617760681b6044820152606401610676565b816110b25760405162461bcd60e51b815260206004820152601f60248201527f4e6f204e4654732073656c656374656420666f72207769746864726177616c006044820152606401610676565b600381015482111561111b5760405162461bcd60e51b815260206004820152602c60248201527f417474656d7074696e6720746f207769746864726177206d6f7265204e46547360448201526b081d1a185b881cdd185ad95960a21b6064820152608401610676565b6000611126336113c3565b90508082600401600082825461113c9190611a26565b90915550504260018301556000805b8481101561139157600086868381811061116757611167611a85565b9050602002013590506000805b3360009081526006602052604090205481101561132e573360009081526006602052604090208054849190839081106111af576111af611a85565b90600052602060002001540361131c576002546040516323b872dd60e01b81526001600160a01b03909116906323b872dd906111f390309033908890600401611ad6565b600060405180830381600087803b15801561120d57600080fd5b505af1158015611221573d6000803e3d6000fd5b505033600090815260066020526040902080549092506112449150600190611afa565b8154811061125457611254611a85565b60009182526020808320909101543383526006909152604090912080548390811061128157611281611a85565b60009182526020808320909101929092553381526006909152604090208054806112ad576112ad611b45565b60019003818190600052602060002001600090559055336001600160a01b03167f2aa1b4c95f3b2da9c955947fca584743ea0d457708fadf209c093061e98c4ccb846040516112fe91815260200190565b60405180910390a28461131081611a9b565b9550506001915061132e565b8061132681611a9b565b915050611174565b508061137c5760405162461bcd60e51b815260206004820152601c60248201527f4e4654206e6f7420666f756e6420696e207374616b6564204e465473000000006044820152606401610676565b5050808061138990611a9b565b91505061114b565b50808360030160008282546113a69190611afa565b90915550506002830154156113bc574260028401555b5050505050565b6001600160a01b0381166000908152600560205260408120805482036113ec5750600092915050565b60008160010154426113fe9190611afa565b9050600080836002015411156114a457600061144d846001015485600201546114279190611afa565b60035486546114369190611a09565b6114409190611a09565b600164496cebb8006117cd565b9050600061148f8560020154426114649190611afa565b86600301546004546114769190611a09565b6003546114839190611a26565b87546114369190611a09565b905061149b8183611a26565b925050506114bd565b6114ba8260035485600001546114369190611a09565b90505b949350505050565b6002546040516331a9108f60e11b81526004810183905233916001600160a01b031690636352211e90602401602060405180830381865afa15801561150e573d6000803e3d6000fd5b505050506040513d601f19601f820116820180604052508101906115329190611a68565b6001600160a01b0316146115815760405162461bcd60e51b8152602060048201526016602482015275165bdd48191bdb89dd081bdddb881d1a1a5cc813919560521b6044820152606401610676565b6002546040516323b872dd60e01b81526001600160a01b03909116906323b872dd906115b590339030908690600401611ad6565b600060405180830381600087803b1580156115cf57600080fd5b505af11580156115e3573d6000803e3d6000fd5b5050336000908152600560205260409020805490925015905061162857600061160b336113c3565b9050808260040160008282546116219190611a26565b9091555050505b42600282015560038101805490600061164083611a9b565b909155505033600081815260066020908152604080832080546001808201835591855293839020909301869055429285019290925590518481527f1c4b8380f61aea3d5d98cbadaf2e6b2e4f3d8ca8c0fce1290b26ac267158745f9101610fc0565b6116aa611750565b6001600160a01b0381166116d457604051631e4fbdf760e01b815260006004820152602401610676565b6116dd8161177d565b50565b6001600160a01b03811660009081526005602052604081208054600482015490929091819061170e866113c3565b925080600501549150509193509193565b6006602052816000526040600020818154811061173b57600080fd5b90600052602060002001600091509150505481565b6000546001600160a01b03163314610afe5760405163118cdaa760e01b8152336004820152602401610676565b600080546001600160a01b038381166001600160a01b0319831681178455604051919092169283917f8be0079c531659141344cd1fd0a4f28419497f9722a3daafe3b4186f6b6457e09190a35050565b6000838302816000198587098281108382030391505080600003611804578382816117fa576117fa611b0d565b0492505050610492565b8084116118245760405163227bc15360e01b815260040160405180910390fd5b6000848688096000868103871696879004966002600389028118808a02820302808a02820302808a02820302808a02820302808a02820302808a02909103029181900381900460010186841190950394909402919094039290920491909117919091029150509392505050565b50805460008255906000526020600020908101906116dd91905b808211156118bf57600081556001016118ab565b5090565b6001600160a01b03811681146116dd57600080fd5b6000602082840312156118ea57600080fd5b8135610492816118c3565b6020808252825182820181905260009190848201906040850190845b8181101561192d57835183529284019291840191600101611911565b50909695505050505050565b60006020828403121561194b57600080fd5b5035919050565b6000806020838503121561196557600080fd5b823567ffffffffffffffff8082111561197d57600080fd5b818501915085601f83011261199157600080fd5b8135818111156119a057600080fd5b8660208260051b85010111156119b557600080fd5b60209290920196919550909350505050565b600080604083850312156119da57600080fd5b82356119e5816118c3565b946020939093013593505050565b634e487b7160e01b600052601160045260246000fd5b8082028115828204841417611a2057611a206119f3565b92915050565b80820180821115611a2057611a206119f3565b600060208284031215611a4b57600080fd5b5051919050565b634e487b7160e01b600052604160045260246000fd5b600060208284031215611a7a57600080fd5b8151610492816118c3565b634e487b7160e01b600052603260045260246000fd5b600060018201611aad57611aad6119f3565b5060010190565b600060208284031215611ac657600080fd5b8151801515811461049257600080fd5b6001600160a01b039384168152919092166020820152604081019190915260600190565b81810381811115611a2057611a206119f3565b634e487b7160e01b600052601260045260246000fd5b600082611b4057634e487b7160e01b600052601260045260246000fd5b500490565b634e487b7160e01b600052603160045260246000fdfea2646970667358221220d4618cf51be6f9ac925df0ccb863be95e70cef7835eb7f90980a01af86c3a92964736f6c63430008140033",
  "linkReferences": {},
  "deployedLinkReferences": {}
}