{
  "_format": "hh-sol-artifact-1",
  "contractName": "Staking",
  "sourceName": "contracts/Staking.sol",
  "abi": [
    {
      "inputs": [
        {
          "internalType": "address",
          "name": "_tokenA",
          "type": "address"
        },
        {
          "internalType": "address",
          "name": "_nftB",
          "type": "address"
        }
      ],
      "stateMutability": "nonpayable",
      "type": "constructor"
    },
    {
      "inputs": [],
      "name": "MathOverflowedMulDiv",
      "type": "error"
    },
    {
      "inputs": [
        {
          "internalType": "address",
          "name": "owner",
          "type": "address"
        }
      ],
      "name": "OwnableInvalidOwner",
      "type": "error"
    },
    {
      "inputs": [
        {
          "internalType": "address",
          "name": "account",
          "type": "address"
        }
      ],
      "name": "OwnableUnauthorizedAccount",
      "type": "error"
    },
    {
      "anonymous": false,
      "inputs": [
        {
          "indexed": false,
          "internalType": "uint256",
          "name": "newBaseAPR",
          "type": "uint256"
        }
      ],
      "name": "APRUpdated",
      "type": "event"
    },
    {
      "anonymous": false,
      "inputs": [
        {
          "indexed": true,
          "internalType": "address",
          "name": "user",
          "type": "address"
        },
        {
          "indexed": false,
          "internalType": "uint256",
          "name": "amount",
          "type": "uint256"
        }
      ],
      "name": "Deposited",
      "type": "event"
    },
    {
      "anonymous": false,
      "inputs": [
        {
          "indexed": true,
          "internalType": "address",
          "name": "user",
          "type": "address"
        },
        {
          "indexed": false,
          "internalType": "uint256",
          "name": "tokenId",
          "type": "uint256"
        }
      ],
      "name": "NFTDeposited",
      "type": "event"
    },
    {
      "anonymous": false,
      "inputs": [
        {
          "indexed": true,
          "internalType": "address",
          "name": "user",
          "type": "address"
        },
        {
          "indexed": false,
          "internalType": "uint256",
          "name": "tokenId",
          "type": "uint256"
        }
      ],
      "name": "NFTMinted",
      "type": "event"
    },
    {
      "anonymous": false,
      "inputs": [
        {
          "indexed": true,
          "internalType": "address",
          "name": "user",
          "type": "address"
        },
        {
          "indexed": false,
          "internalType": "uint256",
          "name": "tokenId",
          "type": "uint256"
        }
      ],
      "name": "NFTWithdrawn",
      "type": "event"
    },
    {
      "anonymous": false,
      "inputs": [
        {
          "indexed": true,
          "internalType": "address",
          "name": "previousOwner",
          "type": "address"
        },
        {
          "indexed": true,
          "internalType": "address",
          "name": "newOwner",
          "type": "address"
        }
      ],
      "name": "OwnershipTransferred",
      "type": "event"
    },
    {
      "anonymous": false,
      "inputs": [
        {
          "indexed": true,
          "internalType": "address",
          "name": "user",
          "type": "address"
        },
        {
          "indexed": false,
          "internalType": "uint256",
          "name": "reward",
          "type": "uint256"
        }
      ],
      "name": "RewardClaimed",
      "type": "event"
    },
    {
      "anonymous": false,
      "inputs": [
        {
          "indexed": true,
          "internalType": "address",
          "name": "user",
          "type": "address"
        },
        {
          "indexed": false,
          "internalType": "uint256",
          "name": "amount",
          "type": "uint256"
        },
        {
          "indexed": false,
          "internalType": "uint256",
          "name": "reward",
          "type": "uint256"
        }
      ],
      "name": "Withdrawn",
      "type": "event"
    },
    {
      "inputs": [],
      "name": "LOCK_PERIOD",
      "outputs": [
        {
          "internalType": "uint256",
          "name": "",
          "type": "uint256"
        }
      ],
      "stateMutability": "view",
      "type": "function"
    },
    {
      "inputs": [],
      "name": "NFT_THRESHOLD",
      "outputs": [
        {
          "internalType": "uint256",
          "name": "",
          "type": "uint256"
        }
      ],
      "stateMutability": "view",
      "type": "function"
    },
    {
      "inputs": [],
      "name": "baseAPR",
      "outputs": [
        {
          "internalType": "uint256",
          "name": "",
          "type": "uint256"
        }
      ],
      "stateMutability": "view",
      "type": "function"
    },
    {
      "inputs": [
        {
          "internalType": "address",
          "name": "user",
          "type": "address"
        }
      ],
      "name": "calculateReward",
      "outputs": [
        {
          "internalType": "uint256",
          "name": "",
          "type": "uint256"
        }
      ],
      "stateMutability": "view",
      "type": "function"
    },
    {
      "inputs": [],
      "name": "claimReward",
      "outputs": [],
      "stateMutability": "nonpayable",
      "type": "function"
    },
    {
      "inputs": [
        {
          "internalType": "uint256",
          "name": "amount",
          "type": "uint256"
        }
      ],
      "name": "deposit",
      "outputs": [],
      "stateMutability": "nonpayable",
      "type": "function"
    },
    {
      "inputs": [
        {
          "internalType": "uint256",
          "name": "tokenId",
          "type": "uint256"
        }
      ],
      "name": "depositNFT",
      "outputs": [],
      "stateMutability": "nonpayable",
      "type": "function"
    },
    {
      "inputs": [],
      "name": "getContractBalance",
      "outputs": [
        {
          "internalType": "uint256",
          "name": "",
          "type": "uint256"
        }
      ],
      "stateMutability": "view",
      "type": "function"
    },
    {
      "inputs": [
        {
          "internalType": "address",
          "name": "user",
          "type": "address"
        }
      ],
      "name": "getCurrentAPR",
      "outputs": [
        {
          "internalType": "uint256",
          "name": "",
          "type": "uint256"
        }
      ],
      "stateMutability": "view",
      "type": "function"
    },
    {
      "inputs": [
        {
          "internalType": "address",
          "name": "user",
          "type": "address"
        }
      ],
      "name": "getRemainingLockTime",
      "outputs": [
        {
          "internalType": "uint256",
          "name": "",
          "type": "uint256"
        }
      ],
      "stateMutability": "view",
      "type": "function"
    },
    {
      "inputs": [
        {
          "internalType": "address",
          "name": "user",
          "type": "address"
        }
      ],
      "name": "getStakeDetails",
      "outputs": [
        {
          "internalType": "uint256",
          "name": "stakedAmount",
          "type": "uint256"
        },
        {
          "internalType": "uint256",
          "name": "pendingReward",
          "type": "uint256"
        },
        {
          "internalType": "uint256",
          "name": "calculatedReward",
          "type": "uint256"
        },
        {
          "internalType": "uint256",
          "name": "lockEndTime",
          "type": "uint256"
        }
      ],
      "stateMutability": "view",
      "type": "function"
    },
    {
      "inputs": [],
      "name": "nftB",
      "outputs": [
        {
          "internalType": "contract NFTB",
          "name": "",
          "type": "address"
        }
      ],
      "stateMutability": "view",
      "type": "function"
    },
    {
      "inputs": [],
      "name": "nftBonusAPR",
      "outputs": [
        {
          "internalType": "uint256",
          "name": "",
          "type": "uint256"
        }
      ],
      "stateMutability": "view",
      "type": "function"
    },
    {
      "inputs": [],
      "name": "owner",
      "outputs": [
        {
          "internalType": "address",
          "name": "",
          "type": "address"
        }
      ],
      "stateMutability": "view",
      "type": "function"
    },
    {
      "inputs": [],
      "name": "renounceOwnership",
      "outputs": [],
      "stateMutability": "nonpayable",
      "type": "function"
    },
    {
      "inputs": [
        {
          "internalType": "address",
          "name": "",
          "type": "address"
        },
        {
          "internalType": "uint256",
          "name": "",
          "type": "uint256"
        }
      ],
      "name": "stakedNFTs",
      "outputs": [
        {
          "internalType": "uint256",
          "name": "",
          "type": "uint256"
        }
      ],
      "stateMutability": "view",
      "type": "function"
    },
    {
      "inputs": [
        {
          "internalType": "address",
          "name": "",
          "type": "address"
        }
      ],
      "name": "stakes",
      "outputs": [
        {
          "internalType": "uint256",
          "name": "amount",
          "type": "uint256"
        },
        {
          "internalType": "uint256",
          "name": "timestamp",
          "type": "uint256"
        },
        {
          "internalType": "uint256",
          "name": "nftDepositTime",
          "type": "uint256"
        },
        {
          "internalType": "uint256",
          "name": "nftCount",
          "type": "uint256"
        },
        {
          "internalType": "uint256",
          "name": "pendingReward",
          "type": "uint256"
        },
        {
          "internalType": "uint256",
          "name": "lockEndTime",
          "type": "uint256"
        }
      ],
      "stateMutability": "view",
      "type": "function"
    },
    {
      "inputs": [],
      "name": "tokenA",
      "outputs": [
        {
          "internalType": "contract TokenA",
          "name": "",
          "type": "address"
        }
      ],
      "stateMutability": "view",
      "type": "function"
    },
    {
      "inputs": [
        {
          "internalType": "address",
          "name": "newOwner",
          "type": "address"
        }
      ],
      "name": "transferOwnership",
      "outputs": [],
      "stateMutability": "nonpayable",
      "type": "function"
    },
    {
      "inputs": [
        {
          "internalType": "uint256",
          "name": "newBaseAPR",
          "type": "uint256"
        }
      ],
      "name": "updateBaseAPR",
      "outputs": [],
      "stateMutability": "nonpayable",
      "type": "function"
    },
    {
      "inputs": [],
      "name": "withdraw",
      "outputs": [],
      "stateMutability": "nonpayable",
      "type": "function"
    },
    {
      "inputs": [],
      "name": "withdrawNFTs",
      "outputs": [],
      "stateMutability": "nonpayable",
      "type": "function"
    }
  ],
  "bytecode": "0x608060405261032060035560c86004553480156200001c57600080fd5b50604051620016a4380380620016a48339810160408190526200003f9162000111565b33806200006657604051631e4fbdf760e01b81526000600482015260240160405180910390fd5b6200007181620000a4565b50600180546001600160a01b039384166001600160a01b0319918216179091556002805492909316911617905562000149565b600080546001600160a01b038381166001600160a01b0319831681178455604051919092169283917f8be0079c531659141344cd1fd0a4f28419497f9722a3daafe3b4186f6b6457e09190a35050565b80516001600160a01b03811681146200010c57600080fd5b919050565b600080604083850312156200012557600080fd5b6200013083620000f4565b91506200014060208401620000f4565b90509250929050565b61154b80620001596000396000f3fe608060405234801561001057600080fd5b50600436106101425760003560e01c80638da5cb5b116100b8578063d5bfbf9f1161007c578063d5bfbf9f146102b3578063d82e3962146102bb578063e91a7ca6146102ce578063f2fde38b146102e1578063f41322ac146102f4578063f70600481461032757600080fd5b80638da5cb5b1461026357806393c4948414610274578063b6b55f2514610285578063b88a802f14610298578063c2baf733146102a057600080fd5b80633ccfd60b1161010a5780633ccfd60b14610224578063473044941461022e57806358ac0e80146102415780636f9fb98a1461024a5780637120f29414610252578063715018a61461025b57600080fd5b806301d650e1146101475780630fc63d101461016d57806316934fc4146101985780631820cabb1461020857806332e2cea814610211575b600080fd5b61015a610155366004611399565b61033a565b6040519081526020015b60405180910390f35b600154610180906001600160a01b031681565b6040516001600160a01b039091168152602001610164565b6101db6101a6366004611399565b600560208190526000918252604090912080546001820154600283015460038401546004850154949095015492949193909286565b604080519687526020870195909552938501929092526060840152608083015260a082015260c001610164565b61015a61012c81565b600254610180906001600160a01b031681565b61022c61038d565b005b61015a61023c366004611399565b6107ac565b61015a60035481565b61015a6107f4565b61015a60045481565b61022c610866565b6000546001600160a01b0316610180565b61015a69d3c21bcecceda100000081565b61022c6102933660046113b6565b61087a565b61022c610af6565b61022c6102ae3660046113b6565b610c77565b61022c610cba565b61015a6102c9366004611399565b610eaf565b61022c6102dc3660046113b6565b610fb1565b61022c6102ef366004611399565b611163565b610307610302366004611399565b6111a1565b604080519485526020850193909352918301526060820152608001610164565b61015a6103353660046113cf565b6111e0565b6001600160a01b038116600090815260056020526040812060038101548203610367575050600354919050565b80600301546004546103799190611411565b600354610386919061142e565b9392505050565b33600090815260056020526040902080546103ef5760405162461bcd60e51b815260206004820152601e60248201527f57697468647261773a204e6f207374616b6520746f207769746864726177000060448201526064015b60405180910390fd5b806005015442101561044d5760405162461bcd60e51b815260206004820152602160248201527f57697468647261773a20546f6b656e7320617265207374696c6c206c6f636b656044820152601960fa1b60648201526084016103e6565b6000816004015461045d33610eaf565b610467919061142e565b9050600081836000015461047b919061142e565b6001546040516370a0823160e01b815230600482015291925082916001600160a01b03909116906370a0823190602401602060405180830381865afa1580156104c8573d6000803e3d6000fd5b505050506040513d601f19601f820116820180604052508101906104ec9190611441565b101561054e5760405162461bcd60e51b815260206004820152602b60248201527f57697468647261773a20436f6e74726163742068617320696e7375666669636960448201526a656e742062616c616e636560a81b60648201526084016103e6565b60015460405163a9059cbb60e01b8152336004820152602481018390526001600160a01b039091169063a9059cbb906044016020604051808303816000875af115801561059f573d6000803e3d6000fd5b505050506040513d601f19601f820116820180604052508101906105c3919061145a565b61060f5760405162461bcd60e51b815260206004820152601960248201527f57697468647261773a205472616e73666572206661696c65640000000000000060448201526064016103e6565b8254604080519182526020820184905233917f92ccf450a286a957af52509bc1c9939d1a6a481783e142e41e2499f0bb66ebc6910160405180910390a233600090815260056020818152604080842084815560018101859055600281018590556003810185905560048101859055909201839055600690528120905b815481101561078d5760025482546001600160a01b03909116906323b872dd90309033908690869081106106c1576106c161147c565b90600052602060002001546040518463ffffffff1660e01b81526004016106ea93929190611492565b600060405180830381600087803b15801561070457600080fd5b505af1158015610718573d6000803e3d6000fd5b50505050336001600160a01b03167f2aa1b4c95f3b2da9c955947fca584743ea0d457708fadf209c093061e98c4ccb8383815481106107595761075961147c565b906000526020600020015460405161077391815260200190565b60405180910390a280610785816114b6565b91505061068b565b503360009081526006602052604081206107a691611352565b50505050565b6001600160a01b0381166000908152600560205260408120805415806107d6575080600501544210155b156107e45750600092915050565b42816005015461038691906114cf565b6001546040516370a0823160e01b81523060048201526000916001600160a01b0316906370a0823190602401602060405180830381865afa15801561083d573d6000803e3d6000fd5b505050506040513d601f19601f820116820180604052508101906108619190611441565b905090565b61086e611211565b610878600061123e565b565b600081116108ca5760405162461bcd60e51b815260206004820152601d60248201527f416d6f756e74206d7573742062652067726561746572207468616e203000000060448201526064016103e6565b6001546040516323b872dd60e01b81526001600160a01b03909116906323b872dd906108fe90339030908690600401611492565b6020604051808303816000875af115801561091d573d6000803e3d6000fd5b505050506040513d601f19601f82011682018060405250810190610941919061145a565b61097f5760405162461bcd60e51b815260206004820152600f60248201526e151c985b9cd9995c8819985a5b1959608a1b60448201526064016103e6565b3360009081526005602052604090208054156109bd5760006109a033610eaf565b9050808260040160008282546109b6919061142e565b9091555050505b818160000160008282546109d1919061142e565b909155505042600182018190556109eb9061012c9061142e565b6005820155600281015415610a01574260028201555b805469d3c21bcecceda100000011610abc576002546040516340d097c360e01b81523360048201526000916001600160a01b0316906340d097c3906024016020604051808303816000875af1158015610a5e573d6000803e3d6000fd5b505050506040513d601f19601f82011682018060405250810190610a829190611441565b60405181815290915033907f4cc0a9c4a99ddc700de1af2c9f916a7cbfdb71f14801ccff94061ad1ef8a80409060200160405180910390a2505b60405182815233907f2da466a7b24304f47e87fa2e1e5a81b9831ce54fec19055ce277ca2f39ba42c4906020015b60405180910390a25050565b336000818152600560205260408120600401549091610b1490610eaf565b610b1e919061142e565b905060008111610b655760405162461bcd60e51b81526020600482015260126024820152714e6f2072657761726420746f20636c61696d60701b60448201526064016103e6565b60015460405163a9059cbb60e01b8152336004820152602481018390526001600160a01b039091169063a9059cbb906044016020604051808303816000875af1158015610bb6573d6000803e3d6000fd5b505050506040513d601f19601f82011682018060405250810190610bda919061145a565b610c185760405162461bcd60e51b815260206004820152600f60248201526e151c985b9cd9995c8819985a5b1959608a1b60448201526064016103e6565b336000908152600560205260409020426001820155600281015415610c3e574260028201555b6000600482015560405182815233907f106f923f993c2149d49b4255ff723acafa1f2d94393f561d3eda32ae348f724190602001610aea565b610c7f611211565b60038190556040518181527f2ec8ccb96042321f3bbdd56e8e4e4339bc07c9c2021e14e18ef12f5db282b37a9060200160405180910390a150565b3360009081526005602052604090206003810154610d105760405162461bcd60e51b81526020600482015260136024820152724e6f204e46547320746f20776974686472617760681b60448201526064016103e6565b6000610d1b33610eaf565b905080826004016000828254610d31919061142e565b9091555050336000908152600660205260408120905b8154811015610e495760025482546001600160a01b03909116906323b872dd9030903390869086908110610d7d57610d7d61147c565b90600052602060002001546040518463ffffffff1660e01b8152600401610da693929190611492565b600060405180830381600087803b158015610dc057600080fd5b505af1158015610dd4573d6000803e3d6000fd5b50505050336001600160a01b03167f2aa1b4c95f3b2da9c955947fca584743ea0d457708fadf209c093061e98c4ccb838381548110610e1557610e1561147c565b9060005260206000200154604051610e2f91815260200190565b60405180910390a280610e41816114b6565b915050610d47565b5060006003840181905560028401819055338152600660205260408120610e6f91611352565b42600184015560405182815233907f106f923f993c2149d49b4255ff723acafa1f2d94393f561d3eda32ae348f72419060200160405180910390a2505050565b6001600160a01b038116600090815260056020526040812080548203610ed85750600092915050565b6000816001015442610eea91906114cf565b905060008083600201541115610f90576000610f3984600101548560020154610f1391906114cf565b6003548654610f229190611411565b610f2c9190611411565b600164496cebb80061128e565b90506000610f7b856002015442610f5091906114cf565b8660030154600454610f629190611411565b600354610f6f919061142e565b8754610f229190611411565b9050610f87818361142e565b92505050610fa9565b610fa6826003548560000154610f229190611411565b90505b949350505050565b6002546040516331a9108f60e11b81526004810183905233916001600160a01b031690636352211e90602401602060405180830381865afa158015610ffa573d6000803e3d6000fd5b505050506040513d601f19601f8201168201806040525081019061101e91906114e2565b6001600160a01b03161461106d5760405162461bcd60e51b8152602060048201526016602482015275165bdd48191bdb89dd081bdddb881d1a1a5cc813919560521b60448201526064016103e6565b6002546040516323b872dd60e01b81526001600160a01b03909116906323b872dd906110a190339030908690600401611492565b600060405180830381600087803b1580156110bb57600080fd5b505af11580156110cf573d6000803e3d6000fd5b50503360009081526005602052604081206002810154909350900390506110f7574260028201555b600381018054906000611109836114b6565b909155505033600081815260066020908152604080832080546001810182559084529190922001849055517f1c4b8380f61aea3d5d98cbadaf2e6b2e4f3d8ca8c0fce1290b26ac267158745f90610aea9085815260200190565b61116b611211565b6001600160a01b03811661119557604051631e4fbdf760e01b8152600060048201526024016103e6565b61119e8161123e565b50565b6001600160a01b0381166000908152600560205260408120805460048201549092909181906111cf86610eaf565b925080600501549150509193509193565b600660205281600052604060002081815481106111fc57600080fd5b90600052602060002001600091509150505481565b6000546001600160a01b031633146108785760405163118cdaa760e01b81523360048201526024016103e6565b600080546001600160a01b038381166001600160a01b0319831681178455604051919092169283917f8be0079c531659141344cd1fd0a4f28419497f9722a3daafe3b4186f6b6457e09190a35050565b60008383028160001985870982811083820303915050806000036112c5578382816112bb576112bb6114ff565b0492505050610386565b8084116112e55760405163227bc15360e01b815260040160405180910390fd5b6000848688096000868103871696879004966002600389028118808a02820302808a02820302808a02820302808a02820302808a02820302808a02909103029181900381900460010186841190950394909402919094039290920491909117919091029150509392505050565b508054600082559060005260206000209081019061119e91905b80821115611380576000815560010161136c565b5090565b6001600160a01b038116811461119e57600080fd5b6000602082840312156113ab57600080fd5b813561038681611384565b6000602082840312156113c857600080fd5b5035919050565b600080604083850312156113e257600080fd5b82356113ed81611384565b946020939093013593505050565b634e487b7160e01b600052601160045260246000fd5b8082028115828204841417611428576114286113fb565b92915050565b80820180821115611428576114286113fb565b60006020828403121561145357600080fd5b5051919050565b60006020828403121561146c57600080fd5b8151801515811461038657600080fd5b634e487b7160e01b600052603260045260246000fd5b6001600160a01b039384168152919092166020820152604081019190915260600190565b6000600182016114c8576114c86113fb565b5060010190565b81810381811115611428576114286113fb565b6000602082840312156114f457600080fd5b815161038681611384565b634e487b7160e01b600052601260045260246000fdfea26469706673582212200de20618706b114f8c40c067e4dd8ba51dafbb887c58b0c4d9061b1e3ee0174664736f6c63430008140033",
  "linkReferences": {},
  "deployedLinkReferences": {}
}