{
  "_format": "hh-sol-artifact-1",
  "contractName": "TokenA",
  "sourceName": "contracts/TokenA.sol",
  "abi": [
    {
      "inputs": [],
      "stateMutability": "nonpayable",
      "type": "constructor"
    },
    {
      "inputs": [
        {
          "internalType": "address",
          "name": "spender",
          "type": "address"
        },
        {
          "internalType": "uint256",
          "name": "allowance",
          "type": "uint256"
        },
        {
          "internalType": "uint256",
          "name": "needed",
          "type": "uint256"
        }
      ],
      "name": "ERC20InsufficientAllowance",
      "type": "error"
    },
    {
      "inputs": [
        {
          "internalType": "address",
          "name": "sender",
          "type": "address"
        },
        {
          "internalType": "uint256",
          "name": "balance",
          "type": "uint256"
        },
        {
          "internalType": "uint256",
          "name": "needed",
          "type": "uint256"
        }
      ],
      "name": "ERC20InsufficientBalance",
      "type": "error"
    },
    {
      "inputs": [
        {
          "internalType": "address",
          "name": "approver",
          "type": "address"
        }
      ],
      "name": "ERC20InvalidApprover",
      "type": "error"
    },
    {
      "inputs": [
        {
          "internalType": "address",
          "name": "receiver",
          "type": "address"
        }
      ],
      "name": "ERC20InvalidReceiver",
      "type": "error"
    },
    {
      "inputs": [
        {
          "internalType": "address",
          "name": "sender",
          "type": "address"
        }
      ],
      "name": "ERC20InvalidSender",
      "type": "error"
    },
    {
      "inputs": [
        {
          "internalType": "address",
          "name": "spender",
          "type": "address"
        }
      ],
      "name": "ERC20InvalidSpender",
      "type": "error"
    },
    {
      "inputs": [
        {
          "internalType": "address",
          "name": "owner",
          "type": "address"
        }
      ],
      "name": "OwnableInvalidOwner",
      "type": "error"
    },
    {
      "inputs": [
        {
          "internalType": "address",
          "name": "account",
          "type": "address"
        }
      ],
      "name": "OwnableUnauthorizedAccount",
      "type": "error"
    },
    {
      "inputs": [],
      "name": "ReentrancyGuardReentrantCall",
      "type": "error"
    },
    {
      "anonymous": false,
      "inputs": [
        {
          "indexed": true,
          "internalType": "address",
          "name": "owner",
          "type": "address"
        },
        {
          "indexed": true,
          "internalType": "address",
          "name": "spender",
          "type": "address"
        },
        {
          "indexed": false,
          "internalType": "uint256",
          "name": "value",
          "type": "uint256"
        }
      ],
      "name": "Approval",
      "type": "event"
    },
    {
      "anonymous": false,
      "inputs": [
        {
          "indexed": true,
          "internalType": "address",
          "name": "previousOwner",
          "type": "address"
        },
        {
          "indexed": true,
          "internalType": "address",
          "name": "newOwner",
          "type": "address"
        }
      ],
      "name": "OwnershipTransferred",
      "type": "event"
    },
    {
      "anonymous": false,
      "inputs": [
        {
          "indexed": true,
          "internalType": "address",
          "name": "from",
          "type": "address"
        },
        {
          "indexed": true,
          "internalType": "address",
          "name": "to",
          "type": "address"
        },
        {
          "indexed": false,
          "internalType": "uint256",
          "name": "value",
          "type": "uint256"
        }
      ],
      "name": "Transfer",
      "type": "event"
    },
    {
      "inputs": [],
      "name": "MAX_FAUCET_AMOUNT",
      "outputs": [
        {
          "internalType": "uint256",
          "name": "",
          "type": "uint256"
        }
      ],
      "stateMutability": "view",
      "type": "function"
    },
    {
      "inputs": [],
      "name": "MAX_REWARD_AMOUNT",
      "outputs": [
        {
          "internalType": "uint256",
          "name": "",
          "type": "uint256"
        }
      ],
      "stateMutability": "view",
      "type": "function"
    },
    {
      "inputs": [],
      "name": "TOTAL_SUPPLY",
      "outputs": [
        {
          "internalType": "uint256",
          "name": "",
          "type": "uint256"
        }
      ],
      "stateMutability": "view",
      "type": "function"
    },
    {
      "inputs": [
        {
          "internalType": "address",
          "name": "owner",
          "type": "address"
        },
        {
          "internalType": "address",
          "name": "spender",
          "type": "address"
        }
      ],
      "name": "allowance",
      "outputs": [
        {
          "internalType": "uint256",
          "name": "",
          "type": "uint256"
        }
      ],
      "stateMutability": "view",
      "type": "function"
    },
    {
      "inputs": [
        {
          "internalType": "address",
          "name": "spender",
          "type": "address"
        },
        {
          "internalType": "uint256",
          "name": "value",
          "type": "uint256"
        }
      ],
      "name": "approve",
      "outputs": [
        {
          "internalType": "bool",
          "name": "",
          "type": "bool"
        }
      ],
      "stateMutability": "nonpayable",
      "type": "function"
    },
    {
      "inputs": [
        {
          "internalType": "address",
          "name": "account",
          "type": "address"
        }
      ],
      "name": "balanceOf",
      "outputs": [
        {
          "internalType": "uint256",
          "name": "",
          "type": "uint256"
        }
      ],
      "stateMutability": "view",
      "type": "function"
    },
    {
      "inputs": [],
      "name": "decimals",
      "outputs": [
        {
          "internalType": "uint8",
          "name": "",
          "type": "uint8"
        }
      ],
      "stateMutability": "view",
      "type": "function"
    },
    {
      "inputs": [
        {
          "internalType": "uint256",
          "name": "amount",
          "type": "uint256"
        }
      ],
      "name": "faucet",
      "outputs": [],
      "stateMutability": "nonpayable",
      "type": "function"
    },
    {
      "inputs": [],
      "name": "name",
      "outputs": [
        {
          "internalType": "string",
          "name": "",
          "type": "string"
        }
      ],
      "stateMutability": "view",
      "type": "function"
    },
    {
      "inputs": [],
      "name": "owner",
      "outputs": [
        {
          "internalType": "address",
          "name": "",
          "type": "address"
        }
      ],
      "stateMutability": "view",
      "type": "function"
    },
    {
      "inputs": [],
      "name": "renounceOwnership",
      "outputs": [],
      "stateMutability": "nonpayable",
      "type": "function"
    },
    {
      "inputs": [
        {
          "internalType": "address",
          "name": "_stakingContract",
          "type": "address"
        }
      ],
      "name": "setStakingContract",
      "outputs": [],
      "stateMutability": "nonpayable",
      "type": "function"
    },
    {
      "inputs": [],
      "name": "stakingContract",
      "outputs": [
        {
          "internalType": "address",
          "name": "",
          "type": "address"
        }
      ],
      "stateMutability": "view",
      "type": "function"
    },
    {
      "inputs": [],
      "name": "symbol",
      "outputs": [
        {
          "internalType": "string",
          "name": "",
          "type": "string"
        }
      ],
      "stateMutability": "view",
      "type": "function"
    },
    {
      "inputs": [],
      "name": "totalSupply",
      "outputs": [
        {
          "internalType": "uint256",
          "name": "",
          "type": "uint256"
        }
      ],
      "stateMutability": "view",
      "type": "function"
    },
    {
      "inputs": [
        {
          "internalType": "address",
          "name": "to",
          "type": "address"
        },
        {
          "internalType": "uint256",
          "name": "value",
          "type": "uint256"
        }
      ],
      "name": "transfer",
      "outputs": [
        {
          "internalType": "bool",
          "name": "",
          "type": "bool"
        }
      ],
      "stateMutability": "nonpayable",
      "type": "function"
    },
    {
      "inputs": [
        {
          "internalType": "address",
          "name": "from",
          "type": "address"
        },
        {
          "internalType": "address",
          "name": "to",
          "type": "address"
        },
        {
          "internalType": "uint256",
          "name": "value",
          "type": "uint256"
        }
      ],
      "name": "transferFrom",
      "outputs": [
        {
          "internalType": "bool",
          "name": "",
          "type": "bool"
        }
      ],
      "stateMutability": "nonpayable",
      "type": "function"
    },
    {
      "inputs": [
        {
          "internalType": "address",
          "name": "newOwner",
          "type": "address"
        }
      ],
      "name": "transferOwnership",
      "outputs": [],
      "stateMutability": "nonpayable",
      "type": "function"
    },
    {
      "inputs": [
        {
          "internalType": "address",
          "name": "to",
          "type": "address"
        },
        {
          "internalType": "uint256",
          "name": "amount",
          "type": "uint256"
        }
      ],
      "name": "transferReward",
      "outputs": [
        {
          "internalType": "bool",
          "name": "",
          "type": "bool"
        }
      ],
      "stateMutability": "nonpayable",
      "type": "function"
    }
  ],
  "bytecode": "0x60806040523480156200001157600080fd5b503360405180604001604052806007815260200166546f6b656e204160c81b81525060405180604001604052806003815260200162544b4160e81b815250816003908162000060919062000339565b5060046200006f828262000339565b5050506001600160a01b038116620000a257604051631e4fbdf760e01b8152600060048201526024015b60405180910390fd5b620000ad81620000d1565b506001600655620000cb306b033b2e3c9fd0803ce800000062000123565b6200042d565b600580546001600160a01b038381166001600160a01b0319831681179093556040519116919082907f8be0079c531659141344cd1fd0a4f28419497f9722a3daafe3b4186f6b6457e090600090a35050565b6001600160a01b0382166200014f5760405163ec442f0560e01b81526000600482015260240162000099565b6200015d6000838362000161565b5050565b6001600160a01b0383166200019057806002600082825462000184919062000405565b90915550620002049050565b6001600160a01b03831660009081526020819052604090205481811015620001e55760405163391434e360e21b81526001600160a01b0385166004820152602481018290526044810183905260640162000099565b6001600160a01b03841660009081526020819052604090209082900390555b6001600160a01b038216620002225760028054829003905562000241565b6001600160a01b03821660009081526020819052604090208054820190555b816001600160a01b0316836001600160a01b03167fddf252ad1be2c89b69c2b068fc378daa952ba7f163c4a11628f55a4df523b3ef836040516200028791815260200190565b60405180910390a3505050565b634e487b7160e01b600052604160045260246000fd5b600181811c90821680620002bf57607f821691505b602082108103620002e057634e487b7160e01b600052602260045260246000fd5b50919050565b601f8211156200033457600081815260208120601f850160051c810160208610156200030f5750805b601f850160051c820191505b8181101562000330578281556001016200031b565b5050505b505050565b81516001600160401b0381111562000355576200035562000294565b6200036d81620003668454620002aa565b84620002e6565b602080601f831160018114620003a557600084156200038c5750858301515b600019600386901b1c1916600185901b17855562000330565b600085815260208120601f198616915b82811015620003d657888601518255948401946001909101908401620003b5565b5085821015620003f55787850151600019600388901b60f8161c191681555b5050505050600190811b01905550565b808201808211156200042757634e487b7160e01b600052601160045260246000fd5b92915050565b610bd4806200043d6000396000f3fe608060405234801561001057600080fd5b50600436106101215760003560e01c8063715018a6116100ad578063a04f6b4b11610071578063a04f6b4b14610259578063a9059cbb1461026a578063dd62ed3e1461027d578063ee99205c146102b6578063f2fde38b146102c957600080fd5b8063715018a6146101fe5780638da5cb5b14610206578063902d55a51461022b57806395d89b411461023e5780639dd373b91461024657600080fd5b806323b872dd116100f457806323b872dd1461018c578063313ce5671461019f57806357915897146101ae5780636376d2d8146101c357806370a08231146101d557600080fd5b806306fdde0314610126578063095ea7b31461014457806315490ebb1461016757806318160ddd1461017a575b600080fd5b61012e6102dc565b60405161013b91906109bd565b60405180910390f35b610157610152366004610a27565b61036e565b604051901515815260200161013b565b610157610175366004610a27565b610388565b6002545b60405190815260200161013b565b61015761019a366004610a51565b6104b3565b6040516012815260200161013b565b6101c16101bc366004610a8d565b6104d7565b005b61017e6a0422ca8b0a00a42500000081565b61017e6101e3366004610aa6565b6001600160a01b031660009081526020819052604090205490565b6101c1610590565b6005546001600160a01b03165b6040516001600160a01b03909116815260200161013b565b61017e6b033b2e3c9fd0803ce800000081565b61012e6105a4565b6101c1610254366004610aa6565b6105b3565b61017e69d3c21bcecceda100000081565b610157610278366004610a27565b6105dd565b61017e61028b366004610ac8565b6001600160a01b03918216600090815260016020908152604080832093909416825291909152205490565b600754610213906001600160a01b031681565b6101c16102d7366004610aa6565b6105eb565b6060600380546102eb90610afb565b80601f016020809104026020016040519081016040528092919081815260200182805461031790610afb565b80156103645780601f1061033957610100808354040283529160200191610364565b820191906000526020600020905b81548152906001019060200180831161034757829003601f168201915b5050505050905090565b60003361037c818585610626565b60019150505b92915050565b6000610392610638565b69d3c21bcecceda10000008211156104015760405162461bcd60e51b815260206004820152602760248201527f5374616b696e673a20416d6f756e742065786365656473206d6178696d756d20604482015266185b1b1bddd95960ca1b60648201526084015b60405180910390fd5b306000908152602081905260409020548211156104305760405162461bcd60e51b81526004016103f890610b35565b6007546001600160a01b0316331461049b5760405162461bcd60e51b815260206004820152602860248201527f4f6e6c79207374616b696e6720636f6e74726163742063616e207472616e7366604482015267195c94995dd85c9960c21b60648201526084016103f8565b6104a6308484610662565b5060016103826001600655565b6000336104c18582856106c1565b6104cc858585610662565b506001949350505050565b6104df610638565b6a0422ca8b0a00a4250000008111156105495760405162461bcd60e51b815260206004820152602660248201527f4661756365743a20416d6f756e742065786365656473206d6178696d756d20616044820152651b1b1bddd95960d21b60648201526084016103f8565b306000908152602081905260409020548111156105785760405162461bcd60e51b81526004016103f890610b35565b610583303383610662565b61058d6001600655565b50565b61059861073f565b6105a2600061076c565b565b6060600480546102eb90610afb565b6105bb61073f565b600780546001600160a01b0319166001600160a01b0392909216919091179055565b60003361037c818585610662565b6105f361073f565b6001600160a01b03811661061d57604051631e4fbdf760e01b8152600060048201526024016103f8565b61058d8161076c565b61063383838360016107be565b505050565b60026006540361065b57604051633ee5aeb560e01b815260040160405180910390fd5b6002600655565b6001600160a01b03831661068c57604051634b637e8f60e11b8152600060048201526024016103f8565b6001600160a01b0382166106b65760405163ec442f0560e01b8152600060048201526024016103f8565b610633838383610893565b6001600160a01b038381166000908152600160209081526040808320938616835292905220546000198114610739578181101561072a57604051637dc7a0d960e11b81526001600160a01b038416600482015260248101829052604481018390526064016103f8565b610739848484840360006107be565b50505050565b6005546001600160a01b031633146105a25760405163118cdaa760e01b81523360048201526024016103f8565b600580546001600160a01b038381166001600160a01b0319831681179093556040519116919082907f8be0079c531659141344cd1fd0a4f28419497f9722a3daafe3b4186f6b6457e090600090a35050565b6001600160a01b0384166107e85760405163e602df0560e01b8152600060048201526024016103f8565b6001600160a01b03831661081257604051634a1406b160e11b8152600060048201526024016103f8565b6001600160a01b038085166000908152600160209081526040808320938716835292905220829055801561073957826001600160a01b0316846001600160a01b03167f8c5be1e5ebec7d5bd14f71427d1e84f3dd0314c0f7b2291e5b200ac8c7c3b9258460405161088591815260200190565b60405180910390a350505050565b6001600160a01b0383166108be5780600260008282546108b39190610b7d565b909155506109309050565b6001600160a01b038316600090815260208190526040902054818110156109115760405163391434e360e21b81526001600160a01b038516600482015260248101829052604481018390526064016103f8565b6001600160a01b03841660009081526020819052604090209082900390555b6001600160a01b03821661094c5760028054829003905561096b565b6001600160a01b03821660009081526020819052604090208054820190555b816001600160a01b0316836001600160a01b03167fddf252ad1be2c89b69c2b068fc378daa952ba7f163c4a11628f55a4df523b3ef836040516109b091815260200190565b60405180910390a3505050565b600060208083528351808285015260005b818110156109ea578581018301518582016040015282016109ce565b506000604082860101526040601f19601f8301168501019250505092915050565b80356001600160a01b0381168114610a2257600080fd5b919050565b60008060408385031215610a3a57600080fd5b610a4383610a0b565b946020939093013593505050565b600080600060608486031215610a6657600080fd5b610a6f84610a0b565b9250610a7d60208501610a0b565b9150604084013590509250925092565b600060208284031215610a9f57600080fd5b5035919050565b600060208284031215610ab857600080fd5b610ac182610a0b565b9392505050565b60008060408385031215610adb57600080fd5b610ae483610a0b565b9150610af260208401610a0b565b90509250929050565b600181811c90821680610b0f57607f821691505b602082108103610b2f57634e487b7160e01b600052602260045260246000fd5b50919050565b60208082526028908201527f4661756365743a20496e73756666696369656e742062616c616e636520696e2060408201526718dbdb9d1c9858dd60c21b606082015260800190565b8082018082111561038257634e487b7160e01b600052601160045260246000fdfea26469706673582212203ae3e77a577b5461c108b187c37d88e1b1bc9d1af7b3fcfe30c3758ba67100c064736f6c63430008140033",
  "linkReferences": {},
  "deployedLinkReferences": {}
}