{
  "_format": "hh-sol-artifact-1",
  "contractName": "UpgradeableTokenA",
  "sourceName": "contracts/TokenA.sol",
  "abi": [
    {
      "inputs": [],
      "stateMutability": "nonpayable",
      "type": "constructor"
    },
    {
      "inputs": [
        {
          "internalType": "address",
          "name": "target",
          "type": "address"
        }
      ],
      "name": "AddressEmptyCode",
      "type": "error"
    },
    {
      "inputs": [
        {
          "internalType": "address",
          "name": "implementation",
          "type": "address"
        }
      ],
      "name": "ERC1967InvalidImplementation",
      "type": "error"
    },
    {
      "inputs": [],
      "name": "ERC1967NonPayable",
      "type": "error"
    },
    {
      "inputs": [
        {
          "internalType": "address",
          "name": "spender",
          "type": "address"
        },
        {
          "internalType": "uint256",
          "name": "allowance",
          "type": "uint256"
        },
        {
          "internalType": "uint256",
          "name": "needed",
          "type": "uint256"
        }
      ],
      "name": "ERC20InsufficientAllowance",
      "type": "error"
    },
    {
      "inputs": [
        {
          "internalType": "address",
          "name": "sender",
          "type": "address"
        },
        {
          "internalType": "uint256",
          "name": "balance",
          "type": "uint256"
        },
        {
          "internalType": "uint256",
          "name": "needed",
          "type": "uint256"
        }
      ],
      "name": "ERC20InsufficientBalance",
      "type": "error"
    },
    {
      "inputs": [
        {
          "internalType": "address",
          "name": "approver",
          "type": "address"
        }
      ],
      "name": "ERC20InvalidApprover",
      "type": "error"
    },
    {
      "inputs": [
        {
          "internalType": "address",
          "name": "receiver",
          "type": "address"
        }
      ],
      "name": "ERC20InvalidReceiver",
      "type": "error"
    },
    {
      "inputs": [
        {
          "internalType": "address",
          "name": "sender",
          "type": "address"
        }
      ],
      "name": "ERC20InvalidSender",
      "type": "error"
    },
    {
      "inputs": [
        {
          "internalType": "address",
          "name": "spender",
          "type": "address"
        }
      ],
      "name": "ERC20InvalidSpender",
      "type": "error"
    },
    {
      "inputs": [],
      "name": "FailedInnerCall",
      "type": "error"
    },
    {
      "inputs": [],
      "name": "InvalidInitialization",
      "type": "error"
    },
    {
      "inputs": [],
      "name": "NotInitializing",
      "type": "error"
    },
    {
      "inputs": [
        {
          "internalType": "address",
          "name": "owner",
          "type": "address"
        }
      ],
      "name": "OwnableInvalidOwner",
      "type": "error"
    },
    {
      "inputs": [
        {
          "internalType": "address",
          "name": "account",
          "type": "address"
        }
      ],
      "name": "OwnableUnauthorizedAccount",
      "type": "error"
    },
    {
      "inputs": [],
      "name": "UUPSUnauthorizedCallContext",
      "type": "error"
    },
    {
      "inputs": [
        {
          "internalType": "bytes32",
          "name": "slot",
          "type": "bytes32"
        }
      ],
      "name": "UUPSUnsupportedProxiableUUID",
      "type": "error"
    },
    {
      "anonymous": false,
      "inputs": [
        {
          "indexed": true,
          "internalType": "address",
          "name": "owner",
          "type": "address"
        },
        {
          "indexed": true,
          "internalType": "address",
          "name": "spender",
          "type": "address"
        },
        {
          "indexed": false,
          "internalType": "uint256",
          "name": "value",
          "type": "uint256"
        }
      ],
      "name": "Approval",
      "type": "event"
    },
    {
      "anonymous": false,
      "inputs": [
        {
          "indexed": false,
          "internalType": "uint64",
          "name": "version",
          "type": "uint64"
        }
      ],
      "name": "Initialized",
      "type": "event"
    },
    {
      "anonymous": false,
      "inputs": [
        {
          "indexed": true,
          "internalType": "address",
          "name": "previousOwner",
          "type": "address"
        },
        {
          "indexed": true,
          "internalType": "address",
          "name": "newOwner",
          "type": "address"
        }
      ],
      "name": "OwnershipTransferred",
      "type": "event"
    },
    {
      "anonymous": false,
      "inputs": [
        {
          "indexed": true,
          "internalType": "address",
          "name": "from",
          "type": "address"
        },
        {
          "indexed": true,
          "internalType": "address",
          "name": "to",
          "type": "address"
        },
        {
          "indexed": false,
          "internalType": "uint256",
          "name": "value",
          "type": "uint256"
        }
      ],
      "name": "Transfer",
      "type": "event"
    },
    {
      "anonymous": false,
      "inputs": [
        {
          "indexed": true,
          "internalType": "address",
          "name": "implementation",
          "type": "address"
        }
      ],
      "name": "Upgraded",
      "type": "event"
    },
    {
      "inputs": [],
      "name": "MAX_FAUCET_AMOUNT",
      "outputs": [
        {
          "internalType": "uint256",
          "name": "",
          "type": "uint256"
        }
      ],
      "stateMutability": "view",
      "type": "function"
    },
    {
      "inputs": [],
      "name": "MAX_REWARD_AMOUNT",
      "outputs": [
        {
          "internalType": "uint256",
          "name": "",
          "type": "uint256"
        }
      ],
      "stateMutability": "view",
      "type": "function"
    },
    {
      "inputs": [],
      "name": "TOTAL_SUPPLY",
      "outputs": [
        {
          "internalType": "uint256",
          "name": "",
          "type": "uint256"
        }
      ],
      "stateMutability": "view",
      "type": "function"
    },
    {
      "inputs": [],
      "name": "UPGRADE_INTERFACE_VERSION",
      "outputs": [
        {
          "internalType": "string",
          "name": "",
          "type": "string"
        }
      ],
      "stateMutability": "view",
      "type": "function"
    },
    {
      "inputs": [
        {
          "internalType": "address",
          "name": "owner",
          "type": "address"
        },
        {
          "internalType": "address",
          "name": "spender",
          "type": "address"
        }
      ],
      "name": "allowance",
      "outputs": [
        {
          "internalType": "uint256",
          "name": "",
          "type": "uint256"
        }
      ],
      "stateMutability": "view",
      "type": "function"
    },
    {
      "inputs": [
        {
          "internalType": "address",
          "name": "spender",
          "type": "address"
        },
        {
          "internalType": "uint256",
          "name": "value",
          "type": "uint256"
        }
      ],
      "name": "approve",
      "outputs": [
        {
          "internalType": "bool",
          "name": "",
          "type": "bool"
        }
      ],
      "stateMutability": "nonpayable",
      "type": "function"
    },
    {
      "inputs": [
        {
          "internalType": "address",
          "name": "account",
          "type": "address"
        }
      ],
      "name": "balanceOf",
      "outputs": [
        {
          "internalType": "uint256",
          "name": "",
          "type": "uint256"
        }
      ],
      "stateMutability": "view",
      "type": "function"
    },
    {
      "inputs": [],
      "name": "decimals",
      "outputs": [
        {
          "internalType": "uint8",
          "name": "",
          "type": "uint8"
        }
      ],
      "stateMutability": "view",
      "type": "function"
    },
    {
      "inputs": [
        {
          "internalType": "uint256",
          "name": "amount",
          "type": "uint256"
        }
      ],
      "name": "faucet",
      "outputs": [],
      "stateMutability": "nonpayable",
      "type": "function"
    },
    {
      "inputs": [],
      "name": "initialize",
      "outputs": [],
      "stateMutability": "nonpayable",
      "type": "function"
    },
    {
      "inputs": [],
      "name": "name",
      "outputs": [
        {
          "internalType": "string",
          "name": "",
          "type": "string"
        }
      ],
      "stateMutability": "view",
      "type": "function"
    },
    {
      "inputs": [],
      "name": "owner",
      "outputs": [
        {
          "internalType": "address",
          "name": "",
          "type": "address"
        }
      ],
      "stateMutability": "view",
      "type": "function"
    },
    {
      "inputs": [],
      "name": "proxiableUUID",
      "outputs": [
        {
          "internalType": "bytes32",
          "name": "",
          "type": "bytes32"
        }
      ],
      "stateMutability": "view",
      "type": "function"
    },
    {
      "inputs": [],
      "name": "renounceOwnership",
      "outputs": [],
      "stateMutability": "nonpayable",
      "type": "function"
    },
    {
      "inputs": [
        {
          "internalType": "address",
          "name": "_stakingContract",
          "type": "address"
        }
      ],
      "name": "setStakingContract",
      "outputs": [],
      "stateMutability": "nonpayable",
      "type": "function"
    },
    {
      "inputs": [],
      "name": "stakingContract",
      "outputs": [
        {
          "internalType": "address",
          "name": "",
          "type": "address"
        }
      ],
      "stateMutability": "view",
      "type": "function"
    },
    {
      "inputs": [],
      "name": "symbol",
      "outputs": [
        {
          "internalType": "string",
          "name": "",
          "type": "string"
        }
      ],
      "stateMutability": "view",
      "type": "function"
    },
    {
      "inputs": [],
      "name": "totalSupply",
      "outputs": [
        {
          "internalType": "uint256",
          "name": "",
          "type": "uint256"
        }
      ],
      "stateMutability": "view",
      "type": "function"
    },
    {
      "inputs": [
        {
          "internalType": "address",
          "name": "to",
          "type": "address"
        },
        {
          "internalType": "uint256",
          "name": "value",
          "type": "uint256"
        }
      ],
      "name": "transfer",
      "outputs": [
        {
          "internalType": "bool",
          "name": "",
          "type": "bool"
        }
      ],
      "stateMutability": "nonpayable",
      "type": "function"
    },
    {
      "inputs": [
        {
          "internalType": "address",
          "name": "from",
          "type": "address"
        },
        {
          "internalType": "address",
          "name": "to",
          "type": "address"
        },
        {
          "internalType": "uint256",
          "name": "value",
          "type": "uint256"
        }
      ],
      "name": "transferFrom",
      "outputs": [
        {
          "internalType": "bool",
          "name": "",
          "type": "bool"
        }
      ],
      "stateMutability": "nonpayable",
      "type": "function"
    },
    {
      "inputs": [
        {
          "internalType": "address",
          "name": "newOwner",
          "type": "address"
        }
      ],
      "name": "transferOwnership",
      "outputs": [],
      "stateMutability": "nonpayable",
      "type": "function"
    },
    {
      "inputs": [
        {
          "internalType": "address",
          "name": "to",
          "type": "address"
        },
        {
          "internalType": "uint256",
          "name": "amount",
          "type": "uint256"
        }
      ],
      "name": "transferReward",
      "outputs": [
        {
          "internalType": "bool",
          "name": "",
          "type": "bool"
        }
      ],
      "stateMutability": "nonpayable",
      "type": "function"
    },
    {
      "inputs": [
        {
          "internalType": "address",
          "name": "newImplementation",
          "type": "address"
        },
        {
          "internalType": "bytes",
          "name": "data",
          "type": "bytes"
        }
      ],
      "name": "upgradeToAndCall",
      "outputs": [],
      "stateMutability": "payable",
      "type": "function"
    }
  ],
  "bytecode": "0x60a06040523060805234801561001457600080fd5b5061001d610022565b6100d4565b7ff0c57e16840df040f15088dc2f81fe391c3923bec73e23a9662efc9c229c6a00805468010000000000000000900460ff16156100725760405163f92ee8a960e01b815260040160405180910390fd5b80546001600160401b03908116146100d15780546001600160401b0319166001600160401b0390811782556040519081527fc7f505b2f371ae2175ee4913f4499e1f2633a7b5936321eed1cdaeb6115181d29060200160405180910390a15b50565b6080516116c96100fd60003960008181610ae401528181610b0d0152610c4e01526116c96000f3fe6080604052600436106101405760003560e01c8063715018a6116100b6578063a04f6b4b1161006f578063a04f6b4b14610393578063a9059cbb146103b1578063ad3cb1cc146103d1578063dd62ed3e14610402578063ee99205c14610422578063f2fde38b1461044257600080fd5b8063715018a6146102c35780638129fc1c146102d85780638da5cb5b146102ed578063902d55a51461033e57806395d89b411461035e5780639dd373b91461037357600080fd5b8063313ce56711610108578063313ce5671461021e5780634f1ef2861461023a57806352d1902d1461024f57806357915897146102645780636376d2d81461028457806370a08231146102a357600080fd5b806306fdde0314610145578063095ea7b31461017057806315490ebb146101a057806318160ddd146101c057806323b872dd146101fe575b600080fd5b34801561015157600080fd5b5061015a610462565b6040516101679190611279565b60405180910390f35b34801561017c57600080fd5b5061019061018b3660046112c8565b610525565b6040519015158152602001610167565b3480156101ac57600080fd5b506101906101bb3660046112c8565b61053f565b3480156101cc57600080fd5b507f52c63247e1f47db19d5ce0460030c497f067ca4cebf71ba98eeadabe20bace02545b604051908152602001610167565b34801561020a57600080fd5b506101906102193660046112f2565b610657565b34801561022a57600080fd5b5060405160128152602001610167565b61024d610248366004611344565b61067d565b005b34801561025b57600080fd5b506101f061069c565b34801561027057600080fd5b5061024d61027f366004611406565b6106b9565b34801561029057600080fd5b506101f06a0422ca8b0a00a42500000081565b3480156102af57600080fd5b506101f06102be36600461141f565b610759565b3480156102cf57600080fd5b5061024d610781565b3480156102e457600080fd5b5061024d610795565b3480156102f957600080fd5b507f9016d09d72d40fdae2fd8ceac6b6234c7706214fd39c1cd1e609a0528c199300546001600160a01b03165b6040516001600160a01b039091168152602001610167565b34801561034a57600080fd5b506101f06b033b2e3c9fd0803ce800000081565b34801561036a57600080fd5b5061015a610906565b34801561037f57600080fd5b5061024d61038e36600461141f565b610945565b34801561039f57600080fd5b506101f069d3c21bcecceda100000081565b3480156103bd57600080fd5b506101906103cc3660046112c8565b61096f565b3480156103dd57600080fd5b5061015a604051806040016040528060058152602001640352e302e360dc1b81525081565b34801561040e57600080fd5b506101f061041d36600461143a565b61097d565b34801561042e57600080fd5b50600054610326906001600160a01b031681565b34801561044e57600080fd5b5061024d61045d36600461141f565b6109c7565b7f52c63247e1f47db19d5ce0460030c497f067ca4cebf71ba98eeadabe20bace038054606091600080516020611654833981519152916104a19061146d565b80601f01602080910402602001604051908101604052809291908181526020018280546104cd9061146d565b801561051a5780601f106104ef5761010080835404028352916020019161051a565b820191906000526020600020905b8154815290600101906020018083116104fd57829003601f168201915b505050505091505090565b600033610533818585610a02565b60019150505b92915050565b600069d3c21bcecceda10000008211156105b05760405162461bcd60e51b815260206004820152602760248201527f5374616b696e673a20416d6f756e742065786365656473206d6178696d756d20604482015266185b1b1bddd95960ca1b60648201526084015b60405180910390fd5b816105ba30610759565b10156105d85760405162461bcd60e51b81526004016105a7906114a7565b6000546001600160a01b031633146106435760405162461bcd60e51b815260206004820152602860248201527f4f6e6c79207374616b696e6720636f6e74726163742063616e207472616e7366604482015267195c94995dd85c9960c21b60648201526084016105a7565b61064e308484610a14565b50600192915050565b600033610665858285610a73565b610670858585610a14565b60019150505b9392505050565b610685610ad9565b61068e82610b7e565b6106988282610b86565b5050565b60006106a6610c43565b5060008051602061167483398151915290565b6a0422ca8b0a00a4250000008111156107235760405162461bcd60e51b815260206004820152602660248201527f4661756365743a20416d6f756e742065786365656473206d6178696d756d20616044820152651b1b1bddd95960d21b60648201526084016105a7565b8061072d30610759565b101561074b5760405162461bcd60e51b81526004016105a7906114a7565b610756303383610a14565b50565b6001600160a01b03166000908152600080516020611654833981519152602052604090205490565b610789610c8c565b6107936000610ce7565b565b7ff0c57e16840df040f15088dc2f81fe391c3923bec73e23a9662efc9c229c6a008054600160401b810460ff16159067ffffffffffffffff166000811580156107db5750825b905060008267ffffffffffffffff1660011480156107f85750303b155b905081158015610806575080155b156108245760405163f92ee8a960e01b815260040160405180910390fd5b845467ffffffffffffffff19166001178555831561084e57845460ff60401b1916600160401b1785555b61089260405180604001604052806007815260200166546f6b656e204160c81b81525060405180604001604052806003815260200162544b4160e81b815250610d58565b61089b33610d6a565b6108a3610d7b565b6108b9306b033b2e3c9fd0803ce8000000610d83565b83156108ff57845460ff60401b19168555604051600181527fc7f505b2f371ae2175ee4913f4499e1f2633a7b5936321eed1cdaeb6115181d29060200160405180910390a15b5050505050565b7f52c63247e1f47db19d5ce0460030c497f067ca4cebf71ba98eeadabe20bace048054606091600080516020611654833981519152916104a19061146d565b61094d610c8c565b600080546001600160a01b0319166001600160a01b0392909216919091179055565b600033610533818585610a14565b6001600160a01b0391821660009081527f52c63247e1f47db19d5ce0460030c497f067ca4cebf71ba98eeadabe20bace016020908152604080832093909416825291909152205490565b6109cf610c8c565b6001600160a01b0381166109f957604051631e4fbdf760e01b8152600060048201526024016105a7565b61075681610ce7565b610a0f8383836001610db9565b505050565b6001600160a01b038316610a3e57604051634b637e8f60e11b8152600060048201526024016105a7565b6001600160a01b038216610a685760405163ec442f0560e01b8152600060048201526024016105a7565b610a0f838383610ea0565b6000610a7f848461097d565b90506000198114610ad35781811015610ac457604051637dc7a0d960e11b81526001600160a01b038416600482015260248101829052604481018390526064016105a7565b610ad384848484036000610db9565b50505050565b306001600160a01b037f0000000000000000000000000000000000000000000000000000000000000000161480610b6057507f00000000000000000000000000000000000000000000000000000000000000006001600160a01b0316610b54600080516020611674833981519152546001600160a01b031690565b6001600160a01b031614155b156107935760405163703e46dd60e11b815260040160405180910390fd5b610756610c8c565b816001600160a01b03166352d1902d6040518163ffffffff1660e01b8152600401602060405180830381865afa925050508015610be0575060408051601f3d908101601f19168201909252610bdd918101906114ef565b60015b610c0857604051634c9c8ce360e01b81526001600160a01b03831660048201526024016105a7565b6000805160206116748339815191528114610c3957604051632a87526960e21b8152600481018290526024016105a7565b610a0f8383610fde565b306001600160a01b037f000000000000000000000000000000000000000000000000000000000000000016146107935760405163703e46dd60e11b815260040160405180910390fd5b33610cbe7f9016d09d72d40fdae2fd8ceac6b6234c7706214fd39c1cd1e609a0528c199300546001600160a01b031690565b6001600160a01b0316146107935760405163118cdaa760e01b81523360048201526024016105a7565b7f9016d09d72d40fdae2fd8ceac6b6234c7706214fd39c1cd1e609a0528c19930080546001600160a01b031981166001600160a01b03848116918217845560405192169182907f8be0079c531659141344cd1fd0a4f28419497f9722a3daafe3b4186f6b6457e090600090a3505050565b610d60611034565b610698828261107d565b610d72611034565b610756816110ce565b610793611034565b6001600160a01b038216610dad5760405163ec442f0560e01b8152600060048201526024016105a7565b61069860008383610ea0565b6000805160206116548339815191526001600160a01b038516610df25760405163e602df0560e01b8152600060048201526024016105a7565b6001600160a01b038416610e1c57604051634a1406b160e11b8152600060048201526024016105a7565b6001600160a01b038086166000908152600183016020908152604080832093881683529290522083905581156108ff57836001600160a01b0316856001600160a01b03167f8c5be1e5ebec7d5bd14f71427d1e84f3dd0314c0f7b2291e5b200ac8c7c3b92585604051610e9191815260200190565b60405180910390a35050505050565b6000805160206116548339815191526001600160a01b038416610edc5781816002016000828254610ed19190611508565b90915550610f4e9050565b6001600160a01b03841660009081526020829052604090205482811015610f2f5760405163391434e360e21b81526001600160a01b038616600482015260248101829052604481018490526064016105a7565b6001600160a01b03851660009081526020839052604090209083900390555b6001600160a01b038316610f6c576002810180548390039055610f8b565b6001600160a01b03831660009081526020829052604090208054830190555b826001600160a01b0316846001600160a01b03167fddf252ad1be2c89b69c2b068fc378daa952ba7f163c4a11628f55a4df523b3ef84604051610fd091815260200190565b60405180910390a350505050565b610fe7826110d6565b6040516001600160a01b038316907fbc7cd75a20ee27fd9adebab32041f755214dbc6bffa90cc0225b39da2e5c2d3b90600090a280511561102c57610a0f828261113b565b6106986111b1565b7ff0c57e16840df040f15088dc2f81fe391c3923bec73e23a9662efc9c229c6a0054600160401b900460ff1661079357604051631afcd79f60e31b815260040160405180910390fd5b611085611034565b6000805160206116548339815191527f52c63247e1f47db19d5ce0460030c497f067ca4cebf71ba98eeadabe20bace036110bf8482611577565b5060048101610ad38382611577565b6109cf611034565b806001600160a01b03163b60000361110c57604051634c9c8ce360e01b81526001600160a01b03821660048201526024016105a7565b60008051602061167483398151915280546001600160a01b0319166001600160a01b0392909216919091179055565b6060600080846001600160a01b0316846040516111589190611637565b600060405180830381855af49150503d8060008114611193576040519150601f19603f3d011682016040523d82523d6000602084013e611198565b606091505b50915091506111a88583836111d0565b95945050505050565b34156107935760405163b398979f60e01b815260040160405180910390fd5b6060826111e5576111e08261122c565b610676565b81511580156111fc57506001600160a01b0384163b155b1561122557604051639996b31560e01b81526001600160a01b03851660048201526024016105a7565b5080610676565b80511561123c5780518082602001fd5b604051630a12f52160e11b815260040160405180910390fd5b60005b83811015611270578181015183820152602001611258565b50506000910152565b6020815260008251806020840152611298816040850160208701611255565b601f01601f19169190910160400192915050565b80356001600160a01b03811681146112c357600080fd5b919050565b600080604083850312156112db57600080fd5b6112e4836112ac565b946020939093013593505050565b60008060006060848603121561130757600080fd5b611310846112ac565b925061131e602085016112ac565b9150604084013590509250925092565b634e487b7160e01b600052604160045260246000fd5b6000806040838503121561135757600080fd5b611360836112ac565b9150602083013567ffffffffffffffff8082111561137d57600080fd5b818501915085601f83011261139157600080fd5b8135818111156113a3576113a361132e565b604051601f8201601f19908116603f011681019083821181831017156113cb576113cb61132e565b816040528281528860208487010111156113e457600080fd5b8260208601602083013760006020848301015280955050505050509250929050565b60006020828403121561141857600080fd5b5035919050565b60006020828403121561143157600080fd5b610676826112ac565b6000806040838503121561144d57600080fd5b611456836112ac565b9150611464602084016112ac565b90509250929050565b600181811c9082168061148157607f821691505b6020821081036114a157634e487b7160e01b600052602260045260246000fd5b50919050565b60208082526028908201527f4661756365743a20496e73756666696369656e742062616c616e636520696e2060408201526718dbdb9d1c9858dd60c21b606082015260800190565b60006020828403121561150157600080fd5b5051919050565b8082018082111561053957634e487b7160e01b600052601160045260246000fd5b601f821115610a0f57600081815260208120601f850160051c810160208610156115505750805b601f850160051c820191505b8181101561156f5782815560010161155c565b505050505050565b815167ffffffffffffffff8111156115915761159161132e565b6115a58161159f845461146d565b84611529565b602080601f8311600181146115da57600084156115c25750858301515b600019600386901b1c1916600185901b17855561156f565b600085815260208120601f198616915b82811015611609578886015182559484019460019091019084016115ea565b50858210156116275787850151600019600388901b60f8161c191681555b5050505050600190811b01905550565b60008251611649818460208701611255565b919091019291505056fe52c63247e1f47db19d5ce0460030c497f067ca4cebf71ba98eeadabe20bace00360894a13ba1a3210667c828492db98dca3e2076cc3735a920a3ca505d382bbca2646970667358221220eca4bd7c8b2134e03812821fe416081d9c9ced7eee4e88c42b77ed926b1a7b8764736f6c63430008140033",
  "linkReferences": {},
  "deployedLinkReferences": {}
}