{
  "_format": "hh-sol-artifact-1",
  "contractName": "Staking",
  "sourceName": "contracts/Staking.sol",
  "abi": [
    {
      "inputs": [
        {
          "internalType": "address",
          "name": "_tokenA",
          "type": "address"
        },
        {
          "internalType": "address",
          "name": "_nftB",
          "type": "address"
        }
      ],
      "stateMutability": "nonpayable",
      "type": "constructor"
    },
    {
      "inputs": [],
      "name": "MathOverflowedMulDiv",
      "type": "error"
    },
    {
      "inputs": [
        {
          "internalType": "address",
          "name": "owner",
          "type": "address"
        }
      ],
      "name": "OwnableInvalidOwner",
      "type": "error"
    },
    {
      "inputs": [
        {
          "internalType": "address",
          "name": "account",
          "type": "address"
        }
      ],
      "name": "OwnableUnauthorizedAccount",
      "type": "error"
    },
    {
      "anonymous": false,
      "inputs": [
        {
          "indexed": false,
          "internalType": "uint256",
          "name": "newBaseAPR",
          "type": "uint256"
        }
      ],
      "name": "APRUpdated",
      "type": "event"
    },
    {
      "anonymous": false,
      "inputs": [
        {
          "indexed": true,
          "internalType": "address",
          "name": "user",
          "type": "address"
        },
        {
          "indexed": false,
          "internalType": "uint256",
          "name": "amount",
          "type": "uint256"
        }
      ],
      "name": "Deposited",
      "type": "event"
    },
    {
      "anonymous": false,
      "inputs": [
        {
          "indexed": true,
          "internalType": "address",
          "name": "user",
          "type": "address"
        },
        {
          "indexed": false,
          "internalType": "uint256",
          "name": "tokenId",
          "type": "uint256"
        }
      ],
      "name": "NFTDeposited",
      "type": "event"
    },
    {
      "anonymous": false,
      "inputs": [
        {
          "indexed": true,
          "internalType": "address",
          "name": "user",
          "type": "address"
        },
        {
          "indexed": false,
          "internalType": "uint256",
          "name": "tokenId",
          "type": "uint256"
        }
      ],
      "name": "NFTMinted",
      "type": "event"
    },
    {
      "anonymous": false,
      "inputs": [
        {
          "indexed": true,
          "internalType": "address",
          "name": "user",
          "type": "address"
        },
        {
          "indexed": false,
          "internalType": "uint256",
          "name": "tokenId",
          "type": "uint256"
        }
      ],
      "name": "NFTWithdrawn",
      "type": "event"
    },
    {
      "anonymous": false,
      "inputs": [
        {
          "indexed": true,
          "internalType": "address",
          "name": "previousOwner",
          "type": "address"
        },
        {
          "indexed": true,
          "internalType": "address",
          "name": "newOwner",
          "type": "address"
        }
      ],
      "name": "OwnershipTransferred",
      "type": "event"
    },
    {
      "anonymous": false,
      "inputs": [
        {
          "indexed": true,
          "internalType": "address",
          "name": "user",
          "type": "address"
        },
        {
          "indexed": false,
          "internalType": "uint256",
          "name": "reward",
          "type": "uint256"
        }
      ],
      "name": "RewardClaimed",
      "type": "event"
    },
    {
      "anonymous": false,
      "inputs": [
        {
          "indexed": true,
          "internalType": "address",
          "name": "user",
          "type": "address"
        },
        {
          "indexed": false,
          "internalType": "uint256",
          "name": "amount",
          "type": "uint256"
        },
        {
          "indexed": false,
          "internalType": "uint256",
          "name": "reward",
          "type": "uint256"
        }
      ],
      "name": "Withdrawn",
      "type": "event"
    },
    {
      "inputs": [],
      "name": "LOCK_PERIOD",
      "outputs": [
        {
          "internalType": "uint256",
          "name": "",
          "type": "uint256"
        }
      ],
      "stateMutability": "view",
      "type": "function"
    },
    {
      "inputs": [],
      "name": "NFT_THRESHOLD",
      "outputs": [
        {
          "internalType": "uint256",
          "name": "",
          "type": "uint256"
        }
      ],
      "stateMutability": "view",
      "type": "function"
    },
    {
      "inputs": [],
      "name": "baseAPR",
      "outputs": [
        {
          "internalType": "uint256",
          "name": "",
          "type": "uint256"
        }
      ],
      "stateMutability": "view",
      "type": "function"
    },
    {
      "inputs": [
        {
          "internalType": "address",
          "name": "user",
          "type": "address"
        }
      ],
      "name": "calculateReward",
      "outputs": [
        {
          "internalType": "uint256",
          "name": "",
          "type": "uint256"
        }
      ],
      "stateMutability": "view",
      "type": "function"
    },
    {
      "inputs": [],
      "name": "claimReward",
      "outputs": [],
      "stateMutability": "nonpayable",
      "type": "function"
    },
    {
      "inputs": [
        {
          "internalType": "uint256",
          "name": "amount",
          "type": "uint256"
        }
      ],
      "name": "deposit",
      "outputs": [],
      "stateMutability": "nonpayable",
      "type": "function"
    },
    {
      "inputs": [
        {
          "internalType": "address",
          "name": "user",
          "type": "address"
        }
      ],
      "name": "getCurrentAPR",
      "outputs": [
        {
          "internalType": "uint256",
          "name": "",
          "type": "uint256"
        }
      ],
      "stateMutability": "view",
      "type": "function"
    },
    {
      "inputs": [
        {
          "internalType": "address",
          "name": "user",
          "type": "address"
        }
      ],
      "name": "getRemainingLockTime",
      "outputs": [
        {
          "internalType": "uint256",
          "name": "",
          "type": "uint256"
        }
      ],
      "stateMutability": "view",
      "type": "function"
    },
    {
      "inputs": [],
      "name": "nftB",
      "outputs": [
        {
          "internalType": "contract NFTB",
          "name": "",
          "type": "address"
        }
      ],
      "stateMutability": "view",
      "type": "function"
    },
    {
      "inputs": [],
      "name": "nftBonusAPR",
      "outputs": [
        {
          "internalType": "uint256",
          "name": "",
          "type": "uint256"
        }
      ],
      "stateMutability": "view",
      "type": "function"
    },
    {
      "inputs": [],
      "name": "owner",
      "outputs": [
        {
          "internalType": "address",
          "name": "",
          "type": "address"
        }
      ],
      "stateMutability": "view",
      "type": "function"
    },
    {
      "inputs": [],
      "name": "renounceOwnership",
      "outputs": [],
      "stateMutability": "nonpayable",
      "type": "function"
    },
    {
      "inputs": [
        {
          "internalType": "address",
          "name": "",
          "type": "address"
        },
        {
          "internalType": "uint256",
          "name": "",
          "type": "uint256"
        }
      ],
      "name": "stakedNFTs",
      "outputs": [
        {
          "internalType": "uint256",
          "name": "",
          "type": "uint256"
        }
      ],
      "stateMutability": "view",
      "type": "function"
    },
    {
      "inputs": [
        {
          "internalType": "address",
          "name": "",
          "type": "address"
        }
      ],
      "name": "stakes",
      "outputs": [
        {
          "internalType": "uint256",
          "name": "amount",
          "type": "uint256"
        },
        {
          "internalType": "uint256",
          "name": "timestamp",
          "type": "uint256"
        },
        {
          "internalType": "uint256",
          "name": "nftDepositTime",
          "type": "uint256"
        },
        {
          "internalType": "uint256",
          "name": "nftCount",
          "type": "uint256"
        },
        {
          "internalType": "uint256",
          "name": "pendingReward",
          "type": "uint256"
        },
        {
          "internalType": "uint256",
          "name": "lockEndTime",
          "type": "uint256"
        }
      ],
      "stateMutability": "view",
      "type": "function"
    },
    {
      "inputs": [],
      "name": "tokenA",
      "outputs": [
        {
          "internalType": "contract TokenA",
          "name": "",
          "type": "address"
        }
      ],
      "stateMutability": "view",
      "type": "function"
    },
    {
      "inputs": [
        {
          "internalType": "address",
          "name": "newOwner",
          "type": "address"
        }
      ],
      "name": "transferOwnership",
      "outputs": [],
      "stateMutability": "nonpayable",
      "type": "function"
    },
    {
      "inputs": [
        {
          "internalType": "uint256",
          "name": "newBaseAPR",
          "type": "uint256"
        }
      ],
      "name": "updateBaseAPR",
      "outputs": [],
      "stateMutability": "nonpayable",
      "type": "function"
    },
    {
      "inputs": [],
      "name": "withdraw",
      "outputs": [],
      "stateMutability": "nonpayable",
      "type": "function"
    },
    {
      "inputs": [],
      "name": "withdrawNFTs",
      "outputs": [],
      "stateMutability": "nonpayable",
      "type": "function"
    }
  ],
  "bytecode": "0x608060405261032060035560c860045534801561001b57600080fd5b5060405161128838038061128883398101604081905261003a91610107565b338061006057604051631e4fbdf760e01b81526000600482015260240160405180910390fd5b6100698161009b565b50600180546001600160a01b039384166001600160a01b0319918216179091556002805492909316911617905561013a565b600080546001600160a01b038381166001600160a01b0319831681178455604051919092169283917f8be0079c531659141344cd1fd0a4f28419497f9722a3daafe3b4186f6b6457e09190a35050565b80516001600160a01b038116811461010257600080fd5b919050565b6000806040838503121561011a57600080fd5b610123836100eb565b9150610131602084016100eb565b90509250929050565b61113f806101496000396000f3fe608060405234801561001057600080fd5b50600436106101215760003560e01c8063715018a6116100ad578063c2baf73311610071578063c2baf73314610277578063d5bfbf9f1461028a578063d82e396214610292578063f2fde38b146102a5578063f7060048146102b857600080fd5b8063715018a6146102325780638da5cb5b1461023a57806393c494841461024b578063b6b55f251461025c578063b88a802f1461026f57600080fd5b806332e2cea8116100f457806332e2cea8146101f05780633ccfd60b14610203578063473044941461020d57806358ac0e80146102205780637120f2941461022957600080fd5b806301d650e1146101265780630fc63d101461014c57806316934fc4146101775780631820cabb146101e7575b600080fd5b610139610134366004610fa9565b6102cb565b6040519081526020015b60405180910390f35b60015461015f906001600160a01b031681565b6040516001600160a01b039091168152602001610143565b6101ba610185366004610fa9565b600560208190526000918252604090912080546001820154600283015460038401546004850154949095015492949193909286565b604080519687526020870195909552938501929092526060840152608083015260a082015260c001610143565b61013961012c81565b60025461015f906001600160a01b031681565b61020b61031e565b005b61013961021b366004610fa9565b610640565b61013960035481565b61013960045481565b61020b610688565b6000546001600160a01b031661015f565b61013969d3c21bcecceda100000081565b61020b61026a366004610fc4565b61069c565b61020b6108fa565b61020b610285366004610fc4565b610a59565b61020b610a9c565b6101396102a0366004610fa9565b610ca9565b61020b6102b3366004610fa9565b610dab565b6101396102c6366004610fdd565b610de9565b6001600160a01b0381166000908152600560205260408120600381015482036102f8575050600354919050565b806003015460045461030a919061101d565b600354610317919061103a565b9392505050565b33600090815260056020526040902080546103775760405162461bcd60e51b81526020600482015260146024820152734e6f207374616b6520746f20776974686472617760601b60448201526064015b60405180910390fd5b80600501544210156103cb5760405162461bcd60e51b815260206004820152601760248201527f546f6b656e7320617265207374696c6c206c6f636b6564000000000000000000604482015260640161036e565b600081600401546103db33610ca9565b6103e5919061103a565b905060008183600001546103f9919061103a565b60015460405163a9059cbb60e01b8152336004820152602481018390529192506001600160a01b03169063a9059cbb906044016020604051808303816000875af115801561044b573d6000803e3d6000fd5b505050506040513d601f19601f8201168201806040525081019061046f919061104d565b61048b5760405162461bcd60e51b815260040161036e9061106f565b8254604080519182526020820184905233917f92ccf450a286a957af52509bc1c9939d1a6a481783e142e41e2499f0bb66ebc6910160405180910390a233600090815260056020818152604080842084815560018101859055600281018590556003810185905560048101859055909201839055600690528120905b81548110156106215760025482546001600160a01b03909116906323b872dd903090339086908690811061053d5761053d611098565b6000918252602090912001546040516001600160e01b031960e086901b1681526001600160a01b0393841660048201529290911660248301526044820152606401600060405180830381600087803b15801561059857600080fd5b505af11580156105ac573d6000803e3d6000fd5b50505050336001600160a01b03167f2aa1b4c95f3b2da9c955947fca584743ea0d457708fadf209c093061e98c4ccb8383815481106105ed576105ed611098565b906000526020600020015460405161060791815260200190565b60405180910390a280610619816110ae565b915050610507565b5033600090815260066020526040812061063a91610f5b565b50505050565b6001600160a01b03811660009081526005602052604081208054158061066a575080600501544210155b156106785750600092915050565b42816005015461031791906110c7565b610690610e1a565b61069a6000610e47565b565b600081116106ec5760405162461bcd60e51b815260206004820152601d60248201527f416d6f756e74206d7573742062652067726561746572207468616e2030000000604482015260640161036e565b6001546040516323b872dd60e01b8152336004820152306024820152604481018390526001600160a01b03909116906323b872dd906064016020604051808303816000875af1158015610743573d6000803e3d6000fd5b505050506040513d601f19601f82011682018060405250810190610767919061104d565b6107835760405162461bcd60e51b815260040161036e9061106f565b3360009081526005602052604090208054156107c15760006107a433610ca9565b9050808260040160008282546107ba919061103a565b9091555050505b818160000160008282546107d5919061103a565b909155505042600182018190556107ef9061012c9061103a565b6005820155600281015415610805574260028201555b805469d3c21bcecceda1000000116108c0576002546040516340d097c360e01b81523360048201526000916001600160a01b0316906340d097c3906024016020604051808303816000875af1158015610862573d6000803e3d6000fd5b505050506040513d601f19601f8201168201806040525081019061088691906110da565b60405181815290915033907f4cc0a9c4a99ddc700de1af2c9f916a7cbfdb71f14801ccff94061ad1ef8a80409060200160405180910390a2505b60405182815233907f2da466a7b24304f47e87fa2e1e5a81b9831ce54fec19055ce277ca2f39ba42c4906020015b60405180910390a25050565b33600081815260056020526040812060040154909161091890610ca9565b610922919061103a565b9050600081116109695760405162461bcd60e51b81526020600482015260126024820152714e6f2072657761726420746f20636c61696d60701b604482015260640161036e565b60015460405163a9059cbb60e01b8152336004820152602481018390526001600160a01b039091169063a9059cbb906044016020604051808303816000875af11580156109ba573d6000803e3d6000fd5b505050506040513d601f19601f820116820180604052508101906109de919061104d565b6109fa5760405162461bcd60e51b815260040161036e9061106f565b336000908152600560205260409020426001820155600281015415610a20574260028201555b6000600482015560405182815233907f106f923f993c2149d49b4255ff723acafa1f2d94393f561d3eda32ae348f7241906020016108ee565b610a61610e1a565b60038190556040518181527f2ec8ccb96042321f3bbdd56e8e4e4339bc07c9c2021e14e18ef12f5db282b37a9060200160405180910390a150565b3360009081526005602052604090206003810154610af25760405162461bcd60e51b81526020600482015260136024820152724e6f204e46547320746f20776974686472617760681b604482015260640161036e565b6000610afd33610ca9565b905080826004016000828254610b13919061103a565b9091555050336000908152600660205260408120905b8154811015610c435760025482546001600160a01b03909116906323b872dd9030903390869086908110610b5f57610b5f611098565b6000918252602090912001546040516001600160e01b031960e086901b1681526001600160a01b0393841660048201529290911660248301526044820152606401600060405180830381600087803b158015610bba57600080fd5b505af1158015610bce573d6000803e3d6000fd5b50505050336001600160a01b03167f2aa1b4c95f3b2da9c955947fca584743ea0d457708fadf209c093061e98c4ccb838381548110610c0f57610c0f611098565b9060005260206000200154604051610c2991815260200190565b60405180910390a280610c3b816110ae565b915050610b29565b5060006003840181905560028401819055338152600660205260408120610c6991610f5b565b42600184015560405182815233907f106f923f993c2149d49b4255ff723acafa1f2d94393f561d3eda32ae348f72419060200160405180910390a2505050565b6001600160a01b038116600090815260056020526040812080548203610cd25750600092915050565b6000816001015442610ce491906110c7565b905060008083600201541115610d8a576000610d3384600101548560020154610d0d91906110c7565b6003548654610d1c919061101d565b610d26919061101d565b600164496cebb800610e97565b90506000610d75856002015442610d4a91906110c7565b8660030154600454610d5c919061101d565b600354610d69919061103a565b8754610d1c919061101d565b9050610d81818361103a565b92505050610da3565b610da0826003548560000154610d1c919061101d565b90505b949350505050565b610db3610e1a565b6001600160a01b038116610ddd57604051631e4fbdf760e01b81526000600482015260240161036e565b610de681610e47565b50565b60066020528160005260406000208181548110610e0557600080fd5b90600052602060002001600091509150505481565b6000546001600160a01b0316331461069a5760405163118cdaa760e01b815233600482015260240161036e565b600080546001600160a01b038381166001600160a01b0319831681178455604051919092169283917f8be0079c531659141344cd1fd0a4f28419497f9722a3daafe3b4186f6b6457e09190a35050565b6000838302816000198587098281108382030391505080600003610ece57838281610ec457610ec46110f3565b0492505050610317565b808411610eee5760405163227bc15360e01b815260040160405180910390fd5b6000848688096000868103871696879004966002600389028118808a02820302808a02820302808a02820302808a02820302808a02820302808a02909103029181900381900460010186841190950394909402919094039290920491909117919091029150509392505050565b5080546000825590600052602060002090810190610de691905b80821115610f895760008155600101610f75565b5090565b80356001600160a01b0381168114610fa457600080fd5b919050565b600060208284031215610fbb57600080fd5b61031782610f8d565b600060208284031215610fd657600080fd5b5035919050565b60008060408385031215610ff057600080fd5b610ff983610f8d565b946020939093013593505050565b634e487b7160e01b600052601160045260246000fd5b808202811582820484141761103457611034611007565b92915050565b8082018082111561103457611034611007565b60006020828403121561105f57600080fd5b8151801515811461031757600080fd5b6020808252600f908201526e151c985b9cd9995c8819985a5b1959608a1b604082015260600190565b634e487b7160e01b600052603260045260246000fd5b6000600182016110c0576110c0611007565b5060010190565b8181038181111561103457611034611007565b6000602082840312156110ec57600080fd5b5051919050565b634e487b7160e01b600052601260045260246000fdfea26469706673582212208c672ec0f75eef010ee14e2a5b27ceb15ec87fec38f753604aa6db27180dfd8a64736f6c63430008140033",
  "linkReferences": {},
  "deployedLinkReferences": {}
}