{
  "_format": "hh-sol-artifact-1",
  "contractName": "Staking",
  "sourceName": "contracts/Staking.sol",
  "abi": [
    {
      "inputs": [
        {
          "internalType": "address",
          "name": "_tokenA",
          "type": "address"
        },
        {
          "internalType": "address",
          "name": "_nftB",
          "type": "address"
        }
      ],
      "stateMutability": "nonpayable",
      "type": "constructor"
    },
    {
      "inputs": [
        {
          "internalType": "address",
          "name": "owner",
          "type": "address"
        }
      ],
      "name": "OwnableInvalidOwner",
      "type": "error"
    },
    {
      "inputs": [
        {
          "internalType": "address",
          "name": "account",
          "type": "address"
        }
      ],
      "name": "OwnableUnauthorizedAccount",
      "type": "error"
    },
    {
      "anonymous": false,
      "inputs": [
        {
          "indexed": false,
          "internalType": "uint256",
          "name": "newBaseAPR",
          "type": "uint256"
        }
      ],
      "name": "APRUpdated",
      "type": "event"
    },
    {
      "anonymous": false,
      "inputs": [
        {
          "indexed": true,
          "internalType": "address",
          "name": "user",
          "type": "address"
        },
        {
          "indexed": false,
          "internalType": "uint256",
          "name": "amount",
          "type": "uint256"
        }
      ],
      "name": "Deposited",
      "type": "event"
    },
    {
      "anonymous": false,
      "inputs": [
        {
          "indexed": true,
          "internalType": "address",
          "name": "user",
          "type": "address"
        },
        {
          "indexed": false,
          "internalType": "uint256",
          "name": "tokenId",
          "type": "uint256"
        }
      ],
      "name": "NFTDeposited",
      "type": "event"
    },
    {
      "anonymous": false,
      "inputs": [
        {
          "indexed": true,
          "internalType": "address",
          "name": "user",
          "type": "address"
        },
        {
          "indexed": false,
          "internalType": "uint256",
          "name": "tokenId",
          "type": "uint256"
        }
      ],
      "name": "NFTMinted",
      "type": "event"
    },
    {
      "anonymous": false,
      "inputs": [
        {
          "indexed": true,
          "internalType": "address",
          "name": "user",
          "type": "address"
        },
        {
          "indexed": false,
          "internalType": "uint256",
          "name": "tokenId",
          "type": "uint256"
        }
      ],
      "name": "NFTWithdrawn",
      "type": "event"
    },
    {
      "anonymous": false,
      "inputs": [
        {
          "indexed": true,
          "internalType": "address",
          "name": "previousOwner",
          "type": "address"
        },
        {
          "indexed": true,
          "internalType": "address",
          "name": "newOwner",
          "type": "address"
        }
      ],
      "name": "OwnershipTransferred",
      "type": "event"
    },
    {
      "anonymous": false,
      "inputs": [
        {
          "indexed": true,
          "internalType": "address",
          "name": "user",
          "type": "address"
        },
        {
          "indexed": false,
          "internalType": "uint256",
          "name": "reward",
          "type": "uint256"
        }
      ],
      "name": "RewardClaimed",
      "type": "event"
    },
    {
      "anonymous": false,
      "inputs": [
        {
          "indexed": true,
          "internalType": "address",
          "name": "user",
          "type": "address"
        },
        {
          "indexed": false,
          "internalType": "uint256",
          "name": "amount",
          "type": "uint256"
        },
        {
          "indexed": false,
          "internalType": "uint256",
          "name": "reward",
          "type": "uint256"
        }
      ],
      "name": "Withdrawn",
      "type": "event"
    },
    {
      "inputs": [],
      "name": "LOCK_PERIOD",
      "outputs": [
        {
          "internalType": "uint256",
          "name": "",
          "type": "uint256"
        }
      ],
      "stateMutability": "view",
      "type": "function"
    },
    {
      "inputs": [],
      "name": "NFT_THRESHOLD",
      "outputs": [
        {
          "internalType": "uint256",
          "name": "",
          "type": "uint256"
        }
      ],
      "stateMutability": "view",
      "type": "function"
    },
    {
      "inputs": [],
      "name": "baseAPR",
      "outputs": [
        {
          "internalType": "uint256",
          "name": "",
          "type": "uint256"
        }
      ],
      "stateMutability": "view",
      "type": "function"
    },
    {
      "inputs": [
        {
          "internalType": "address",
          "name": "user",
          "type": "address"
        }
      ],
      "name": "calculateReward",
      "outputs": [
        {
          "internalType": "uint256",
          "name": "",
          "type": "uint256"
        }
      ],
      "stateMutability": "view",
      "type": "function"
    },
    {
      "inputs": [],
      "name": "claimReward",
      "outputs": [],
      "stateMutability": "nonpayable",
      "type": "function"
    },
    {
      "inputs": [
        {
          "internalType": "uint256",
          "name": "amount",
          "type": "uint256"
        }
      ],
      "name": "deposit",
      "outputs": [],
      "stateMutability": "nonpayable",
      "type": "function"
    },
    {
      "inputs": [
        {
          "internalType": "uint256",
          "name": "tokenId",
          "type": "uint256"
        }
      ],
      "name": "depositNFT",
      "outputs": [],
      "stateMutability": "nonpayable",
      "type": "function"
    },
    {
      "inputs": [
        {
          "internalType": "address",
          "name": "user",
          "type": "address"
        }
      ],
      "name": "getCurrentAPR",
      "outputs": [
        {
          "internalType": "uint256",
          "name": "",
          "type": "uint256"
        }
      ],
      "stateMutability": "view",
      "type": "function"
    },
    {
      "inputs": [],
      "name": "nftB",
      "outputs": [
        {
          "internalType": "contract NFTB",
          "name": "",
          "type": "address"
        }
      ],
      "stateMutability": "view",
      "type": "function"
    },
    {
      "inputs": [],
      "name": "nftBonusAPR",
      "outputs": [
        {
          "internalType": "uint256",
          "name": "",
          "type": "uint256"
        }
      ],
      "stateMutability": "view",
      "type": "function"
    },
    {
      "inputs": [],
      "name": "owner",
      "outputs": [
        {
          "internalType": "address",
          "name": "",
          "type": "address"
        }
      ],
      "stateMutability": "view",
      "type": "function"
    },
    {
      "inputs": [],
      "name": "renounceOwnership",
      "outputs": [],
      "stateMutability": "nonpayable",
      "type": "function"
    },
    {
      "inputs": [
        {
          "internalType": "address",
          "name": "",
          "type": "address"
        },
        {
          "internalType": "uint256",
          "name": "",
          "type": "uint256"
        }
      ],
      "name": "stakedNFTs",
      "outputs": [
        {
          "internalType": "uint256",
          "name": "",
          "type": "uint256"
        }
      ],
      "stateMutability": "view",
      "type": "function"
    },
    {
      "inputs": [
        {
          "internalType": "address",
          "name": "",
          "type": "address"
        }
      ],
      "name": "stakes",
      "outputs": [
        {
          "internalType": "uint256",
          "name": "amount",
          "type": "uint256"
        },
        {
          "internalType": "uint256",
          "name": "timestamp",
          "type": "uint256"
        },
        {
          "internalType": "uint256",
          "name": "nftDepositTime",
          "type": "uint256"
        },
        {
          "internalType": "uint256",
          "name": "nftCount",
          "type": "uint256"
        }
      ],
      "stateMutability": "view",
      "type": "function"
    },
    {
      "inputs": [],
      "name": "tokenA",
      "outputs": [
        {
          "internalType": "contract TokenA",
          "name": "",
          "type": "address"
        }
      ],
      "stateMutability": "view",
      "type": "function"
    },
    {
      "inputs": [
        {
          "internalType": "address",
          "name": "newOwner",
          "type": "address"
        }
      ],
      "name": "transferOwnership",
      "outputs": [],
      "stateMutability": "nonpayable",
      "type": "function"
    },
    {
      "inputs": [
        {
          "internalType": "uint256",
          "name": "newBaseAPR",
          "type": "uint256"
        }
      ],
      "name": "updateBaseAPR",
      "outputs": [],
      "stateMutability": "nonpayable",
      "type": "function"
    },
    {
      "inputs": [],
      "name": "withdraw",
      "outputs": [],
      "stateMutability": "nonpayable",
      "type": "function"
    },
    {
      "inputs": [],
      "name": "withdrawNFTs",
      "outputs": [],
      "stateMutability": "nonpayable",
      "type": "function"
    }
  ],
  "bytecode": "0x608060405261032060035560c860045534801561001b57600080fd5b5060405161127138038061127183398101604081905261003a91610107565b338061006057604051631e4fbdf760e01b81526000600482015260240160405180910390fd5b6100698161009b565b50600180546001600160a01b039384166001600160a01b0319918216179091556002805492909316911617905561013a565b600080546001600160a01b038381166001600160a01b0319831681178455604051919092169283917f8be0079c531659141344cd1fd0a4f28419497f9722a3daafe3b4186f6b6457e09190a35050565b80516001600160a01b038116811461010257600080fd5b919050565b6000806040838503121561011a57600080fd5b610123836100eb565b9150610131602084016100eb565b90509250929050565b611128806101496000396000f3fe608060405234801561001057600080fd5b50600436106101215760003560e01c80638da5cb5b116100ad578063d5bfbf9f11610071578063d5bfbf9f1461025c578063d82e396214610264578063e91a7ca614610277578063f2fde38b1461028a578063f70600481461029d57600080fd5b80638da5cb5b1461020c57806393c494841461021d578063b6b55f251461022e578063b88a802f14610241578063c2baf7331461024957600080fd5b806332e2cea8116100f457806332e2cea8146101d55780633ccfd60b146101e857806358ac0e80146101f25780637120f294146101fb578063715018a61461020457600080fd5b806301d650e1146101265780630fc63d101461014c57806316934fc4146101775780631820cabb146101cc575b600080fd5b610139610134366004610f65565b6102b0565b6040519081526020015b60405180910390f35b60015461015f906001600160a01b031681565b6040516001600160a01b039091168152602001610143565b6101ac610185366004610f65565b60056020526000908152604090208054600182015460028301546003909301549192909184565b604080519485526020850193909352918301526060820152608001610143565b61013961012c81565b60025461015f906001600160a01b031681565b6101f0610303565b005b61013960035481565b61013960045481565b6101f06104d4565b6000546001600160a01b031661015f565b61013969d3c21bcecceda100000081565b6101f061023c366004610f82565b6104e8565b6101f0610721565b6101f0610257366004610f82565b61085c565b6101f061089f565b610139610272366004610f65565b610b4c565b6101f0610285366004610f82565b610c7c565b6101f0610298366004610f65565b610e32565b6101396102ab366004610f9b565b610e70565b6001600160a01b0381166000908152600560205260408120600381015482036102dd575050600354919050565b80600301546004546102ef9190610fdd565b6003546102fc9190610ffa565b9392505050565b336000908152600560205260409020805461035c5760405162461bcd60e51b81526020600482015260146024820152734e6f207374616b6520746f20776974686472617760601b60448201526064015b60405180910390fd5b61012c816001015461036e9190610ffa565b4210156103bd5760405162461bcd60e51b815260206004820152601760248201527f546f6b656e7320617265207374696c6c206c6f636b65640000000000000000006044820152606401610353565b60006103c833610b4c565b905060008183600001546103dc9190610ffa565b60015460405163a9059cbb60e01b8152336004820152602481018390529192506001600160a01b03169063a9059cbb906044016020604051808303816000875af115801561042e573d6000803e3d6000fd5b505050506040513d601f19601f82011682018060405250810190610452919061100d565b61046e5760405162461bcd60e51b81526004016103539061102f565b8254604080519182526020820184905233917f92ccf450a286a957af52509bc1c9939d1a6a481783e142e41e2499f0bb66ebc6910160405180910390a2505033600090815260056020526040812081815560018101829055600281018290556003015550565b6104dc610ea1565b6104e66000610ece565b565b600081116105385760405162461bcd60e51b815260206004820152601d60248201527f416d6f756e74206d7573742062652067726561746572207468616e20300000006044820152606401610353565b6001546040516323b872dd60e01b8152336004820152306024820152604481018390526001600160a01b03909116906323b872dd906064016020604051808303816000875af115801561058f573d6000803e3d6000fd5b505050506040513d601f19601f820116820180604052508101906105b3919061100d565b6105cf5760405162461bcd60e51b81526004016103539061102f565b33600090815260056020526040902080541561060d5760006105f033610b4c565b9050808260000160008282546106069190610ffa565b9091555050505b818160000160008282546106219190610ffa565b9091555050426001820155805469d3c21bcecceda1000000116106e7576002546040516340d097c360e01b81523360048201526000916001600160a01b0316906340d097c3906024016020604051808303816000875af1158015610689573d6000803e3d6000fd5b505050506040513d601f19601f820116820180604052508101906106ad9190611058565b60405181815290915033907f4cc0a9c4a99ddc700de1af2c9f916a7cbfdb71f14801ccff94061ad1ef8a80409060200160405180910390a2505b60405182815233907f2da466a7b24304f47e87fa2e1e5a81b9831ce54fec19055ce277ca2f39ba42c4906020015b60405180910390a25050565b600061072c33610b4c565b9050600081116107735760405162461bcd60e51b81526020600482015260126024820152714e6f2072657761726420746f20636c61696d60701b6044820152606401610353565b60015460405163a9059cbb60e01b8152336004820152602481018390526001600160a01b039091169063a9059cbb906044016020604051808303816000875af11580156107c4573d6000803e3d6000fd5b505050506040513d601f19601f820116820180604052508101906107e8919061100d565b6108045760405162461bcd60e51b81526004016103539061102f565b33600090815260056020526040902042600182015560028101541561082a574260028201555b60405182815233907f106f923f993c2149d49b4255ff723acafa1f2d94393f561d3eda32ae348f724190602001610715565b610864610ea1565b60038190556040518181527f2ec8ccb96042321f3bbdd56e8e4e4339bc07c9c2021e14e18ef12f5db282b37a9060200160405180910390a150565b33600090815260056020526040902060038101546108f55760405162461bcd60e51b81526020600482015260136024820152724e6f204e46547320746f20776974686472617760681b6044820152606401610353565b600061090033610b4c565b60015460405163a9059cbb60e01b8152336004820152602481018390529192506001600160a01b03169063a9059cbb906044016020604051808303816000875af1158015610952573d6000803e3d6000fd5b505050506040513d601f19601f82011682018060405250810190610976919061100d565b6109bb5760405162461bcd60e51b815260206004820152601660248201527514995dd85c99081d1c985b9cd9995c8819985a5b195960521b6044820152606401610353565b336000908152600660205260408120905b8154811015610ae65760025482546001600160a01b03909116906323b872dd9030903390869086908110610a0257610a02611071565b6000918252602090912001546040516001600160e01b031960e086901b1681526001600160a01b0393841660048201529290911660248301526044820152606401600060405180830381600087803b158015610a5d57600080fd5b505af1158015610a71573d6000803e3d6000fd5b50505050336001600160a01b03167f2aa1b4c95f3b2da9c955947fca584743ea0d457708fadf209c093061e98c4ccb838381548110610ab257610ab2611071565b9060005260206000200154604051610acc91815260200190565b60405180910390a280610ade81611087565b9150506109cc565b5060006003840181905560028401819055338152600660205260408120610b0c91610f1e565b42600184015560405182815233907f106f923f993c2149d49b4255ff723acafa1f2d94393f561d3eda32ae348f72419060200160405180910390a2505050565b6001600160a01b038116600090815260056020526040812080548203610b755750600092915050565b6000816001015442610b8791906110a0565b905060008083600201541115610c4457600064496cebb80084600101548560020154610bb391906110a0565b6003548654610bc29190610fdd565b610bcc9190610fdd565b610bd691906110b3565b9050600064496cebb800856002015442610bf091906110a0565b8660030154600454610c029190610fdd565b600354610c0f9190610ffa565b8754610c1b9190610fdd565b610c259190610fdd565b610c2f91906110b3565b9050610c3b8183610ffa565b92505050610c74565b64496cebb800826003548560000154610c5d9190610fdd565b610c679190610fdd565b610c7191906110b3565b90505b949350505050565b6002546040516331a9108f60e11b81526004810183905233916001600160a01b031690636352211e90602401602060405180830381865afa158015610cc5573d6000803e3d6000fd5b505050506040513d601f19601f82011682018060405250810190610ce991906110d5565b6001600160a01b031614610d385760405162461bcd60e51b8152602060048201526016602482015275165bdd48191bdb89dd081bdddb881d1a1a5cc813919560521b6044820152606401610353565b6002546040516323b872dd60e01b8152336004820152306024820152604481018390526001600160a01b03909116906323b872dd90606401600060405180830381600087803b158015610d8a57600080fd5b505af1158015610d9e573d6000803e3d6000fd5b5050336000908152600560205260408120600281015490935090039050610dc6574260028201555b600381018054906000610dd883611087565b909155505033600081815260066020908152604080832080546001810182559084529190922001849055517f1c4b8380f61aea3d5d98cbadaf2e6b2e4f3d8ca8c0fce1290b26ac267158745f906107159085815260200190565b610e3a610ea1565b6001600160a01b038116610e6457604051631e4fbdf760e01b815260006004820152602401610353565b610e6d81610ece565b50565b60066020528160005260406000208181548110610e8c57600080fd5b90600052602060002001600091509150505481565b6000546001600160a01b031633146104e65760405163118cdaa760e01b8152336004820152602401610353565b600080546001600160a01b038381166001600160a01b0319831681178455604051919092169283917f8be0079c531659141344cd1fd0a4f28419497f9722a3daafe3b4186f6b6457e09190a35050565b5080546000825590600052602060002090810190610e6d91905b80821115610f4c5760008155600101610f38565b5090565b6001600160a01b0381168114610e6d57600080fd5b600060208284031215610f7757600080fd5b81356102fc81610f50565b600060208284031215610f9457600080fd5b5035919050565b60008060408385031215610fae57600080fd5b8235610fb981610f50565b946020939093013593505050565b634e487b7160e01b600052601160045260246000fd5b8082028115828204841417610ff457610ff4610fc7565b92915050565b80820180821115610ff457610ff4610fc7565b60006020828403121561101f57600080fd5b815180151581146102fc57600080fd5b6020808252600f908201526e151c985b9cd9995c8819985a5b1959608a1b604082015260600190565b60006020828403121561106a57600080fd5b5051919050565b634e487b7160e01b600052603260045260246000fd5b60006001820161109957611099610fc7565b5060010190565b81810381811115610ff457610ff4610fc7565b6000826110d057634e487b7160e01b600052601260045260246000fd5b500490565b6000602082840312156110e757600080fd5b81516102fc81610f5056fea2646970667358221220114afee2bdad58dfc951455ce5babe03d22e4c24c8a3cb342e74b7c8488d5edc64736f6c63430008140033",
  "linkReferences": {},
  "deployedLinkReferences": {}
}