{
  "_format": "hh-sol-artifact-1",
  "contractName": "Staking",
  "sourceName": "contracts/Staking.sol",
  "abi": [
    {
      "inputs": [
        {
          "internalType": "address",
          "name": "_tokenA",
          "type": "address"
        },
        {
          "internalType": "address",
          "name": "_nftB",
          "type": "address"
        }
      ],
      "stateMutability": "nonpayable",
      "type": "constructor"
    },
    {
      "inputs": [
        {
          "internalType": "address",
          "name": "owner",
          "type": "address"
        }
      ],
      "name": "OwnableInvalidOwner",
      "type": "error"
    },
    {
      "inputs": [
        {
          "internalType": "address",
          "name": "account",
          "type": "address"
        }
      ],
      "name": "OwnableUnauthorizedAccount",
      "type": "error"
    },
    {
      "anonymous": false,
      "inputs": [
        {
          "indexed": false,
          "internalType": "uint256",
          "name": "newBaseAPR",
          "type": "uint256"
        }
      ],
      "name": "APRUpdated",
      "type": "event"
    },
    {
      "anonymous": false,
      "inputs": [
        {
          "indexed": true,
          "internalType": "address",
          "name": "user",
          "type": "address"
        },
        {
          "indexed": false,
          "internalType": "uint256",
          "name": "amount",
          "type": "uint256"
        }
      ],
      "name": "Deposited",
      "type": "event"
    },
    {
      "anonymous": false,
      "inputs": [
        {
          "indexed": true,
          "internalType": "address",
          "name": "user",
          "type": "address"
        },
        {
          "indexed": false,
          "internalType": "uint256",
          "name": "tokenId",
          "type": "uint256"
        }
      ],
      "name": "NFTMinted",
      "type": "event"
    },
    {
      "anonymous": false,
      "inputs": [
        {
          "indexed": true,
          "internalType": "address",
          "name": "previousOwner",
          "type": "address"
        },
        {
          "indexed": true,
          "internalType": "address",
          "name": "newOwner",
          "type": "address"
        }
      ],
      "name": "OwnershipTransferred",
      "type": "event"
    },
    {
      "anonymous": false,
      "inputs": [
        {
          "indexed": true,
          "internalType": "address",
          "name": "user",
          "type": "address"
        },
        {
          "indexed": false,
          "internalType": "uint256",
          "name": "reward",
          "type": "uint256"
        }
      ],
      "name": "RewardClaimed",
      "type": "event"
    },
    {
      "anonymous": false,
      "inputs": [
        {
          "indexed": true,
          "internalType": "address",
          "name": "user",
          "type": "address"
        },
        {
          "indexed": false,
          "internalType": "uint256",
          "name": "amount",
          "type": "uint256"
        },
        {
          "indexed": false,
          "internalType": "uint256",
          "name": "reward",
          "type": "uint256"
        }
      ],
      "name": "Withdrawn",
      "type": "event"
    },
    {
      "inputs": [],
      "name": "LOCK_PERIOD",
      "outputs": [
        {
          "internalType": "uint256",
          "name": "",
          "type": "uint256"
        }
      ],
      "stateMutability": "view",
      "type": "function"
    },
    {
      "inputs": [],
      "name": "MIN_AMOUNT_FOR_NFT",
      "outputs": [
        {
          "internalType": "uint256",
          "name": "",
          "type": "uint256"
        }
      ],
      "stateMutability": "view",
      "type": "function"
    },
    {
      "inputs": [],
      "name": "baseAPR",
      "outputs": [
        {
          "internalType": "uint256",
          "name": "",
          "type": "uint256"
        }
      ],
      "stateMutability": "view",
      "type": "function"
    },
    {
      "inputs": [
        {
          "internalType": "address",
          "name": "user",
          "type": "address"
        }
      ],
      "name": "calculateReward",
      "outputs": [
        {
          "internalType": "uint256",
          "name": "",
          "type": "uint256"
        }
      ],
      "stateMutability": "view",
      "type": "function"
    },
    {
      "inputs": [
        {
          "internalType": "uint256",
          "name": "amount",
          "type": "uint256"
        }
      ],
      "name": "depositTokenA",
      "outputs": [],
      "stateMutability": "nonpayable",
      "type": "function"
    },
    {
      "inputs": [
        {
          "internalType": "address",
          "name": "",
          "type": "address"
        }
      ],
      "name": "deposits",
      "outputs": [
        {
          "internalType": "uint256",
          "name": "amount",
          "type": "uint256"
        },
        {
          "internalType": "uint256",
          "name": "depositTime",
          "type": "uint256"
        },
        {
          "internalType": "uint256",
          "name": "nftDepositTime",
          "type": "uint256"
        },
        {
          "internalType": "bool",
          "name": "hasNFT",
          "type": "bool"
        }
      ],
      "stateMutability": "view",
      "type": "function"
    },
    {
      "inputs": [],
      "name": "nftAPR",
      "outputs": [
        {
          "internalType": "uint256",
          "name": "",
          "type": "uint256"
        }
      ],
      "stateMutability": "view",
      "type": "function"
    },
    {
      "inputs": [],
      "name": "nftB",
      "outputs": [
        {
          "internalType": "contract NFTB",
          "name": "",
          "type": "address"
        }
      ],
      "stateMutability": "view",
      "type": "function"
    },
    {
      "inputs": [],
      "name": "owner",
      "outputs": [
        {
          "internalType": "address",
          "name": "",
          "type": "address"
        }
      ],
      "stateMutability": "view",
      "type": "function"
    },
    {
      "inputs": [],
      "name": "renounceOwnership",
      "outputs": [],
      "stateMutability": "nonpayable",
      "type": "function"
    },
    {
      "inputs": [],
      "name": "tokenA",
      "outputs": [
        {
          "internalType": "contract TokenA",
          "name": "",
          "type": "address"
        }
      ],
      "stateMutability": "view",
      "type": "function"
    },
    {
      "inputs": [
        {
          "internalType": "address",
          "name": "newOwner",
          "type": "address"
        }
      ],
      "name": "transferOwnership",
      "outputs": [],
      "stateMutability": "nonpayable",
      "type": "function"
    },
    {
      "inputs": [
        {
          "internalType": "uint256",
          "name": "newBaseAPR",
          "type": "uint256"
        }
      ],
      "name": "updateBaseAPR",
      "outputs": [],
      "stateMutability": "nonpayable",
      "type": "function"
    },
    {
      "inputs": [
        {
          "internalType": "bool",
          "name": "claimOnly",
          "type": "bool"
        }
      ],
      "name": "withdraw",
      "outputs": [],
      "stateMutability": "nonpayable",
      "type": "function"
    }
  ],
  "bytecode": "0x608060405261032060045560c86005553480156200001c57600080fd5b506040516200188438038062001884833981810160405281019062000042919062000282565b33600073ffffffffffffffffffffffffffffffffffffffff168173ffffffffffffffffffffffffffffffffffffffff1603620000b85760006040517f1e4fbdf7000000000000000000000000000000000000000000000000000000008152600401620000af9190620002da565b60405180910390fd5b620000c9816200015460201b60201c565b5081600160006101000a81548173ffffffffffffffffffffffffffffffffffffffff021916908373ffffffffffffffffffffffffffffffffffffffff16021790555080600260006101000a81548173ffffffffffffffffffffffffffffffffffffffff021916908373ffffffffffffffffffffffffffffffffffffffff1602179055505050620002f7565b60008060009054906101000a900473ffffffffffffffffffffffffffffffffffffffff169050816000806101000a81548173ffffffffffffffffffffffffffffffffffffffff021916908373ffffffffffffffffffffffffffffffffffffffff1602179055508173ffffffffffffffffffffffffffffffffffffffff168173ffffffffffffffffffffffffffffffffffffffff167f8be0079c531659141344cd1fd0a4f28419497f9722a3daafe3b4186f6b6457e060405160405180910390a35050565b600080fd5b600073ffffffffffffffffffffffffffffffffffffffff82169050919050565b60006200024a826200021d565b9050919050565b6200025c816200023d565b81146200026857600080fd5b50565b6000815190506200027c8162000251565b92915050565b600080604083850312156200029c576200029b62000218565b5b6000620002ac858286016200026b565b9250506020620002bf858286016200026b565b9150509250929050565b620002d4816200023d565b82525050565b6000602082019050620002f16000830184620002c9565b92915050565b61157d80620003076000396000f3fe608060405234801561001057600080fd5b50600436106100ea5760003560e01c80638da5cb5b1161008c578063c2baf73311610066578063c2baf73314610203578063d82e39621461021f578063f2fde38b1461024f578063fc7e286d1461026b576100ea565b80638da5cb5b146101ad5780639e30b1e8146101cb578063a810a54c146101e7576100ea565b806332e2cea8116100c857806332e2cea81461014957806358ac0e8014610167578063715018a6146101855780637434f9f51461018f576100ea565b80630fc63d10146100ef5780631820cabb1461010d5780632fc5f1891461012b575b600080fd5b6100f761029e565b6040516101049190610f09565b60405180910390f35b6101156102c4565b6040516101229190610f3d565b60405180910390f35b6101336102ca565b6040516101409190610f3d565b60405180910390f35b6101516102d8565b60405161015e9190610f79565b60405180910390f35b61016f6102fe565b60405161017c9190610f3d565b60405180910390f35b61018d610304565b005b610197610318565b6040516101a49190610f3d565b60405180910390f35b6101b561031e565b6040516101c29190610fb5565b60405180910390f35b6101e560048036038101906101e09190611001565b610347565b005b61020160048036038101906101fc9190611066565b610748565b005b61021d60048036038101906102189190611001565b610aba565b005b610239600480360381019061023491906110bf565b610b03565b6040516102469190610f3d565b60405180910390f35b610269600480360381019061026491906110bf565b610c74565b005b610285600480360381019061028091906110bf565b610cfa565b60405161029594939291906110fb565b60405180910390f35b600160009054906101000a900473ffffffffffffffffffffffffffffffffffffffff1681565b61012c81565b69d3c21bcecceda100000081565b600260009054906101000a900473ffffffffffffffffffffffffffffffffffffffff1681565b60045481565b61030c610d37565b6103166000610dbe565b565b60055481565b60008060009054906101000a900473ffffffffffffffffffffffffffffffffffffffff16905090565b6000811161038a576040517f08c379a00000000000000000000000000000000000000000000000000000000081526004016103819061119d565b60405180910390fd5b80600160009054906101000a900473ffffffffffffffffffffffffffffffffffffffff1673ffffffffffffffffffffffffffffffffffffffff166370a08231336040518263ffffffff1660e01b81526004016103e69190610fb5565b602060405180830381865afa158015610403573d6000803e3d6000fd5b505050506040513d601f19601f8201168201806040525081019061042791906111d2565b1015610468576040517f08c379a000000000000000000000000000000000000000000000000000000000815260040161045f9061124b565b60405180910390fd5b600160009054906101000a900473ffffffffffffffffffffffffffffffffffffffff1673ffffffffffffffffffffffffffffffffffffffff166323b872dd3330846040518463ffffffff1660e01b81526004016104c79392919061126b565b6020604051808303816000875af11580156104e6573d6000803e3d6000fd5b505050506040513d601f19601f8201168201806040525081019061050a91906112b7565b506000600360003373ffffffffffffffffffffffffffffffffffffffff1673ffffffffffffffffffffffffffffffffffffffff16815260200190815260200160002090506000816000015403610571578181600001819055504281600101819055506105ac565b600061057c33610b03565b90508083836000015461058f9190611313565b6105999190611313565b8260000181905550428260010181905550505b69d3c21bcecceda10000008160000154101580156105d957508060030160009054906101000a900460ff16155b156106f6576000600260009054906101000a900473ffffffffffffffffffffffffffffffffffffffff1673ffffffffffffffffffffffffffffffffffffffff16636a627842336040518263ffffffff1660e01b815260040161063b9190610fb5565b6020604051808303816000875af115801561065a573d6000803e3d6000fd5b505050506040513d601f19601f8201168201806040525081019061067e91906111d2565b905060018260030160006101000a81548160ff0219169083151502179055504282600201819055503373ffffffffffffffffffffffffffffffffffffffff167f4cc0a9c4a99ddc700de1af2c9f916a7cbfdb71f14801ccff94061ad1ef8a8040826040516106ec9190610f3d565b60405180910390a2505b3373ffffffffffffffffffffffffffffffffffffffff167f2da466a7b24304f47e87fa2e1e5a81b9831ce54fec19055ce277ca2f39ba42c48360405161073c9190610f3d565b60405180910390a25050565b6000600360003373ffffffffffffffffffffffffffffffffffffffff1673ffffffffffffffffffffffffffffffffffffffff168152602001908152602001600020905060008160000154116107d2576040517f08c379a00000000000000000000000000000000000000000000000000000000081526004016107c990611393565b60405180910390fd5b61012c81600101546107e49190611313565b421015610826576040517f08c379a000000000000000000000000000000000000000000000000000000000815260040161081d906113ff565b60405180910390fd5b600061083133610b03565b9050600083610844578260000154610847565b60005b9050831561094357600160009054906101000a900473ffffffffffffffffffffffffffffffffffffffff1673ffffffffffffffffffffffffffffffffffffffff1663a9059cbb33846040518363ffffffff1660e01b81526004016108ac92919061141f565b6020604051808303816000875af11580156108cb573d6000803e3d6000fd5b505050506040513d601f19601f820116820180604052508101906108ef91906112b7565b503373ffffffffffffffffffffffffffffffffffffffff167f106f923f993c2149d49b4255ff723acafa1f2d94393f561d3eda32ae348f7241836040516109369190610f3d565b60405180910390a2610ab4565b600082826109519190611313565b9050600160009054906101000a900473ffffffffffffffffffffffffffffffffffffffff1673ffffffffffffffffffffffffffffffffffffffff1663a9059cbb33836040518363ffffffff1660e01b81526004016109b092919061141f565b6020604051808303816000875af11580156109cf573d6000803e3d6000fd5b505050506040513d601f19601f820116820180604052508101906109f391906112b7565b50600360003373ffffffffffffffffffffffffffffffffffffffff1673ffffffffffffffffffffffffffffffffffffffff168152602001908152602001600020600080820160009055600182016000905560028201600090556003820160006101000a81549060ff021916905550503373ffffffffffffffffffffffffffffffffffffffff167f92ccf450a286a957af52509bc1c9939d1a6a481783e142e41e2499f0bb66ebc68385604051610aaa929190611448565b60405180910390a2505b50505050565b610ac2610d37565b806004819055507f2ec8ccb96042321f3bbdd56e8e4e4339bc07c9c2021e14e18ef12f5db282b37a81604051610af89190610f3d565b60405180910390a150565b600080600360008473ffffffffffffffffffffffffffffffffffffffff1673ffffffffffffffffffffffffffffffffffffffff16815260200190815260200160002090506000816000015403610b5d576000915050610c6f565b60008060008360030160009054906101000a900460ff1615610c225783600101548460020154610b8d9190611471565b9250600454915064496cebb80083838660000154610bab91906114a5565b610bb591906114a5565b610bbf9190611516565b9050836002015442610bd19190611471565b9250600554600454610be39190611313565b915064496cebb80083838660000154610bfc91906114a5565b610c0691906114a5565b610c109190611516565b81610c1b9190611313565b9050610c67565b836001015442610c329190611471565b9250600454915064496cebb80083838660000154610c5091906114a5565b610c5a91906114a5565b610c649190611516565b90505b809450505050505b919050565b610c7c610d37565b600073ffffffffffffffffffffffffffffffffffffffff168173ffffffffffffffffffffffffffffffffffffffff1603610cee5760006040517f1e4fbdf7000000000000000000000000000000000000000000000000000000008152600401610ce59190610fb5565b60405180910390fd5b610cf781610dbe565b50565b60036020528060005260406000206000915090508060000154908060010154908060020154908060030160009054906101000a900460ff16905084565b610d3f610e82565b73ffffffffffffffffffffffffffffffffffffffff16610d5d61031e565b73ffffffffffffffffffffffffffffffffffffffff1614610dbc57610d80610e82565b6040517f118cdaa7000000000000000000000000000000000000000000000000000000008152600401610db39190610fb5565b60405180910390fd5b565b60008060009054906101000a900473ffffffffffffffffffffffffffffffffffffffff169050816000806101000a81548173ffffffffffffffffffffffffffffffffffffffff021916908373ffffffffffffffffffffffffffffffffffffffff1602179055508173ffffffffffffffffffffffffffffffffffffffff168173ffffffffffffffffffffffffffffffffffffffff167f8be0079c531659141344cd1fd0a4f28419497f9722a3daafe3b4186f6b6457e060405160405180910390a35050565b600033905090565b600073ffffffffffffffffffffffffffffffffffffffff82169050919050565b6000819050919050565b6000610ecf610eca610ec584610e8a565b610eaa565b610e8a565b9050919050565b6000610ee182610eb4565b9050919050565b6000610ef382610ed6565b9050919050565b610f0381610ee8565b82525050565b6000602082019050610f1e6000830184610efa565b92915050565b6000819050919050565b610f3781610f24565b82525050565b6000602082019050610f526000830184610f2e565b92915050565b6000610f6382610ed6565b9050919050565b610f7381610f58565b82525050565b6000602082019050610f8e6000830184610f6a565b92915050565b6000610f9f82610e8a565b9050919050565b610faf81610f94565b82525050565b6000602082019050610fca6000830184610fa6565b92915050565b600080fd5b610fde81610f24565b8114610fe957600080fd5b50565b600081359050610ffb81610fd5565b92915050565b60006020828403121561101757611016610fd0565b5b600061102584828501610fec565b91505092915050565b60008115159050919050565b6110438161102e565b811461104e57600080fd5b50565b6000813590506110608161103a565b92915050565b60006020828403121561107c5761107b610fd0565b5b600061108a84828501611051565b91505092915050565b61109c81610f94565b81146110a757600080fd5b50565b6000813590506110b981611093565b92915050565b6000602082840312156110d5576110d4610fd0565b5b60006110e3848285016110aa565b91505092915050565b6110f58161102e565b82525050565b60006080820190506111106000830187610f2e565b61111d6020830186610f2e565b61112a6040830185610f2e565b61113760608301846110ec565b95945050505050565b600082825260208201905092915050565b7f416d6f756e74206d7573742062652067726561746572207468616e2030000000600082015250565b6000611187601d83611140565b915061119282611151565b602082019050919050565b600060208201905081810360008301526111b68161117a565b9050919050565b6000815190506111cc81610fd5565b92915050565b6000602082840312156111e8576111e7610fd0565b5b60006111f6848285016111bd565b91505092915050565b7f496e73756666696369656e742062616c616e6365000000000000000000000000600082015250565b6000611235601483611140565b9150611240826111ff565b602082019050919050565b6000602082019050818103600083015261126481611228565b9050919050565b60006060820190506112806000830186610fa6565b61128d6020830185610fa6565b61129a6040830184610f2e565b949350505050565b6000815190506112b18161103a565b92915050565b6000602082840312156112cd576112cc610fd0565b5b60006112db848285016112a2565b91505092915050565b7f4e487b7100000000000000000000000000000000000000000000000000000000600052601160045260246000fd5b600061131e82610f24565b915061132983610f24565b9250828201905080821115611341576113406112e4565b5b92915050565b7f4e6f206465706f73697420666f756e6400000000000000000000000000000000600082015250565b600061137d601083611140565b915061138882611347565b602082019050919050565b600060208201905081810360008301526113ac81611370565b9050919050565b7f546f6b656e7320617265207374696c6c206c6f636b6564000000000000000000600082015250565b60006113e9601783611140565b91506113f4826113b3565b602082019050919050565b60006020820190508181036000830152611418816113dc565b9050919050565b60006040820190506114346000830185610fa6565b6114416020830184610f2e565b9392505050565b600060408201905061145d6000830185610f2e565b61146a6020830184610f2e565b9392505050565b600061147c82610f24565b915061148783610f24565b925082820390508181111561149f5761149e6112e4565b5b92915050565b60006114b082610f24565b91506114bb83610f24565b92508282026114c981610f24565b915082820484148315176114e0576114df6112e4565b5b5092915050565b7f4e487b7100000000000000000000000000000000000000000000000000000000600052601260045260246000fd5b600061152182610f24565b915061152c83610f24565b92508261153c5761153b6114e7565b5b82820490509291505056fea264697066735822122069cdffd19870ee7614bbbcd004400e36c75e7b979da263c9b1e5df7ba30cb3f464736f6c63430008140033",
  "linkReferences": {},
  "deployedLinkReferences": {}
}