{
  "_format": "hh-sol-artifact-1",
  "contractName": "Staking",
  "sourceName": "contracts/Staking.sol",
  "abi": [
    {
      "inputs": [
        {
          "internalType": "address",
          "name": "_tokenA",
          "type": "address"
        },
        {
          "internalType": "address",
          "name": "_nftB",
          "type": "address"
        }
      ],
      "stateMutability": "nonpayable",
      "type": "constructor"
    },
    {
      "inputs": [
        {
          "internalType": "address",
          "name": "owner",
          "type": "address"
        }
      ],
      "name": "OwnableInvalidOwner",
      "type": "error"
    },
    {
      "inputs": [
        {
          "internalType": "address",
          "name": "account",
          "type": "address"
        }
      ],
      "name": "OwnableUnauthorizedAccount",
      "type": "error"
    },
    {
      "anonymous": false,
      "inputs": [
        {
          "indexed": false,
          "internalType": "uint256",
          "name": "newBaseAPR",
          "type": "uint256"
        }
      ],
      "name": "APRUpdated",
      "type": "event"
    },
    {
      "anonymous": false,
      "inputs": [
        {
          "indexed": true,
          "internalType": "address",
          "name": "user",
          "type": "address"
        },
        {
          "indexed": false,
          "internalType": "uint256",
          "name": "amount",
          "type": "uint256"
        }
      ],
      "name": "Deposited",
      "type": "event"
    },
    {
      "anonymous": false,
      "inputs": [
        {
          "indexed": true,
          "internalType": "address",
          "name": "user",
          "type": "address"
        },
        {
          "indexed": false,
          "internalType": "uint256",
          "name": "tokenId",
          "type": "uint256"
        }
      ],
      "name": "NFTDeposited",
      "type": "event"
    },
    {
      "anonymous": false,
      "inputs": [
        {
          "indexed": true,
          "internalType": "address",
          "name": "previousOwner",
          "type": "address"
        },
        {
          "indexed": true,
          "internalType": "address",
          "name": "newOwner",
          "type": "address"
        }
      ],
      "name": "OwnershipTransferred",
      "type": "event"
    },
    {
      "anonymous": false,
      "inputs": [
        {
          "indexed": true,
          "internalType": "address",
          "name": "user",
          "type": "address"
        },
        {
          "indexed": false,
          "internalType": "uint256",
          "name": "reward",
          "type": "uint256"
        }
      ],
      "name": "RewardClaimed",
      "type": "event"
    },
    {
      "anonymous": false,
      "inputs": [
        {
          "indexed": true,
          "internalType": "address",
          "name": "user",
          "type": "address"
        },
        {
          "indexed": false,
          "internalType": "uint256",
          "name": "amount",
          "type": "uint256"
        },
        {
          "indexed": false,
          "internalType": "uint256",
          "name": "reward",
          "type": "uint256"
        }
      ],
      "name": "Withdrawn",
      "type": "event"
    },
    {
      "inputs": [],
      "name": "LOCK_PERIOD",
      "outputs": [
        {
          "internalType": "uint256",
          "name": "",
          "type": "uint256"
        }
      ],
      "stateMutability": "view",
      "type": "function"
    },
    {
      "inputs": [],
      "name": "NFT_THRESHOLD",
      "outputs": [
        {
          "internalType": "uint256",
          "name": "",
          "type": "uint256"
        }
      ],
      "stateMutability": "view",
      "type": "function"
    },
    {
      "inputs": [],
      "name": "baseAPR",
      "outputs": [
        {
          "internalType": "uint256",
          "name": "",
          "type": "uint256"
        }
      ],
      "stateMutability": "view",
      "type": "function"
    },
    {
      "inputs": [
        {
          "internalType": "address",
          "name": "user",
          "type": "address"
        }
      ],
      "name": "calculateReward",
      "outputs": [
        {
          "internalType": "uint256",
          "name": "",
          "type": "uint256"
        }
      ],
      "stateMutability": "view",
      "type": "function"
    },
    {
      "inputs": [],
      "name": "claimReward",
      "outputs": [],
      "stateMutability": "nonpayable",
      "type": "function"
    },
    {
      "inputs": [
        {
          "internalType": "uint256",
          "name": "amount",
          "type": "uint256"
        }
      ],
      "name": "deposit",
      "outputs": [],
      "stateMutability": "nonpayable",
      "type": "function"
    },
    {
      "inputs": [
        {
          "internalType": "uint256",
          "name": "tokenId",
          "type": "uint256"
        }
      ],
      "name": "depositNFT",
      "outputs": [],
      "stateMutability": "nonpayable",
      "type": "function"
    },
    {
      "inputs": [],
      "name": "nftB",
      "outputs": [
        {
          "internalType": "contract NFTB",
          "name": "",
          "type": "address"
        }
      ],
      "stateMutability": "view",
      "type": "function"
    },
    {
      "inputs": [],
      "name": "nftBonusAPR",
      "outputs": [
        {
          "internalType": "uint256",
          "name": "",
          "type": "uint256"
        }
      ],
      "stateMutability": "view",
      "type": "function"
    },
    {
      "inputs": [],
      "name": "owner",
      "outputs": [
        {
          "internalType": "address",
          "name": "",
          "type": "address"
        }
      ],
      "stateMutability": "view",
      "type": "function"
    },
    {
      "inputs": [],
      "name": "renounceOwnership",
      "outputs": [],
      "stateMutability": "nonpayable",
      "type": "function"
    },
    {
      "inputs": [
        {
          "internalType": "address",
          "name": "",
          "type": "address"
        }
      ],
      "name": "stakes",
      "outputs": [
        {
          "internalType": "uint256",
          "name": "amount",
          "type": "uint256"
        },
        {
          "internalType": "uint256",
          "name": "timestamp",
          "type": "uint256"
        },
        {
          "internalType": "uint256",
          "name": "nftDepositTime",
          "type": "uint256"
        },
        {
          "internalType": "uint256",
          "name": "nftCount",
          "type": "uint256"
        }
      ],
      "stateMutability": "view",
      "type": "function"
    },
    {
      "inputs": [],
      "name": "tokenA",
      "outputs": [
        {
          "internalType": "contract TokenA",
          "name": "",
          "type": "address"
        }
      ],
      "stateMutability": "view",
      "type": "function"
    },
    {
      "inputs": [
        {
          "internalType": "address",
          "name": "newOwner",
          "type": "address"
        }
      ],
      "name": "transferOwnership",
      "outputs": [],
      "stateMutability": "nonpayable",
      "type": "function"
    },
    {
      "inputs": [
        {
          "internalType": "uint256",
          "name": "newBaseAPR",
          "type": "uint256"
        }
      ],
      "name": "updateBaseAPR",
      "outputs": [],
      "stateMutability": "nonpayable",
      "type": "function"
    },
    {
      "inputs": [],
      "name": "withdraw",
      "outputs": [],
      "stateMutability": "nonpayable",
      "type": "function"
    }
  ],
  "bytecode": "0x608060405261032060035560c860045534801561001b57600080fd5b50604051610e87380380610e8783398101604081905261003a91610107565b338061006057604051631e4fbdf760e01b81526000600482015260240160405180910390fd5b6100698161009b565b50600180546001600160a01b039384166001600160a01b0319918216179091556002805492909316911617905561013a565b600080546001600160a01b038381166001600160a01b0319831681178455604051919092169283917f8be0079c531659141344cd1fd0a4f28419497f9722a3daafe3b4186f6b6457e09190a35050565b80516001600160a01b038116811461010257600080fd5b919050565b6000806040838503121561011a57600080fd5b610123836100eb565b9150610131602084016100eb565b90509250929050565b610d3e806101496000396000f3fe608060405234801561001057600080fd5b50600436106101005760003560e01c80638da5cb5b11610097578063c2baf73311610066578063c2baf73314610215578063d82e396214610228578063e91a7ca61461023b578063f2fde38b1461024e57600080fd5b80638da5cb5b146101d857806393c49484146101e9578063b6b55f25146101fa578063b88a802f1461020d57600080fd5b80633ccfd60b116100d35780633ccfd60b146101b457806358ac0e80146101be5780637120f294146101c7578063715018a6146101d057600080fd5b80630fc63d101461010557806316934fc4146101355780631820cabb1461018a57806332e2cea8146101a1575b600080fd5b600154610118906001600160a01b031681565b6040516001600160a01b0390911681526020015b60405180910390f35b61016a610143366004610bb6565b60056020526000908152604090208054600182015460028301546003909301549192909184565b60408051948552602085019390935291830152606082015260800161012c565b61019361012c81565b60405190815260200161012c565b600254610118906001600160a01b031681565b6101bc610261565b005b61019360035481565b61019360045481565b6101bc610432565b6000546001600160a01b0316610118565b61019369d3c21bcecceda100000081565b6101bc610208366004610bda565b610446565b6101bc6106a5565b6101bc610223366004610bda565b6107e0565b610193610236366004610bb6565b610823565b6101bc610249366004610bda565b610953565b6101bc61025c366004610bb6565b610ae6565b33600090815260056020526040902080546102ba5760405162461bcd60e51b81526020600482015260146024820152734e6f207374616b6520746f20776974686472617760601b60448201526064015b60405180910390fd5b61012c81600101546102cc9190610c09565b42101561031b5760405162461bcd60e51b815260206004820152601760248201527f546f6b656e7320617265207374696c6c206c6f636b656400000000000000000060448201526064016102b1565b600061032633610823565b9050600081836000015461033a9190610c09565b60015460405163a9059cbb60e01b8152336004820152602481018390529192506001600160a01b03169063a9059cbb906044016020604051808303816000875af115801561038c573d6000803e3d6000fd5b505050506040513d601f19601f820116820180604052508101906103b09190610c22565b6103cc5760405162461bcd60e51b81526004016102b190610c44565b8254604080519182526020820184905233917f92ccf450a286a957af52509bc1c9939d1a6a481783e142e41e2499f0bb66ebc6910160405180910390a2505033600090815260056020526040812081815560018101829055600281018290556003015550565b61043a610b24565b6104446000610b51565b565b600081116104965760405162461bcd60e51b815260206004820152601d60248201527f416d6f756e74206d7573742062652067726561746572207468616e203000000060448201526064016102b1565b6001546040516323b872dd60e01b8152336004820152306024820152604481018390526001600160a01b03909116906323b872dd906064016020604051808303816000875af11580156104ed573d6000803e3d6000fd5b505050506040513d601f19601f820116820180604052508101906105119190610c22565b61052d5760405162461bcd60e51b81526004016102b190610c44565b33600090815260056020526040902080541561056b57600061054e33610823565b9050808260000160008282546105649190610c09565b9091555050505b8181600001600082825461057f9190610c09565b9091555050426001820155805469d3c21bcecceda1000000118015906105a757506003810154155b1561066b576002546040516340d097c360e01b81523360048201526000916001600160a01b0316906340d097c3906024016020604051808303816000875af11580156105f7573d6000803e3d6000fd5b505050506040513d601f19601f8201168201806040525081019061061b9190610c6d565b600383018054919250600061062f83610c86565b909155505060405181815233907f1c4b8380f61aea3d5d98cbadaf2e6b2e4f3d8ca8c0fce1290b26ac267158745f9060200160405180910390a2505b60405182815233907f2da466a7b24304f47e87fa2e1e5a81b9831ce54fec19055ce277ca2f39ba42c4906020015b60405180910390a25050565b60006106b033610823565b9050600081116106f75760405162461bcd60e51b81526020600482015260126024820152714e6f2072657761726420746f20636c61696d60701b60448201526064016102b1565b60015460405163a9059cbb60e01b8152336004820152602481018390526001600160a01b039091169063a9059cbb906044016020604051808303816000875af1158015610748573d6000803e3d6000fd5b505050506040513d601f19601f8201168201806040525081019061076c9190610c22565b6107885760405162461bcd60e51b81526004016102b190610c44565b3360009081526005602052604090204260018201556002810154156107ae574260028201555b60405182815233907f106f923f993c2149d49b4255ff723acafa1f2d94393f561d3eda32ae348f724190602001610699565b6107e8610b24565b60038190556040518181527f2ec8ccb96042321f3bbdd56e8e4e4339bc07c9c2021e14e18ef12f5db282b37a9060200160405180910390a150565b6001600160a01b03811660009081526005602052604081208054820361084c5750600092915050565b600081600101544261085e9190610c9f565b90506000808360020154111561091b57600064496cebb8008460010154856002015461088a9190610c9f565b60035486546108999190610cb2565b6108a39190610cb2565b6108ad9190610cc9565b9050600064496cebb8008560020154426108c79190610c9f565b86600301546004546108d99190610cb2565b6003546108e69190610c09565b87546108f29190610cb2565b6108fc9190610cb2565b6109069190610cc9565b90506109128183610c09565b9250505061094b565b64496cebb8008260035485600001546109349190610cb2565b61093e9190610cb2565b6109489190610cc9565b90505b949350505050565b6002546040516331a9108f60e11b81526004810183905233916001600160a01b031690636352211e90602401602060405180830381865afa15801561099c573d6000803e3d6000fd5b505050506040513d601f19601f820116820180604052508101906109c09190610ceb565b6001600160a01b031614610a0f5760405162461bcd60e51b8152602060048201526016602482015275165bdd48191bdb89dd081bdddb881d1a1a5cc813919560521b60448201526064016102b1565b6002546040516323b872dd60e01b8152336004820152306024820152604481018390526001600160a01b03909116906323b872dd90606401600060405180830381600087803b158015610a6157600080fd5b505af1158015610a75573d6000803e3d6000fd5b5050336000908152600560205260408120600281015490935090039050610a9d574260028201555b600381018054906000610aaf83610c86565b909155505060405182815233907f1c4b8380f61aea3d5d98cbadaf2e6b2e4f3d8ca8c0fce1290b26ac267158745f90602001610699565b610aee610b24565b6001600160a01b038116610b1857604051631e4fbdf760e01b8152600060048201526024016102b1565b610b2181610b51565b50565b6000546001600160a01b031633146104445760405163118cdaa760e01b81523360048201526024016102b1565b600080546001600160a01b038381166001600160a01b0319831681178455604051919092169283917f8be0079c531659141344cd1fd0a4f28419497f9722a3daafe3b4186f6b6457e09190a35050565b6001600160a01b0381168114610b2157600080fd5b600060208284031215610bc857600080fd5b8135610bd381610ba1565b9392505050565b600060208284031215610bec57600080fd5b5035919050565b634e487b7160e01b600052601160045260246000fd5b80820180821115610c1c57610c1c610bf3565b92915050565b600060208284031215610c3457600080fd5b81518015158114610bd357600080fd5b6020808252600f908201526e151c985b9cd9995c8819985a5b1959608a1b604082015260600190565b600060208284031215610c7f57600080fd5b5051919050565b600060018201610c9857610c98610bf3565b5060010190565b81810381811115610c1c57610c1c610bf3565b8082028115828204841417610c1c57610c1c610bf3565b600082610ce657634e487b7160e01b600052601260045260246000fd5b500490565b600060208284031215610cfd57600080fd5b8151610bd381610ba156fea2646970667358221220ce628f7238f73b981e3d9861f73c4b6f84f46ebba538faeed9f6f452d59458fe64736f6c63430008140033",
  "linkReferences": {},
  "deployedLinkReferences": {}
}