{
  "_format": "hh-sol-artifact-1",
  "contractName": "TokenFaucet",
  "sourceName": "contracts/TokenFaucet.sol",
  "abi": [
    {
      "inputs": [
        {
          "internalType": "address",
          "name": "_tokenA",
          "type": "address"
        },
        {
          "internalType": "uint256",
          "name": "_amountPerRequest",
          "type": "uint256"
        },
        {
          "internalType": "uint256",
          "name": "_cooldownPeriod",
          "type": "uint256"
        }
      ],
      "stateMutability": "nonpayable",
      "type": "constructor"
    },
    {
      "inputs": [
        {
          "internalType": "address",
          "name": "owner",
          "type": "address"
        }
      ],
      "name": "OwnableInvalidOwner",
      "type": "error"
    },
    {
      "inputs": [
        {
          "internalType": "address",
          "name": "account",
          "type": "address"
        }
      ],
      "name": "OwnableUnauthorizedAccount",
      "type": "error"
    },
    {
      "anonymous": false,
      "inputs": [
        {
          "indexed": true,
          "internalType": "address",
          "name": "previousOwner",
          "type": "address"
        },
        {
          "indexed": true,
          "internalType": "address",
          "name": "newOwner",
          "type": "address"
        }
      ],
      "name": "OwnershipTransferred",
      "type": "event"
    },
    {
      "anonymous": false,
      "inputs": [
        {
          "indexed": false,
          "internalType": "address",
          "name": "recipient",
          "type": "address"
        },
        {
          "indexed": false,
          "internalType": "uint256",
          "name": "amount",
          "type": "uint256"
        }
      ],
      "name": "TokensDistributed",
      "type": "event"
    },
    {
      "inputs": [],
      "name": "amountPerRequest",
      "outputs": [
        {
          "internalType": "uint256",
          "name": "",
          "type": "uint256"
        }
      ],
      "stateMutability": "view",
      "type": "function"
    },
    {
      "inputs": [],
      "name": "cooldownPeriod",
      "outputs": [
        {
          "internalType": "uint256",
          "name": "",
          "type": "uint256"
        }
      ],
      "stateMutability": "view",
      "type": "function"
    },
    {
      "inputs": [
        {
          "internalType": "address",
          "name": "",
          "type": "address"
        }
      ],
      "name": "lastRequestTime",
      "outputs": [
        {
          "internalType": "uint256",
          "name": "",
          "type": "uint256"
        }
      ],
      "stateMutability": "view",
      "type": "function"
    },
    {
      "inputs": [],
      "name": "owner",
      "outputs": [
        {
          "internalType": "address",
          "name": "",
          "type": "address"
        }
      ],
      "stateMutability": "view",
      "type": "function"
    },
    {
      "inputs": [],
      "name": "renounceOwnership",
      "outputs": [],
      "stateMutability": "nonpayable",
      "type": "function"
    },
    {
      "inputs": [],
      "name": "requestTokens",
      "outputs": [],
      "stateMutability": "nonpayable",
      "type": "function"
    },
    {
      "inputs": [
        {
          "internalType": "uint256",
          "name": "_amountPerRequest",
          "type": "uint256"
        }
      ],
      "name": "setAmountPerRequest",
      "outputs": [],
      "stateMutability": "nonpayable",
      "type": "function"
    },
    {
      "inputs": [
        {
          "internalType": "uint256",
          "name": "_cooldownPeriod",
          "type": "uint256"
        }
      ],
      "name": "setCooldownPeriod",
      "outputs": [],
      "stateMutability": "nonpayable",
      "type": "function"
    },
    {
      "inputs": [],
      "name": "tokenA",
      "outputs": [
        {
          "internalType": "contract IERC20",
          "name": "",
          "type": "address"
        }
      ],
      "stateMutability": "view",
      "type": "function"
    },
    {
      "inputs": [
        {
          "internalType": "address",
          "name": "newOwner",
          "type": "address"
        }
      ],
      "name": "transferOwnership",
      "outputs": [],
      "stateMutability": "nonpayable",
      "type": "function"
    },
    {
      "inputs": [
        {
          "internalType": "uint256",
          "name": "amount",
          "type": "uint256"
        }
      ],
      "name": "withdrawTokens",
      "outputs": [],
      "stateMutability": "nonpayable",
      "type": "function"
    }
  ],
  "bytecode": "0x60806040523480156200001157600080fd5b506040516200104b3803806200104b833981810160405281019062000037919062000280565b33600073ffffffffffffffffffffffffffffffffffffffff168173ffffffffffffffffffffffffffffffffffffffff1603620000ad5760006040517f1e4fbdf7000000000000000000000000000000000000000000000000000000008152600401620000a49190620002ed565b60405180910390fd5b620000be816200011760201b60201c565b5082600160006101000a81548173ffffffffffffffffffffffffffffffffffffffff021916908373ffffffffffffffffffffffffffffffffffffffff16021790555081600281905550806004819055505050506200030a565b60008060009054906101000a900473ffffffffffffffffffffffffffffffffffffffff169050816000806101000a81548173ffffffffffffffffffffffffffffffffffffffff021916908373ffffffffffffffffffffffffffffffffffffffff1602179055508173ffffffffffffffffffffffffffffffffffffffff168173ffffffffffffffffffffffffffffffffffffffff167f8be0079c531659141344cd1fd0a4f28419497f9722a3daafe3b4186f6b6457e060405160405180910390a35050565b600080fd5b600073ffffffffffffffffffffffffffffffffffffffff82169050919050565b60006200020d82620001e0565b9050919050565b6200021f8162000200565b81146200022b57600080fd5b50565b6000815190506200023f8162000214565b92915050565b6000819050919050565b6200025a8162000245565b81146200026657600080fd5b50565b6000815190506200027a816200024f565b92915050565b6000806000606084860312156200029c576200029b620001db565b5b6000620002ac868287016200022e565b9350506020620002bf8682870162000269565b9250506040620002d28682870162000269565b9150509250925092565b620002e78162000200565b82525050565b6000602082019050620003046000830184620002dc565b92915050565b610d31806200031a6000396000f3fe608060405234801561001057600080fd5b50600436106100a95760003560e01c8063656734ed11610071578063656734ed146101405780636a9674911461015c578063715018a61461017a57806380ea3de1146101845780638da5cb5b146101a0578063f2fde38b146101be576100a9565b806304646a49146100ae5780630fc63d10146100cc578063315a095d146100ea578063359cf2b714610106578063394f618114610110575b600080fd5b6100b66101da565b6040516100c39190610839565b60405180910390f35b6100d46101e0565b6040516100e191906108d3565b60405180910390f35b61010460048036038101906100ff919061091f565b610206565b005b61010e6102f7565b005b61012a6004803603810190610125919061098a565b6105c8565b6040516101379190610839565b60405180910390f35b61015a6004803603810190610155919061091f565b6105e0565b005b6101646105f2565b6040516101719190610839565b60405180910390f35b6101826105f8565b005b61019e6004803603810190610199919061091f565b61060c565b005b6101a861061e565b6040516101b591906109c6565b60405180910390f35b6101d860048036038101906101d3919061098a565b610647565b005b60045481565b600160009054906101000a900473ffffffffffffffffffffffffffffffffffffffff1681565b61020e6106cd565b600160009054906101000a900473ffffffffffffffffffffffffffffffffffffffff1673ffffffffffffffffffffffffffffffffffffffff1663a9059cbb61025461061e565b836040518363ffffffff1660e01b81526004016102729291906109e1565b6020604051808303816000875af1158015610291573d6000803e3d6000fd5b505050506040513d601f19601f820116820180604052508101906102b59190610a42565b6102f4576040517f08c379a00000000000000000000000000000000000000000000000000000000081526004016102eb90610acc565b60405180910390fd5b50565b600454600360003373ffffffffffffffffffffffffffffffffffffffff1673ffffffffffffffffffffffffffffffffffffffff168152602001908152602001600020546103449190610b1b565b421015610386576040517f08c379a000000000000000000000000000000000000000000000000000000000815260040161037d90610bc1565b60405180910390fd5b600254600160009054906101000a900473ffffffffffffffffffffffffffffffffffffffff1673ffffffffffffffffffffffffffffffffffffffff166370a08231306040518263ffffffff1660e01b81526004016103e491906109c6565b602060405180830381865afa158015610401573d6000803e3d6000fd5b505050506040513d601f19601f820116820180604052508101906104259190610bf6565b1015610466576040517f08c379a000000000000000000000000000000000000000000000000000000000815260040161045d90610c6f565b60405180910390fd5b42600360003373ffffffffffffffffffffffffffffffffffffffff1673ffffffffffffffffffffffffffffffffffffffff16815260200190815260200160002081905550600160009054906101000a900473ffffffffffffffffffffffffffffffffffffffff1673ffffffffffffffffffffffffffffffffffffffff1663a9059cbb336002546040518363ffffffff1660e01b81526004016105099291906109e1565b6020604051808303816000875af1158015610528573d6000803e3d6000fd5b505050506040513d601f19601f8201168201806040525081019061054c9190610a42565b61058b576040517f08c379a000000000000000000000000000000000000000000000000000000000815260040161058290610cdb565b60405180910390fd5b7f16b0da2ffcb90c6723317bd637d9aad7f04711f42bbe0ac0918ebe10f1f9001c336002546040516105be9291906109e1565b60405180910390a1565b60036020528060005260406000206000915090505481565b6105e86106cd565b8060028190555050565b60025481565b6106006106cd565b61060a6000610754565b565b6106146106cd565b8060048190555050565b60008060009054906101000a900473ffffffffffffffffffffffffffffffffffffffff16905090565b61064f6106cd565b600073ffffffffffffffffffffffffffffffffffffffff168173ffffffffffffffffffffffffffffffffffffffff16036106c15760006040517f1e4fbdf70000000000000000000000000000000000000000000000000000000081526004016106b891906109c6565b60405180910390fd5b6106ca81610754565b50565b6106d5610818565b73ffffffffffffffffffffffffffffffffffffffff166106f361061e565b73ffffffffffffffffffffffffffffffffffffffff161461075257610716610818565b6040517f118cdaa700000000000000000000000000000000000000000000000000000000815260040161074991906109c6565b60405180910390fd5b565b60008060009054906101000a900473ffffffffffffffffffffffffffffffffffffffff169050816000806101000a81548173ffffffffffffffffffffffffffffffffffffffff021916908373ffffffffffffffffffffffffffffffffffffffff1602179055508173ffffffffffffffffffffffffffffffffffffffff168173ffffffffffffffffffffffffffffffffffffffff167f8be0079c531659141344cd1fd0a4f28419497f9722a3daafe3b4186f6b6457e060405160405180910390a35050565b600033905090565b6000819050919050565b61083381610820565b82525050565b600060208201905061084e600083018461082a565b92915050565b600073ffffffffffffffffffffffffffffffffffffffff82169050919050565b6000819050919050565b600061089961089461088f84610854565b610874565b610854565b9050919050565b60006108ab8261087e565b9050919050565b60006108bd826108a0565b9050919050565b6108cd816108b2565b82525050565b60006020820190506108e860008301846108c4565b92915050565b600080fd5b6108fc81610820565b811461090757600080fd5b50565b600081359050610919816108f3565b92915050565b600060208284031215610935576109346108ee565b5b60006109438482850161090a565b91505092915050565b600061095782610854565b9050919050565b6109678161094c565b811461097257600080fd5b50565b6000813590506109848161095e565b92915050565b6000602082840312156109a05761099f6108ee565b5b60006109ae84828501610975565b91505092915050565b6109c08161094c565b82525050565b60006020820190506109db60008301846109b7565b92915050565b60006040820190506109f660008301856109b7565b610a03602083018461082a565b9392505050565b60008115159050919050565b610a1f81610a0a565b8114610a2a57600080fd5b50565b600081519050610a3c81610a16565b92915050565b600060208284031215610a5857610a576108ee565b5b6000610a6684828501610a2d565b91505092915050565b600082825260208201905092915050565b7f546f6b656e207769746864726177616c206661696c6564000000000000000000600082015250565b6000610ab6601783610a6f565b9150610ac182610a80565b602082019050919050565b60006020820190508181036000830152610ae581610aa9565b9050919050565b7f4e487b7100000000000000000000000000000000000000000000000000000000600052601160045260246000fd5b6000610b2682610820565b9150610b3183610820565b9250828201905080821115610b4957610b48610aec565b5b92915050565b7f506c656173652077616974206265666f72652072657175657374696e6720616760008201527f61696e0000000000000000000000000000000000000000000000000000000000602082015250565b6000610bab602383610a6f565b9150610bb682610b4f565b604082019050919050565b60006020820190508181036000830152610bda81610b9e565b9050919050565b600081519050610bf0816108f3565b92915050565b600060208284031215610c0c57610c0b6108ee565b5b6000610c1a84828501610be1565b91505092915050565b7f46617563657420697320656d7074790000000000000000000000000000000000600082015250565b6000610c59600f83610a6f565b9150610c6482610c23565b602082019050919050565b60006020820190508181036000830152610c8881610c4c565b9050919050565b7f546f6b656e207472616e73666572206661696c65640000000000000000000000600082015250565b6000610cc5601583610a6f565b9150610cd082610c8f565b602082019050919050565b60006020820190508181036000830152610cf481610cb8565b905091905056fea2646970667358221220f1c0ca3263f3e56046e0c953c761f387dbc9e56aeeb93c450f31647e0dda093164736f6c63430008140033",
  "linkReferences": {},
  "deployedLinkReferences": {}
}