{
  "_format": "hh-sol-artifact-1",
  "contractName": "UpgradeableNFTB",
  "sourceName": "contracts/NFTB.sol",
  "abi": [
    {
      "inputs": [],
      "stateMutability": "nonpayable",
      "type": "constructor"
    },
    {
      "inputs": [
        {
          "internalType": "address",
          "name": "target",
          "type": "address"
        }
      ],
      "name": "AddressEmptyCode",
      "type": "error"
    },
    {
      "inputs": [
        {
          "internalType": "address",
          "name": "implementation",
          "type": "address"
        }
      ],
      "name": "ERC1967InvalidImplementation",
      "type": "error"
    },
    {
      "inputs": [],
      "name": "ERC1967NonPayable",
      "type": "error"
    },
    {
      "inputs": [
        {
          "internalType": "address",
          "name": "sender",
          "type": "address"
        },
        {
          "internalType": "uint256",
          "name": "tokenId",
          "type": "uint256"
        },
        {
          "internalType": "address",
          "name": "owner",
          "type": "address"
        }
      ],
      "name": "ERC721IncorrectOwner",
      "type": "error"
    },
    {
      "inputs": [
        {
          "internalType": "address",
          "name": "operator",
          "type": "address"
        },
        {
          "internalType": "uint256",
          "name": "tokenId",
          "type": "uint256"
        }
      ],
      "name": "ERC721InsufficientApproval",
      "type": "error"
    },
    {
      "inputs": [
        {
          "internalType": "address",
          "name": "approver",
          "type": "address"
        }
      ],
      "name": "ERC721InvalidApprover",
      "type": "error"
    },
    {
      "inputs": [
        {
          "internalType": "address",
          "name": "operator",
          "type": "address"
        }
      ],
      "name": "ERC721InvalidOperator",
      "type": "error"
    },
    {
      "inputs": [
        {
          "internalType": "address",
          "name": "owner",
          "type": "address"
        }
      ],
      "name": "ERC721InvalidOwner",
      "type": "error"
    },
    {
      "inputs": [
        {
          "internalType": "address",
          "name": "receiver",
          "type": "address"
        }
      ],
      "name": "ERC721InvalidReceiver",
      "type": "error"
    },
    {
      "inputs": [
        {
          "internalType": "address",
          "name": "sender",
          "type": "address"
        }
      ],
      "name": "ERC721InvalidSender",
      "type": "error"
    },
    {
      "inputs": [
        {
          "internalType": "uint256",
          "name": "tokenId",
          "type": "uint256"
        }
      ],
      "name": "ERC721NonexistentToken",
      "type": "error"
    },
    {
      "inputs": [],
      "name": "FailedInnerCall",
      "type": "error"
    },
    {
      "inputs": [],
      "name": "InvalidInitialization",
      "type": "error"
    },
    {
      "inputs": [],
      "name": "NotInitializing",
      "type": "error"
    },
    {
      "inputs": [
        {
          "internalType": "address",
          "name": "owner",
          "type": "address"
        }
      ],
      "name": "OwnableInvalidOwner",
      "type": "error"
    },
    {
      "inputs": [
        {
          "internalType": "address",
          "name": "account",
          "type": "address"
        }
      ],
      "name": "OwnableUnauthorizedAccount",
      "type": "error"
    },
    {
      "inputs": [],
      "name": "UUPSUnauthorizedCallContext",
      "type": "error"
    },
    {
      "inputs": [
        {
          "internalType": "bytes32",
          "name": "slot",
          "type": "bytes32"
        }
      ],
      "name": "UUPSUnsupportedProxiableUUID",
      "type": "error"
    },
    {
      "anonymous": false,
      "inputs": [
        {
          "indexed": true,
          "internalType": "address",
          "name": "owner",
          "type": "address"
        },
        {
          "indexed": true,
          "internalType": "address",
          "name": "approved",
          "type": "address"
        },
        {
          "indexed": true,
          "internalType": "uint256",
          "name": "tokenId",
          "type": "uint256"
        }
      ],
      "name": "Approval",
      "type": "event"
    },
    {
      "anonymous": false,
      "inputs": [
        {
          "indexed": true,
          "internalType": "address",
          "name": "owner",
          "type": "address"
        },
        {
          "indexed": true,
          "internalType": "address",
          "name": "operator",
          "type": "address"
        },
        {
          "indexed": false,
          "internalType": "bool",
          "name": "approved",
          "type": "bool"
        }
      ],
      "name": "ApprovalForAll",
      "type": "event"
    },
    {
      "anonymous": false,
      "inputs": [
        {
          "indexed": false,
          "internalType": "uint64",
          "name": "version",
          "type": "uint64"
        }
      ],
      "name": "Initialized",
      "type": "event"
    },
    {
      "anonymous": false,
      "inputs": [
        {
          "indexed": true,
          "internalType": "address",
          "name": "previousOwner",
          "type": "address"
        },
        {
          "indexed": true,
          "internalType": "address",
          "name": "newOwner",
          "type": "address"
        }
      ],
      "name": "OwnershipTransferred",
      "type": "event"
    },
    {
      "anonymous": false,
      "inputs": [
        {
          "indexed": true,
          "internalType": "address",
          "name": "from",
          "type": "address"
        },
        {
          "indexed": true,
          "internalType": "address",
          "name": "to",
          "type": "address"
        },
        {
          "indexed": true,
          "internalType": "uint256",
          "name": "tokenId",
          "type": "uint256"
        }
      ],
      "name": "Transfer",
      "type": "event"
    },
    {
      "anonymous": false,
      "inputs": [
        {
          "indexed": true,
          "internalType": "address",
          "name": "implementation",
          "type": "address"
        }
      ],
      "name": "Upgraded",
      "type": "event"
    },
    {
      "inputs": [],
      "name": "UPGRADE_INTERFACE_VERSION",
      "outputs": [
        {
          "internalType": "string",
          "name": "",
          "type": "string"
        }
      ],
      "stateMutability": "view",
      "type": "function"
    },
    {
      "inputs": [
        {
          "internalType": "address",
          "name": "to",
          "type": "address"
        },
        {
          "internalType": "uint256",
          "name": "tokenId",
          "type": "uint256"
        }
      ],
      "name": "approve",
      "outputs": [],
      "stateMutability": "nonpayable",
      "type": "function"
    },
    {
      "inputs": [
        {
          "internalType": "address",
          "name": "owner",
          "type": "address"
        }
      ],
      "name": "balanceOf",
      "outputs": [
        {
          "internalType": "uint256",
          "name": "",
          "type": "uint256"
        }
      ],
      "stateMutability": "view",
      "type": "function"
    },
    {
      "inputs": [
        {
          "internalType": "uint256",
          "name": "tokenId",
          "type": "uint256"
        }
      ],
      "name": "getApproved",
      "outputs": [
        {
          "internalType": "address",
          "name": "",
          "type": "address"
        }
      ],
      "stateMutability": "view",
      "type": "function"
    },
    {
      "inputs": [],
      "name": "initialize",
      "outputs": [],
      "stateMutability": "nonpayable",
      "type": "function"
    },
    {
      "inputs": [
        {
          "internalType": "address",
          "name": "owner",
          "type": "address"
        },
        {
          "internalType": "address",
          "name": "operator",
          "type": "address"
        }
      ],
      "name": "isApprovedForAll",
      "outputs": [
        {
          "internalType": "bool",
          "name": "",
          "type": "bool"
        }
      ],
      "stateMutability": "view",
      "type": "function"
    },
    {
      "inputs": [],
      "name": "name",
      "outputs": [
        {
          "internalType": "string",
          "name": "",
          "type": "string"
        }
      ],
      "stateMutability": "view",
      "type": "function"
    },
    {
      "inputs": [],
      "name": "owner",
      "outputs": [
        {
          "internalType": "address",
          "name": "",
          "type": "address"
        }
      ],
      "stateMutability": "view",
      "type": "function"
    },
    {
      "inputs": [
        {
          "internalType": "uint256",
          "name": "tokenId",
          "type": "uint256"
        }
      ],
      "name": "ownerOf",
      "outputs": [
        {
          "internalType": "address",
          "name": "",
          "type": "address"
        }
      ],
      "stateMutability": "view",
      "type": "function"
    },
    {
      "inputs": [],
      "name": "proxiableUUID",
      "outputs": [
        {
          "internalType": "bytes32",
          "name": "",
          "type": "bytes32"
        }
      ],
      "stateMutability": "view",
      "type": "function"
    },
    {
      "inputs": [],
      "name": "renounceOwnership",
      "outputs": [],
      "stateMutability": "nonpayable",
      "type": "function"
    },
    {
      "inputs": [
        {
          "internalType": "address",
          "name": "to",
          "type": "address"
        }
      ],
      "name": "safeMint",
      "outputs": [
        {
          "internalType": "uint256",
          "name": "",
          "type": "uint256"
        }
      ],
      "stateMutability": "nonpayable",
      "type": "function"
    },
    {
      "inputs": [
        {
          "internalType": "address",
          "name": "from",
          "type": "address"
        },
        {
          "internalType": "address",
          "name": "to",
          "type": "address"
        },
        {
          "internalType": "uint256",
          "name": "tokenId",
          "type": "uint256"
        }
      ],
      "name": "safeTransferFrom",
      "outputs": [],
      "stateMutability": "nonpayable",
      "type": "function"
    },
    {
      "inputs": [
        {
          "internalType": "address",
          "name": "from",
          "type": "address"
        },
        {
          "internalType": "address",
          "name": "to",
          "type": "address"
        },
        {
          "internalType": "uint256",
          "name": "tokenId",
          "type": "uint256"
        },
        {
          "internalType": "bytes",
          "name": "data",
          "type": "bytes"
        }
      ],
      "name": "safeTransferFrom",
      "outputs": [],
      "stateMutability": "nonpayable",
      "type": "function"
    },
    {
      "inputs": [
        {
          "internalType": "address",
          "name": "operator",
          "type": "address"
        },
        {
          "internalType": "bool",
          "name": "approved",
          "type": "bool"
        }
      ],
      "name": "setApprovalForAll",
      "outputs": [],
      "stateMutability": "nonpayable",
      "type": "function"
    },
    {
      "inputs": [
        {
          "internalType": "bytes4",
          "name": "interfaceId",
          "type": "bytes4"
        }
      ],
      "name": "supportsInterface",
      "outputs": [
        {
          "internalType": "bool",
          "name": "",
          "type": "bool"
        }
      ],
      "stateMutability": "view",
      "type": "function"
    },
    {
      "inputs": [],
      "name": "symbol",
      "outputs": [
        {
          "internalType": "string",
          "name": "",
          "type": "string"
        }
      ],
      "stateMutability": "view",
      "type": "function"
    },
    {
      "inputs": [
        {
          "internalType": "uint256",
          "name": "tokenId",
          "type": "uint256"
        }
      ],
      "name": "tokenURI",
      "outputs": [
        {
          "internalType": "string",
          "name": "",
          "type": "string"
        }
      ],
      "stateMutability": "view",
      "type": "function"
    },
    {
      "inputs": [
        {
          "internalType": "address",
          "name": "from",
          "type": "address"
        },
        {
          "internalType": "address",
          "name": "to",
          "type": "address"
        },
        {
          "internalType": "uint256",
          "name": "tokenId",
          "type": "uint256"
        }
      ],
      "name": "transferFrom",
      "outputs": [],
      "stateMutability": "nonpayable",
      "type": "function"
    },
    {
      "inputs": [
        {
          "internalType": "address",
          "name": "newOwner",
          "type": "address"
        }
      ],
      "name": "transferOwnership",
      "outputs": [],
      "stateMutability": "nonpayable",
      "type": "function"
    },
    {
      "inputs": [
        {
          "internalType": "address",
          "name": "newImplementation",
          "type": "address"
        },
        {
          "internalType": "bytes",
          "name": "data",
          "type": "bytes"
        }
      ],
      "name": "upgradeToAndCall",
      "outputs": [],
      "stateMutability": "payable",
      "type": "function"
    }
  ],
  "bytecode": "0x60a06040523060805234801561001457600080fd5b5061001d610022565b6100d4565b7ff0c57e16840df040f15088dc2f81fe391c3923bec73e23a9662efc9c229c6a00805468010000000000000000900460ff16156100725760405163f92ee8a960e01b815260040160405180910390fd5b80546001600160401b03908116146100d15780546001600160401b0319166001600160401b0390811782556040519081527fc7f505b2f371ae2175ee4913f4499e1f2633a7b5936321eed1cdaeb6115181d29060200160405180910390a15b50565b608051611b976100fd60003960008181610b1601528181610b3f0152610c800152611b976000f3fe60806040526004361061012a5760003560e01c806370a08231116100ab578063a22cb4651161006f578063a22cb46514610332578063ad3cb1cc14610352578063b88d4fde14610383578063c87b56dd146103a3578063e985e9c5146103c3578063f2fde38b146103e357600080fd5b806370a0823114610296578063715018a6146102b65780638129fc1c146102cb5780638da5cb5b146102e057806395d89b411461031d57600080fd5b806340d097c3116100f257806340d097c31461020057806342842e0e1461022e5780634f1ef2861461024e57806352d1902d146102615780636352211e1461027657600080fd5b806301ffc9a71461012f57806306fdde0314610164578063081812fc14610186578063095ea7b3146101be57806323b872dd146101e0575b600080fd5b34801561013b57600080fd5b5061014f61014a3660046115f6565b610403565b60405190151581526020015b60405180910390f35b34801561017057600080fd5b50610179610455565b60405161015b9190611663565b34801561019257600080fd5b506101a66101a1366004611676565b6104f9565b6040516001600160a01b03909116815260200161015b565b3480156101ca57600080fd5b506101de6101d93660046116ab565b61050e565b005b3480156101ec57600080fd5b506101de6101fb3660046116d5565b61051d565b34801561020c57600080fd5b5061022061021b366004611711565b6105ad565b60405190815260200161015b565b34801561023a57600080fd5b506101de6102493660046116d5565b6105d6565b6101de61025c3660046117cf565b6105f6565b34801561026d57600080fd5b50610220610611565b34801561028257600080fd5b506101a6610291366004611676565b61062e565b3480156102a257600080fd5b506102206102b1366004611711565b610639565b3480156102c257600080fd5b506101de610695565b3480156102d757600080fd5b506101de6106a9565b3480156102ec57600080fd5b507f9016d09d72d40fdae2fd8ceac6b6234c7706214fd39c1cd1e609a0528c199300546001600160a01b03166101a6565b34801561032957600080fd5b50610179610807565b34801561033e57600080fd5b506101de61034d36600461181d565b610846565b34801561035e57600080fd5b50610179604051806040016040528060058152602001640352e302e360dc1b81525081565b34801561038f57600080fd5b506101de61039e366004611859565b610851565b3480156103af57600080fd5b506101796103be366004611676565b610868565b3480156103cf57600080fd5b5061014f6103de3660046118c1565b6108dd565b3480156103ef57600080fd5b506101de6103fe366004611711565b61092a565b60006001600160e01b031982166380ac58cd60e01b148061043457506001600160e01b03198216635b5e139f60e01b145b8061044f57506301ffc9a760e01b6001600160e01b03198316145b92915050565b600080516020611b228339815191528054606091908190610475906118f4565b80601f01602080910402602001604051908101604052809291908181526020018280546104a1906118f4565b80156104ee5780601f106104c3576101008083540402835291602001916104ee565b820191906000526020600020905b8154815290600101906020018083116104d157829003601f168201915b505050505091505090565b600061050482610968565b5061044f826109a0565b6105198282336109da565b5050565b6001600160a01b03821661054c57604051633250574960e11b8152600060048201526024015b60405180910390fd5b60006105598383336109e7565b9050836001600160a01b0316816001600160a01b0316146105a7576040516364283d7b60e01b81526001600160a01b0380861660048301526024820184905282166044820152606401610543565b50505050565b600080546105bb8382610af1565b6000805490806105ca8361192e565b90915550909392505050565b6105f183838360405180602001604052806000815250610851565b505050565b6105fe610b0b565b61060782610bb0565b6105198282610bb8565b600061061b610c75565b50600080516020611b4283398151915290565b600061044f82610968565b6000600080516020611b228339815191526001600160a01b038316610674576040516322718ad960e21b815260006004820152602401610543565b6001600160a01b039092166000908152600390920160205250604090205490565b61069d610cbe565b6106a76000610d19565b565b7ff0c57e16840df040f15088dc2f81fe391c3923bec73e23a9662efc9c229c6a008054600160401b810460ff16159067ffffffffffffffff166000811580156106ef5750825b905060008267ffffffffffffffff16600114801561070c5750303b155b90508115801561071a575080155b156107385760405163f92ee8a960e01b815260040160405180910390fd5b845467ffffffffffffffff19166001178555831561076257845460ff60401b1916600160401b1785555b6107a56040518060400160405280600581526020016427232a102160d91b8152506040518060400160405280600481526020016327232a2160e11b815250610d8a565b6107ae33610d9c565b6107b6610dad565b60008055831561080057845460ff60401b19168555604051600181527fc7f505b2f371ae2175ee4913f4499e1f2633a7b5936321eed1cdaeb6115181d29060200160405180910390a15b5050505050565b7f80bb2b638cc20bc4d0a60d66940f3ab4a00c1d7b313497ca82fb0b4ab00793018054606091600080516020611b2283398151915291610475906118f4565b610519338383610db5565b61085c84848461051d565b6105a784848484610e66565b606061087382610968565b50600061088b60408051602081019091526000815290565b905060008151116108ab57604051806020016040528060008152506108d6565b806108b584610f88565b6040516020016108c6929190611955565b6040516020818303038152906040525b9392505050565b6001600160a01b0391821660009081527f80bb2b638cc20bc4d0a60d66940f3ab4a00c1d7b313497ca82fb0b4ab00793056020908152604080832093909416825291909152205460ff1690565b610932610cbe565b6001600160a01b03811661095c57604051631e4fbdf760e01b815260006004820152602401610543565b61096581610d19565b50565b6000806109748361101b565b90506001600160a01b03811661044f57604051637e27328960e01b815260048101849052602401610543565b60009081527f80bb2b638cc20bc4d0a60d66940f3ab4a00c1d7b313497ca82fb0b4ab007930460205260409020546001600160a01b031690565b6105f18383836001611055565b6000600080516020611b2283398151915281610a028561101b565b90506001600160a01b03841615610a1e57610a1e81858761116b565b6001600160a01b03811615610a5e57610a3b600086600080611055565b6001600160a01b0381166000908152600383016020526040902080546000190190555b6001600160a01b03861615610a8f576001600160a01b03861660009081526003830160205260409020805460010190555b600085815260028301602052604080822080546001600160a01b0319166001600160a01b038a811691821790925591518893918516917fddf252ad1be2c89b69c2b068fc378daa952ba7f163c4a11628f55a4df523b3ef91a495945050505050565b6105198282604051806020016040528060008152506111cf565b306001600160a01b037f0000000000000000000000000000000000000000000000000000000000000000161480610b9257507f00000000000000000000000000000000000000000000000000000000000000006001600160a01b0316610b86600080516020611b42833981519152546001600160a01b031690565b6001600160a01b031614155b156106a75760405163703e46dd60e11b815260040160405180910390fd5b610965610cbe565b816001600160a01b03166352d1902d6040518163ffffffff1660e01b8152600401602060405180830381865afa925050508015610c12575060408051601f3d908101601f19168201909252610c0f91810190611984565b60015b610c3a57604051634c9c8ce360e01b81526001600160a01b0383166004820152602401610543565b600080516020611b428339815191528114610c6b57604051632a87526960e21b815260048101829052602401610543565b6105f183836111e6565b306001600160a01b037f000000000000000000000000000000000000000000000000000000000000000016146106a75760405163703e46dd60e11b815260040160405180910390fd5b33610cf07f9016d09d72d40fdae2fd8ceac6b6234c7706214fd39c1cd1e609a0528c199300546001600160a01b031690565b6001600160a01b0316146106a75760405163118cdaa760e01b8152336004820152602401610543565b7f9016d09d72d40fdae2fd8ceac6b6234c7706214fd39c1cd1e609a0528c19930080546001600160a01b031981166001600160a01b03848116918217845560405192169182907f8be0079c531659141344cd1fd0a4f28419497f9722a3daafe3b4186f6b6457e090600090a3505050565b610d9261123c565b6105198282611285565b610da461123c565b610965816112b6565b6106a761123c565b600080516020611b228339815191526001600160a01b038316610df657604051630b61174360e31b81526001600160a01b0384166004820152602401610543565b6001600160a01b038481166000818152600584016020908152604080832094881680845294825291829020805460ff191687151590811790915591519182527f17307eab39ab6107e8899845ad3d59bd9653f200f220920489ca2b5937696c31910160405180910390a350505050565b6001600160a01b0383163b156105a757604051630a85bd0160e11b81526001600160a01b0384169063150b7a0290610ea890339088908790879060040161199d565b6020604051808303816000875af1925050508015610ee3575060408051601f3d908101601f19168201909252610ee0918101906119da565b60015b610f4c573d808015610f11576040519150601f19603f3d011682016040523d82523d6000602084013e610f16565b606091505b508051600003610f4457604051633250574960e11b81526001600160a01b0385166004820152602401610543565b805181602001fd5b6001600160e01b03198116630a85bd0160e11b1461080057604051633250574960e11b81526001600160a01b0385166004820152602401610543565b60606000610f95836112be565b600101905060008167ffffffffffffffff811115610fb557610fb561172c565b6040519080825280601f01601f191660200182016040528015610fdf576020820181803683370190505b5090508181016020015b600019016f181899199a1a9b1b9c1cb0b131b232b360811b600a86061a8153600a8504945084610fe957509392505050565b60009081527f80bb2b638cc20bc4d0a60d66940f3ab4a00c1d7b313497ca82fb0b4ab007930260205260409020546001600160a01b031690565b600080516020611b22833981519152818061107857506001600160a01b03831615155b1561113a57600061108885610968565b90506001600160a01b038416158015906110b45750836001600160a01b0316816001600160a01b031614155b80156110c757506110c581856108dd565b155b156110f05760405163a9fbf51f60e01b81526001600160a01b0385166004820152602401610543565b82156111385784866001600160a01b0316826001600160a01b03167f8c5be1e5ebec7d5bd14f71427d1e84f3dd0314c0f7b2291e5b200ac8c7c3b92560405160405180910390a45b505b600093845260040160205250506040902080546001600160a01b0319166001600160a01b0392909216919091179055565b611176838383611396565b6105f1576001600160a01b0383166111a457604051637e27328960e01b815260048101829052602401610543565b60405163177e802f60e01b81526001600160a01b038316600482015260248101829052604401610543565b6111d983836113fc565b6105f16000848484610e66565b6111ef82611461565b6040516001600160a01b038316907fbc7cd75a20ee27fd9adebab32041f755214dbc6bffa90cc0225b39da2e5c2d3b90600090a2805115611234576105f182826114c6565b61051961153c565b7ff0c57e16840df040f15088dc2f81fe391c3923bec73e23a9662efc9c229c6a0054600160401b900460ff166106a757604051631afcd79f60e31b815260040160405180910390fd5b61128d61123c565b600080516020611b22833981519152806112a78482611a45565b50600181016105a78382611a45565b61093261123c565b60008072184f03e93ff9f4daa797ed6e38ed64bf6a1f0160401b83106112fd5772184f03e93ff9f4daa797ed6e38ed64bf6a1f0160401b830492506040015b6d04ee2d6d415b85acef81000000008310611329576d04ee2d6d415b85acef8100000000830492506020015b662386f26fc10000831061134757662386f26fc10000830492506010015b6305f5e100831061135f576305f5e100830492506008015b612710831061137357612710830492506004015b60648310611385576064830492506002015b600a831061044f5760010192915050565b60006001600160a01b038316158015906113f45750826001600160a01b0316846001600160a01b031614806113d057506113d084846108dd565b806113f45750826001600160a01b03166113e9836109a0565b6001600160a01b0316145b949350505050565b6001600160a01b03821661142657604051633250574960e11b815260006004820152602401610543565b6000611434838360006109e7565b90506001600160a01b038116156105f1576040516339e3563760e11b815260006004820152602401610543565b806001600160a01b03163b60000361149757604051634c9c8ce360e01b81526001600160a01b0382166004820152602401610543565b600080516020611b4283398151915280546001600160a01b0319166001600160a01b0392909216919091179055565b6060600080846001600160a01b0316846040516114e39190611b05565b600060405180830381855af49150503d806000811461151e576040519150601f19603f3d011682016040523d82523d6000602084013e611523565b606091505b509150915061153385838361155b565b95945050505050565b34156106a75760405163b398979f60e01b815260040160405180910390fd5b6060826115705761156b826115b7565b6108d6565b815115801561158757506001600160a01b0384163b155b156115b057604051639996b31560e01b81526001600160a01b0385166004820152602401610543565b50806108d6565b8051156115c75780518082602001fd5b604051630a12f52160e11b815260040160405180910390fd5b6001600160e01b03198116811461096557600080fd5b60006020828403121561160857600080fd5b81356108d6816115e0565b60005b8381101561162e578181015183820152602001611616565b50506000910152565b6000815180845261164f816020860160208601611613565b601f01601f19169290920160200192915050565b6020815260006108d66020830184611637565b60006020828403121561168857600080fd5b5035919050565b80356001600160a01b03811681146116a657600080fd5b919050565b600080604083850312156116be57600080fd5b6116c78361168f565b946020939093013593505050565b6000806000606084860312156116ea57600080fd5b6116f38461168f565b92506117016020850161168f565b9150604084013590509250925092565b60006020828403121561172357600080fd5b6108d68261168f565b634e487b7160e01b600052604160045260246000fd5b600082601f83011261175357600080fd5b813567ffffffffffffffff8082111561176e5761176e61172c565b604051601f8301601f19908116603f011681019082821181831017156117965761179661172c565b816040528381528660208588010111156117af57600080fd5b836020870160208301376000602085830101528094505050505092915050565b600080604083850312156117e257600080fd5b6117eb8361168f565b9150602083013567ffffffffffffffff81111561180757600080fd5b61181385828601611742565b9150509250929050565b6000806040838503121561183057600080fd5b6118398361168f565b91506020830135801515811461184e57600080fd5b809150509250929050565b6000806000806080858703121561186f57600080fd5b6118788561168f565b93506118866020860161168f565b925060408501359150606085013567ffffffffffffffff8111156118a957600080fd5b6118b587828801611742565b91505092959194509250565b600080604083850312156118d457600080fd5b6118dd8361168f565b91506118eb6020840161168f565b90509250929050565b600181811c9082168061190857607f821691505b60208210810361192857634e487b7160e01b600052602260045260246000fd5b50919050565b60006001820161194e57634e487b7160e01b600052601160045260246000fd5b5060010190565b60008351611967818460208801611613565b83519083019061197b818360208801611613565b01949350505050565b60006020828403121561199657600080fd5b5051919050565b6001600160a01b03858116825284166020820152604081018390526080606082018190526000906119d090830184611637565b9695505050505050565b6000602082840312156119ec57600080fd5b81516108d6816115e0565b601f8211156105f157600081815260208120601f850160051c81016020861015611a1e5750805b601f850160051c820191505b81811015611a3d57828155600101611a2a565b505050505050565b815167ffffffffffffffff811115611a5f57611a5f61172c565b611a7381611a6d84546118f4565b846119f7565b602080601f831160018114611aa85760008415611a905750858301515b600019600386901b1c1916600185901b178555611a3d565b600085815260208120601f198616915b82811015611ad757888601518255948401946001909101908401611ab8565b5085821015611af55787850151600019600388901b60f8161c191681555b5050505050600190811b01905550565b60008251611b17818460208701611613565b919091019291505056fe80bb2b638cc20bc4d0a60d66940f3ab4a00c1d7b313497ca82fb0b4ab0079300360894a13ba1a3210667c828492db98dca3e2076cc3735a920a3ca505d382bbca26469706673582212207c72fc11eacf8c823489c9198022b1044d831055ce24e11eb6edf3aa763aa94b64736f6c63430008140033",
  "linkReferences": {},
  "deployedLinkReferences": {}
}