{
  "_format": "hh-sol-artifact-1",
  "contractName": "UpgradeableStaking",
  "sourceName": "contracts/Staking.sol",
  "abi": [
    {
      "inputs": [],
      "stateMutability": "nonpayable",
      "type": "constructor"
    },
    {
      "inputs": [
        {
          "internalType": "address",
          "name": "target",
          "type": "address"
        }
      ],
      "name": "AddressEmptyCode",
      "type": "error"
    },
    {
      "inputs": [
        {
          "internalType": "address",
          "name": "implementation",
          "type": "address"
        }
      ],
      "name": "ERC1967InvalidImplementation",
      "type": "error"
    },
    {
      "inputs": [],
      "name": "ERC1967NonPayable",
      "type": "error"
    },
    {
      "inputs": [],
      "name": "FailedInnerCall",
      "type": "error"
    },
    {
      "inputs": [],
      "name": "InvalidInitialization",
      "type": "error"
    },
    {
      "inputs": [],
      "name": "MathOverflowedMulDiv",
      "type": "error"
    },
    {
      "inputs": [],
      "name": "NotInitializing",
      "type": "error"
    },
    {
      "inputs": [
        {
          "internalType": "address",
          "name": "owner",
          "type": "address"
        }
      ],
      "name": "OwnableInvalidOwner",
      "type": "error"
    },
    {
      "inputs": [
        {
          "internalType": "address",
          "name": "account",
          "type": "address"
        }
      ],
      "name": "OwnableUnauthorizedAccount",
      "type": "error"
    },
    {
      "inputs": [],
      "name": "UUPSUnauthorizedCallContext",
      "type": "error"
    },
    {
      "inputs": [
        {
          "internalType": "bytes32",
          "name": "slot",
          "type": "bytes32"
        }
      ],
      "name": "UUPSUnsupportedProxiableUUID",
      "type": "error"
    },
    {
      "anonymous": false,
      "inputs": [
        {
          "indexed": false,
          "internalType": "uint256",
          "name": "newBaseAPR",
          "type": "uint256"
        }
      ],
      "name": "APRUpdated",
      "type": "event"
    },
    {
      "anonymous": false,
      "inputs": [
        {
          "indexed": true,
          "internalType": "address",
          "name": "user",
          "type": "address"
        },
        {
          "indexed": false,
          "internalType": "uint256",
          "name": "amount",
          "type": "uint256"
        }
      ],
      "name": "Deposited",
      "type": "event"
    },
    {
      "anonymous": false,
      "inputs": [
        {
          "indexed": false,
          "internalType": "uint64",
          "name": "version",
          "type": "uint64"
        }
      ],
      "name": "Initialized",
      "type": "event"
    },
    {
      "anonymous": false,
      "inputs": [
        {
          "indexed": true,
          "internalType": "address",
          "name": "user",
          "type": "address"
        },
        {
          "indexed": false,
          "internalType": "uint256",
          "name": "tokenId",
          "type": "uint256"
        }
      ],
      "name": "NFTDeposited",
      "type": "event"
    },
    {
      "anonymous": false,
      "inputs": [
        {
          "indexed": true,
          "internalType": "address",
          "name": "user",
          "type": "address"
        },
        {
          "indexed": false,
          "internalType": "uint256",
          "name": "tokenId",
          "type": "uint256"
        }
      ],
      "name": "NFTMinted",
      "type": "event"
    },
    {
      "anonymous": false,
      "inputs": [
        {
          "indexed": true,
          "internalType": "address",
          "name": "user",
          "type": "address"
        },
        {
          "indexed": false,
          "internalType": "uint256",
          "name": "tokenId",
          "type": "uint256"
        }
      ],
      "name": "NFTWithdrawn",
      "type": "event"
    },
    {
      "anonymous": false,
      "inputs": [
        {
          "indexed": true,
          "internalType": "address",
          "name": "previousOwner",
          "type": "address"
        },
        {
          "indexed": true,
          "internalType": "address",
          "name": "newOwner",
          "type": "address"
        }
      ],
      "name": "OwnershipTransferred",
      "type": "event"
    },
    {
      "anonymous": false,
      "inputs": [
        {
          "indexed": true,
          "internalType": "address",
          "name": "user",
          "type": "address"
        },
        {
          "indexed": false,
          "internalType": "uint256",
          "name": "reward",
          "type": "uint256"
        }
      ],
      "name": "RewardClaimed",
      "type": "event"
    },
    {
      "anonymous": false,
      "inputs": [
        {
          "indexed": true,
          "internalType": "address",
          "name": "implementation",
          "type": "address"
        }
      ],
      "name": "Upgraded",
      "type": "event"
    },
    {
      "anonymous": false,
      "inputs": [
        {
          "indexed": true,
          "internalType": "address",
          "name": "user",
          "type": "address"
        },
        {
          "indexed": false,
          "internalType": "uint256",
          "name": "amount",
          "type": "uint256"
        },
        {
          "indexed": false,
          "internalType": "uint256",
          "name": "reward",
          "type": "uint256"
        }
      ],
      "name": "Withdrawn",
      "type": "event"
    },
    {
      "inputs": [],
      "name": "LOCK_PERIOD",
      "outputs": [
        {
          "internalType": "uint256",
          "name": "",
          "type": "uint256"
        }
      ],
      "stateMutability": "view",
      "type": "function"
    },
    {
      "inputs": [],
      "name": "NFT_THRESHOLD",
      "outputs": [
        {
          "internalType": "uint256",
          "name": "",
          "type": "uint256"
        }
      ],
      "stateMutability": "view",
      "type": "function"
    },
    {
      "inputs": [],
      "name": "UPGRADE_INTERFACE_VERSION",
      "outputs": [
        {
          "internalType": "string",
          "name": "",
          "type": "string"
        }
      ],
      "stateMutability": "view",
      "type": "function"
    },
    {
      "inputs": [],
      "name": "baseAPR",
      "outputs": [
        {
          "internalType": "uint256",
          "name": "",
          "type": "uint256"
        }
      ],
      "stateMutability": "view",
      "type": "function"
    },
    {
      "inputs": [
        {
          "internalType": "address",
          "name": "user",
          "type": "address"
        }
      ],
      "name": "calculateReward",
      "outputs": [
        {
          "internalType": "uint256",
          "name": "",
          "type": "uint256"
        }
      ],
      "stateMutability": "view",
      "type": "function"
    },
    {
      "inputs": [],
      "name": "claimReward",
      "outputs": [],
      "stateMutability": "nonpayable",
      "type": "function"
    },
    {
      "inputs": [
        {
          "internalType": "uint256",
          "name": "amount",
          "type": "uint256"
        }
      ],
      "name": "deposit",
      "outputs": [],
      "stateMutability": "nonpayable",
      "type": "function"
    },
    {
      "inputs": [
        {
          "internalType": "uint256",
          "name": "tokenId",
          "type": "uint256"
        }
      ],
      "name": "depositNFT",
      "outputs": [],
      "stateMutability": "nonpayable",
      "type": "function"
    },
    {
      "inputs": [],
      "name": "getContractBalance",
      "outputs": [
        {
          "internalType": "uint256",
          "name": "",
          "type": "uint256"
        }
      ],
      "stateMutability": "view",
      "type": "function"
    },
    {
      "inputs": [
        {
          "internalType": "address",
          "name": "user",
          "type": "address"
        }
      ],
      "name": "getCurrentAPR",
      "outputs": [
        {
          "internalType": "uint256",
          "name": "",
          "type": "uint256"
        }
      ],
      "stateMutability": "view",
      "type": "function"
    },
    {
      "inputs": [
        {
          "internalType": "address",
          "name": "user",
          "type": "address"
        }
      ],
      "name": "getMintedNFTCount",
      "outputs": [
        {
          "internalType": "uint256",
          "name": "",
          "type": "uint256"
        }
      ],
      "stateMutability": "view",
      "type": "function"
    },
    {
      "inputs": [
        {
          "internalType": "address",
          "name": "user",
          "type": "address"
        }
      ],
      "name": "getOwnedNFTs",
      "outputs": [
        {
          "internalType": "uint256[]",
          "name": "",
          "type": "uint256[]"
        }
      ],
      "stateMutability": "view",
      "type": "function"
    },
    {
      "inputs": [
        {
          "internalType": "address",
          "name": "user",
          "type": "address"
        }
      ],
      "name": "getRemainingLockTime",
      "outputs": [
        {
          "internalType": "uint256",
          "name": "",
          "type": "uint256"
        }
      ],
      "stateMutability": "view",
      "type": "function"
    },
    {
      "inputs": [
        {
          "internalType": "address",
          "name": "user",
          "type": "address"
        }
      ],
      "name": "getStakeDetails",
      "outputs": [
        {
          "internalType": "uint256",
          "name": "stakedAmount",
          "type": "uint256"
        },
        {
          "internalType": "uint256",
          "name": "pendingReward",
          "type": "uint256"
        },
        {
          "internalType": "uint256",
          "name": "calculatedReward",
          "type": "uint256"
        },
        {
          "internalType": "uint256",
          "name": "lockEndTime",
          "type": "uint256"
        }
      ],
      "stateMutability": "view",
      "type": "function"
    },
    {
      "inputs": [
        {
          "internalType": "address",
          "name": "user",
          "type": "address"
        }
      ],
      "name": "getStakedNFTCount",
      "outputs": [
        {
          "internalType": "uint256",
          "name": "",
          "type": "uint256"
        }
      ],
      "stateMutability": "view",
      "type": "function"
    },
    {
      "inputs": [
        {
          "internalType": "address",
          "name": "_tokenA",
          "type": "address"
        },
        {
          "internalType": "address",
          "name": "_nftB",
          "type": "address"
        }
      ],
      "name": "initialize",
      "outputs": [],
      "stateMutability": "nonpayable",
      "type": "function"
    },
    {
      "inputs": [
        {
          "internalType": "address",
          "name": "",
          "type": "address"
        }
      ],
      "name": "mintedNFTs",
      "outputs": [
        {
          "internalType": "uint256",
          "name": "",
          "type": "uint256"
        }
      ],
      "stateMutability": "view",
      "type": "function"
    },
    {
      "inputs": [],
      "name": "nftB",
      "outputs": [
        {
          "internalType": "contract UpgradeableNFTB",
          "name": "",
          "type": "address"
        }
      ],
      "stateMutability": "view",
      "type": "function"
    },
    {
      "inputs": [],
      "name": "nftBonusAPR",
      "outputs": [
        {
          "internalType": "uint256",
          "name": "",
          "type": "uint256"
        }
      ],
      "stateMutability": "view",
      "type": "function"
    },
    {
      "inputs": [],
      "name": "owner",
      "outputs": [
        {
          "internalType": "address",
          "name": "",
          "type": "address"
        }
      ],
      "stateMutability": "view",
      "type": "function"
    },
    {
      "inputs": [],
      "name": "proxiableUUID",
      "outputs": [
        {
          "internalType": "bytes32",
          "name": "",
          "type": "bytes32"
        }
      ],
      "stateMutability": "view",
      "type": "function"
    },
    {
      "inputs": [],
      "name": "renounceOwnership",
      "outputs": [],
      "stateMutability": "nonpayable",
      "type": "function"
    },
    {
      "inputs": [
        {
          "internalType": "address",
          "name": "",
          "type": "address"
        },
        {
          "internalType": "uint256",
          "name": "",
          "type": "uint256"
        }
      ],
      "name": "stakedNFTs",
      "outputs": [
        {
          "internalType": "uint256",
          "name": "",
          "type": "uint256"
        }
      ],
      "stateMutability": "view",
      "type": "function"
    },
    {
      "inputs": [
        {
          "internalType": "address",
          "name": "",
          "type": "address"
        }
      ],
      "name": "stakes",
      "outputs": [
        {
          "internalType": "uint256",
          "name": "amount",
          "type": "uint256"
        },
        {
          "internalType": "uint256",
          "name": "timestamp",
          "type": "uint256"
        },
        {
          "internalType": "uint256",
          "name": "nftDepositTime",
          "type": "uint256"
        },
        {
          "internalType": "uint256",
          "name": "nftCount",
          "type": "uint256"
        },
        {
          "internalType": "uint256",
          "name": "pendingReward",
          "type": "uint256"
        },
        {
          "internalType": "uint256",
          "name": "lockEndTime",
          "type": "uint256"
        },
        {
          "internalType": "uint256",
          "name": "mintedNFTCount",
          "type": "uint256"
        },
        {
          "internalType": "uint256",
          "name": "totalStakedAmount",
          "type": "uint256"
        }
      ],
      "stateMutability": "view",
      "type": "function"
    },
    {
      "inputs": [],
      "name": "tokenA",
      "outputs": [
        {
          "internalType": "contract UpgradeableTokenA",
          "name": "",
          "type": "address"
        }
      ],
      "stateMutability": "view",
      "type": "function"
    },
    {
      "inputs": [
        {
          "internalType": "address",
          "name": "newOwner",
          "type": "address"
        }
      ],
      "name": "transferOwnership",
      "outputs": [],
      "stateMutability": "nonpayable",
      "type": "function"
    },
    {
      "inputs": [
        {
          "internalType": "uint256",
          "name": "newBaseAPR",
          "type": "uint256"
        }
      ],
      "name": "updateBaseAPR",
      "outputs": [],
      "stateMutability": "nonpayable",
      "type": "function"
    },
    {
      "inputs": [
        {
          "internalType": "address",
          "name": "newImplementation",
          "type": "address"
        },
        {
          "internalType": "bytes",
          "name": "data",
          "type": "bytes"
        }
      ],
      "name": "upgradeToAndCall",
      "outputs": [],
      "stateMutability": "payable",
      "type": "function"
    },
    {
      "inputs": [],
      "name": "withdraw",
      "outputs": [],
      "stateMutability": "nonpayable",
      "type": "function"
    },
    {
      "inputs": [
        {
          "internalType": "uint256[]",
          "name": "tokenIds",
          "type": "uint256[]"
        }
      ],
      "name": "withdrawNFTs",
      "outputs": [],
      "stateMutability": "nonpayable",
      "type": "function"
    }
  ],
  "bytecode": "0x60a0604052306080523480156200001557600080fd5b506200002062000026565b620000da565b7ff0c57e16840df040f15088dc2f81fe391c3923bec73e23a9662efc9c229c6a00805468010000000000000000900460ff1615620000775760405163f92ee8a960e01b815260040160405180910390fd5b80546001600160401b0390811614620000d75780546001600160401b0319166001600160401b0390811782556040519081527fc7f505b2f371ae2175ee4913f4499e1f2633a7b5936321eed1cdaeb6115181d29060200160405180910390a15b50565b6080516125236200010460003960008181611b3401528181611b5d0152611ca301526125236000f3fe6080604052600436106101cd5760003560e01c8063715018a6116100f7578063ba060bed11610095578063e91a7ca611610064578063e91a7ca6146105d7578063f2fde38b146105f7578063f41322ac14610617578063f70600481461065757600080fd5b8063ba060bed1461054a578063c2baf73314610577578063cf9fe22b14610597578063d82e3962146105b757600080fd5b8063ad3cb1cc116100d1578063ad3cb1cc1461049e578063b390bd91146104dc578063b6b55f2514610515578063b88a802f1461053557600080fd5b8063715018a61461042e5780638da5cb5b1461044357806393c494841461048057600080fd5b80633ccfd60b1161016f57806352d1902d1161013e57806352d1902d146103d857806358ac0e80146103ed5780636f9fb98a146104035780637120f2941461041857600080fd5b80633ccfd60b1461036e5780634730449414610385578063485cc955146103a55780634f1ef286146103c557600080fd5b806316934fc4116101ab57806316934fc41461027357806318148f1b1461030c5780631820cabb1461033957806332e2cea81461034e57600080fd5b806301d650e1146101d2578063096ff61c146102055780630fc63d101461023b575b600080fd5b3480156101de57600080fd5b506101f26101ed3660046120e0565b610677565b6040519081526020015b60405180910390f35b34801561021157600080fd5b506101f26102203660046120e0565b6001600160a01b031660009081526006602052604090205490565b34801561024757600080fd5b5060005461025b906001600160a01b031681565b6040516001600160a01b0390911681526020016101fc565b34801561027f57600080fd5b506102d161028e3660046120e0565b6004602081905260009182526040909120805460018201546002830154600384015494840154600585015460068601546007909601549496939592949192909188565b604080519889526020890197909752958701949094526060860192909252608085015260a084015260c083015260e0820152610100016101fc565b34801561031857600080fd5b5061032c6103273660046120e0565b6106ca565b6040516101fc91906120fd565b34801561034557600080fd5b506101f2601e81565b34801561035a57600080fd5b5060015461025b906001600160a01b031681565b34801561037a57600080fd5b50610383610857565b005b34801561039157600080fd5b506101f26103a03660046120e0565b610c63565b3480156103b157600080fd5b506103836103c0366004612141565b610cab565b6103836103d3366004612190565b610dff565b3480156103e457600080fd5b506101f2610e1e565b3480156103f957600080fd5b506101f260025481565b34801561040f57600080fd5b506101f2610e3b565b34801561042457600080fd5b506101f260035481565b34801561043a57600080fd5b50610383610ead565b34801561044f57600080fd5b507f9016d09d72d40fdae2fd8ceac6b6234c7706214fd39c1cd1e609a0528c199300546001600160a01b031661025b565b34801561048c57600080fd5b506101f269d3c21bcecceda100000081565b3480156104aa57600080fd5b506104cf604051806040016040528060058152602001640352e302e360dc1b81525081565b6040516101fc9190612278565b3480156104e857600080fd5b506101f26104f73660046120e0565b6001600160a01b031660009081526004602052604090206003015490565b34801561052157600080fd5b506103836105303660046122ab565b610ec1565b34801561054157600080fd5b506103836111bc565b34801561055657600080fd5b506101f26105653660046120e0565b60066020526000908152604090205481565b34801561058357600080fd5b506103836105923660046122ab565b61138c565b3480156105a357600080fd5b506103836105b23660046122c4565b6113cf565b3480156105c357600080fd5b506101f26105d23660046120e0565b611783565b3480156105e357600080fd5b506103836105f23660046122ab565b611885565b34801561060357600080fd5b506103836106123660046120e0565b611a62565b34801561062357600080fd5b506106376106323660046120e0565b611aa0565b6040805194855260208501939093529183015260608201526080016101fc565b34801561066357600080fd5b506101f2610672366004612339565b611adf565b6001600160a01b0381166000908152600460205260408120600381015482036106a4575050600254919050565b80600301546003546106b6919061237b565b6002546106c39190612392565b9392505050565b6001546040516370a0823160e01b81526001600160a01b0383811660048301526060926000929116906370a0823190602401602060405180830381865afa158015610719573d6000803e3d6000fd5b505050506040513d601f19601f8201168201806040525081019061073d91906123a5565b905060008167ffffffffffffffff81111561075a5761075a61217a565b604051908082528060200260200182016040528015610783578160200160208202803683370190505b5090506000805b8382101561084d576001546040516331a9108f60e11b8152600481018390526001600160a01b03888116921690636352211e90602401602060405180830381865afa1580156107dd573d6000803e3d6000fd5b505050506040513d601f19601f8201168201806040525081019061080191906123be565b6001600160a01b03160361083b5780838381518110610822576108226123db565b602090810291909101015281610837816123f1565b9250505b80610845816123f1565b91505061078a565b5090949350505050565b33600090815260046020526040902080546108b05760405162461bcd60e51b81526020600482015260146024820152734e6f207374616b6520746f20776974686472617760601b60448201526064015b60405180910390fd5b80600501544210156109045760405162461bcd60e51b815260206004820152601760248201527f546f6b656e7320617265207374696c6c206c6f636b656400000000000000000060448201526064016108a7565b6000816004015461091433611783565b61091e9190612392565b600054835460405163a9059cbb60e01b815233600482015260248101919091529192506001600160a01b03169063a9059cbb906044016020604051808303816000875af1158015610973573d6000803e3d6000fd5b505050506040513d601f19601f82011682018060405250810190610997919061240a565b6109e35760405162461bcd60e51b815260206004820152601d60248201527f5374616b656420616d6f756e74207472616e73666572206661696c656400000060448201526064016108a7565b6000546040516315490ebb60e01b8152336004820152602481018390526001600160a01b03909116906315490ebb906044016020604051808303816000875af1158015610a34573d6000803e3d6000fd5b505050506040513d601f19601f82011682018060405250810190610a58919061240a565b610a9d5760405162461bcd60e51b815260206004820152601660248201527514995dd85c99081d1c985b9cd9995c8819985a5b195960521b60448201526064016108a7565b60005b33600090815260056020526040902054811015610b9357336000908152600560205260408120805483908110610ad857610ad86123db565b6000918252602090912001546001546040516323b872dd60e01b81529192506001600160a01b0316906323b872dd90610b199030903390869060040161242c565b600060405180830381600087803b158015610b3357600080fd5b505af1158015610b47573d6000803e3d6000fd5b50506040518381523392507f2aa1b4c95f3b2da9c955947fca584743ea0d457708fadf209c093061e98c4ccb915060200160405180910390a25080610b8b816123f1565b915050610aa0565b508154604080519182526020820183905233917f92ccf450a286a957af52509bc1c9939d1a6a481783e142e41e2499f0bb66ebc6910160405180910390a260405181815233907f106f923f993c2149d49b4255ff723acafa1f2d94393f561d3eda32ae348f72419060200160405180910390a2336000908152600560205260408120610c1e91612099565b50503360009081526004602081905260408220828155600181018390556002810183905560038101839055908101829055600581018290556006810182905560070155565b6001600160a01b038116600090815260046020526040812080541580610c8d575080600501544210155b15610c9b5750600092915050565b4281600501546106c39190612450565b7ff0c57e16840df040f15088dc2f81fe391c3923bec73e23a9662efc9c229c6a008054600160401b810460ff16159067ffffffffffffffff16600081158015610cf15750825b905060008267ffffffffffffffff166001148015610d0e5750303b155b905081158015610d1c575080155b15610d3a5760405163f92ee8a960e01b815260040160405180910390fd5b845467ffffffffffffffff191660011785558315610d6457845460ff60401b1916600160401b1785555b610d6d33611b10565b610d75611b21565b600080546001600160a01b03808a166001600160a01b031992831617909255600180549289169290911691909117905561032060025560c86003558315610df657845460ff60401b19168555604051600181527fc7f505b2f371ae2175ee4913f4499e1f2633a7b5936321eed1cdaeb6115181d29060200160405180910390a15b50505050505050565b610e07611b29565b610e1082611bce565b610e1a8282611bd6565b5050565b6000610e28611c98565b506000805160206124ce83398151915290565b600080546040516370a0823160e01b81523060048201526001600160a01b03909116906370a0823190602401602060405180830381865afa158015610e84573d6000803e3d6000fd5b505050506040513d601f19601f82011682018060405250810190610ea891906123a5565b905090565b610eb5611ce1565b610ebf6000611d3c565b565b60008111610f115760405162461bcd60e51b815260206004820152601d60248201527f416d6f756e74206d7573742062652067726561746572207468616e203000000060448201526064016108a7565b6000546040516323b872dd60e01b81526001600160a01b03909116906323b872dd90610f459033903090869060040161242c565b6020604051808303816000875af1158015610f64573d6000803e3d6000fd5b505050506040513d601f19601f82011682018060405250810190610f88919061240a565b610fc65760405162461bcd60e51b815260206004820152600f60248201526e151c985b9cd9995c8819985a5b1959608a1b60448201526064016108a7565b336000908152600460205260409020805415611004576000610fe733611783565b905080826004016000828254610ffd9190612392565b9091555050505b818160000160008282546110189190612392565b92505081905550818160070160008282546110339190612392565b9091555050426001820181905561104c90601e90612392565b6005820155600281015415611062574260028201555b33600090815260066020526040812054600783015461108c9069d3c21bcecceda100000090612479565b6110969190612450565b905060005b8181101561115d576001546040516340d097c360e01b81523360048201526000916001600160a01b0316906340d097c3906024016020604051808303816000875af11580156110ee573d6000803e3d6000fd5b505050506040513d601f19601f8201168201806040525081019061111291906123a5565b60405181815290915033907f4cc0a9c4a99ddc700de1af2c9f916a7cbfdb71f14801ccff94061ad1ef8a80409060200160405180910390a25080611155816123f1565b91505061109b565b50336000908152600660205260408120805483929061117d908490612392565b909155505060405183815233907f2da466a7b24304f47e87fa2e1e5a81b9831ce54fec19055ce277ca2f39ba42c49060200160405180910390a2505050565b33600090815260046020526040902080546112195760405162461bcd60e51b815260206004820152601d60248201527f4e6f207374616b6520746f20636c61696d207265776172642066726f6d00000060448201526064016108a7565b6000816004015461122933611783565b6112339190612392565b90506000811161127a5760405162461bcd60e51b81526020600482015260126024820152714e6f2072657761726420746f20636c61696d60701b60448201526064016108a7565b6000546040516315490ebb60e01b8152336004820152602481018390526001600160a01b03909116906315490ebb906044016020604051808303816000875af11580156112cb573d6000803e3d6000fd5b505050506040513d601f19601f820116820180604052508101906112ef919061240a565b6113345760405162461bcd60e51b815260206004820152601660248201527514995dd85c99081d1c985b9cd9995c8819985a5b195960521b60448201526064016108a7565b60006004830155426001830155600282015415611352574260028301555b60405181815233907f106f923f993c2149d49b4255ff723acafa1f2d94393f561d3eda32ae348f7241906020015b60405180910390a25050565b611394611ce1565b60028190556040518181527f2ec8ccb96042321f3bbdd56e8e4e4339bc07c9c2021e14e18ef12f5db282b37a9060200160405180910390a150565b33600090815260046020526040902060038101546114255760405162461bcd60e51b81526020600482015260136024820152724e6f204e46547320746f20776974686472617760681b60448201526064016108a7565b816114725760405162461bcd60e51b815260206004820152601f60248201527f4e6f204e4654732073656c656374656420666f72207769746864726177616c0060448201526064016108a7565b60038101548211156114db5760405162461bcd60e51b815260206004820152602c60248201527f417474656d7074696e6720746f207769746864726177206d6f7265204e46547360448201526b081d1a185b881cdd185ad95960a21b60648201526084016108a7565b60006114e633611783565b9050808260040160008282546114fc9190612392565b90915550504260018301556000805b84811015611751576000868683818110611527576115276123db565b9050602002013590506000805b336000908152600560205260409020548110156116ee5733600090815260056020526040902080548491908390811061156f5761156f6123db565b9060005260206000200154036116dc576001546040516323b872dd60e01b81526001600160a01b03909116906323b872dd906115b39030903390889060040161242c565b600060405180830381600087803b1580156115cd57600080fd5b505af11580156115e1573d6000803e3d6000fd5b505033600090815260056020526040902080549092506116049150600190612450565b81548110611614576116146123db565b600091825260208083209091015433835260059091526040909120805483908110611641576116416123db565b600091825260208083209091019290925533815260059091526040902080548061166d5761166d61249b565b60019003818190600052602060002001600090559055336001600160a01b03167f2aa1b4c95f3b2da9c955947fca584743ea0d457708fadf209c093061e98c4ccb846040516116be91815260200190565b60405180910390a2846116d0816123f1565b955050600191506116ee565b806116e6816123f1565b915050611534565b508061173c5760405162461bcd60e51b815260206004820152601c60248201527f4e4654206e6f7420666f756e6420696e207374616b6564204e4654730000000060448201526064016108a7565b50508080611749906123f1565b91505061150b565b50808360030160008282546117669190612450565b909155505060028301541561177c574260028401555b5050505050565b6001600160a01b0381166000908152600460205260408120805482036117ac5750600092915050565b60008160010154426117be9190612450565b90506000808360020154111561186457600061180d846001015485600201546117e79190612450565b60025486546117f6919061237b565b611800919061237b565b600164496cebb800611dad565b9050600061184f8560020154426118249190612450565b8660030154600354611836919061237b565b6002546118439190612392565b87546117f6919061237b565b905061185b8183612392565b9250505061187d565b61187a8260025485600001546117f6919061237b565b90505b949350505050565b6001546040516331a9108f60e11b81526004810183905233916001600160a01b031690636352211e90602401602060405180830381865afa1580156118ce573d6000803e3d6000fd5b505050506040513d601f19601f820116820180604052508101906118f291906123be565b6001600160a01b0316146119415760405162461bcd60e51b8152602060048201526016602482015275165bdd48191bdb89dd081bdddb881d1a1a5cc813919560521b60448201526064016108a7565b6001546040516323b872dd60e01b81526001600160a01b03909116906323b872dd906119759033903090869060040161242c565b600060405180830381600087803b15801561198f57600080fd5b505af11580156119a3573d6000803e3d6000fd5b505033600090815260046020526040902080549092501590506119e85760006119cb33611783565b9050808260040160008282546119e19190612392565b9091555050505b426002820155600381018054906000611a00836123f1565b909155505033600081815260056020908152604080832080546001808201835591855293839020909301869055429285019290925590518481527f1c4b8380f61aea3d5d98cbadaf2e6b2e4f3d8ca8c0fce1290b26ac267158745f9101611380565b611a6a611ce1565b6001600160a01b038116611a9457604051631e4fbdf760e01b8152600060048201526024016108a7565b611a9d81611d3c565b50565b6001600160a01b038116600090815260046020819052604082208054918101549192908190611ace86611783565b925080600501549150509193509193565b60056020528160005260406000208181548110611afb57600080fd5b90600052602060002001600091509150505481565b611b18611e71565b611a9d81611eba565b610ebf611e71565b306001600160a01b037f0000000000000000000000000000000000000000000000000000000000000000161480611bb057507f00000000000000000000000000000000000000000000000000000000000000006001600160a01b0316611ba46000805160206124ce833981519152546001600160a01b031690565b6001600160a01b031614155b15610ebf5760405163703e46dd60e11b815260040160405180910390fd5b611a9d611ce1565b816001600160a01b03166352d1902d6040518163ffffffff1660e01b8152600401602060405180830381865afa925050508015611c30575060408051601f3d908101601f19168201909252611c2d918101906123a5565b60015b611c5857604051634c9c8ce360e01b81526001600160a01b03831660048201526024016108a7565b6000805160206124ce8339815191528114611c8957604051632a87526960e21b8152600481018290526024016108a7565b611c938383611ec2565b505050565b306001600160a01b037f00000000000000000000000000000000000000000000000000000000000000001614610ebf5760405163703e46dd60e11b815260040160405180910390fd5b33611d137f9016d09d72d40fdae2fd8ceac6b6234c7706214fd39c1cd1e609a0528c199300546001600160a01b031690565b6001600160a01b031614610ebf5760405163118cdaa760e01b81523360048201526024016108a7565b7f9016d09d72d40fdae2fd8ceac6b6234c7706214fd39c1cd1e609a0528c19930080546001600160a01b031981166001600160a01b03848116918217845560405192169182907f8be0079c531659141344cd1fd0a4f28419497f9722a3daafe3b4186f6b6457e090600090a3505050565b6000838302816000198587098281108382030391505080600003611de457838281611dda57611dda612463565b04925050506106c3565b808411611e045760405163227bc15360e01b815260040160405180910390fd5b6000848688096000868103871696879004966002600389028118808a02820302808a02820302808a02820302808a02820302808a02820302808a02909103029181900381900460010186841190950394909402919094039290920491909117919091029150509392505050565b7ff0c57e16840df040f15088dc2f81fe391c3923bec73e23a9662efc9c229c6a0054600160401b900460ff16610ebf57604051631afcd79f60e31b815260040160405180910390fd5b611a6a611e71565b611ecb82611f18565b6040516001600160a01b038316907fbc7cd75a20ee27fd9adebab32041f755214dbc6bffa90cc0225b39da2e5c2d3b90600090a2805115611f1057611c938282611f7d565b610e1a611ff5565b806001600160a01b03163b600003611f4e57604051634c9c8ce360e01b81526001600160a01b03821660048201526024016108a7565b6000805160206124ce83398151915280546001600160a01b0319166001600160a01b0392909216919091179055565b6060600080846001600160a01b031684604051611f9a91906124b1565b600060405180830381855af49150503d8060008114611fd5576040519150601f19603f3d011682016040523d82523d6000602084013e611fda565b606091505b5091509150611fea858383612014565b925050505b92915050565b3415610ebf5760405163b398979f60e01b815260040160405180910390fd5b6060826120295761202482612070565b6106c3565b815115801561204057506001600160a01b0384163b155b1561206957604051639996b31560e01b81526001600160a01b03851660048201526024016108a7565b50806106c3565b8051156120805780518082602001fd5b604051630a12f52160e11b815260040160405180910390fd5b5080546000825590600052602060002090810190611a9d91905b808211156120c757600081556001016120b3565b5090565b6001600160a01b0381168114611a9d57600080fd5b6000602082840312156120f257600080fd5b81356106c3816120cb565b6020808252825182820181905260009190848201906040850190845b8181101561213557835183529284019291840191600101612119565b50909695505050505050565b6000806040838503121561215457600080fd5b823561215f816120cb565b9150602083013561216f816120cb565b809150509250929050565b634e487b7160e01b600052604160045260246000fd5b600080604083850312156121a357600080fd5b82356121ae816120cb565b9150602083013567ffffffffffffffff808211156121cb57600080fd5b818501915085601f8301126121df57600080fd5b8135818111156121f1576121f161217a565b604051601f8201601f19908116603f011681019083821181831017156122195761221961217a565b8160405282815288602084870101111561223257600080fd5b8260208601602083013760006020848301015280955050505050509250929050565b60005b8381101561226f578181015183820152602001612257565b50506000910152565b6020815260008251806020840152612297816040850160208701612254565b601f01601f19169190910160400192915050565b6000602082840312156122bd57600080fd5b5035919050565b600080602083850312156122d757600080fd5b823567ffffffffffffffff808211156122ef57600080fd5b818501915085601f83011261230357600080fd5b81358181111561231257600080fd5b8660208260051b850101111561232757600080fd5b60209290920196919550909350505050565b6000806040838503121561234c57600080fd5b8235612357816120cb565b946020939093013593505050565b634e487b7160e01b600052601160045260246000fd5b8082028115828204841417611fef57611fef612365565b80820180821115611fef57611fef612365565b6000602082840312156123b757600080fd5b5051919050565b6000602082840312156123d057600080fd5b81516106c3816120cb565b634e487b7160e01b600052603260045260246000fd5b60006001820161240357612403612365565b5060010190565b60006020828403121561241c57600080fd5b815180151581146106c357600080fd5b6001600160a01b039384168152919092166020820152604081019190915260600190565b81810381811115611fef57611fef612365565b634e487b7160e01b600052601260045260246000fd5b60008261249657634e487b7160e01b600052601260045260246000fd5b500490565b634e487b7160e01b600052603160045260246000fd5b600082516124c3818460208701612254565b919091019291505056fe360894a13ba1a3210667c828492db98dca3e2076cc3735a920a3ca505d382bbca2646970667358221220b4dac9239ba059192b3c93c4f855ab5dec192118f87edd00b099ede9c50c56b264736f6c63430008140033",
  "linkReferences": {},
  "deployedLinkReferences": {}
}